S00D00004E6F6465322E737265635F
S214080000501200206D020800690208006902080004
S214080010690208006902080069020800000000007A
S2140800200000000000000000000000006902080050
S2140800306902080000000000690208003104080090
S21408004069020800690208006902080069020800D7
S21408005069020800690208006902080069020800C7
S2140800602D05080069020800000000006902080063
S214080070690208006902080069020800000000001A
S214080080000000006902080069020800690208000A
S2140800906902080069020800690208006902080087
S2140800A069020800000000006902080069020800EA
S2140800B06902080069020800690208006902080067
S2140800C06902080069020800690208006902080057
S2140800D06902080069020800690208006902080047
S2140800E06902080069020800690208006902080037
S2140800F06902080010B5054C237833B9044B13B1D0
S2140801000448AFF300800123237010BDB009002017
S21408011000000000705F08000C4B43B10C4810B597
S2140801200C49AFF300800C48036823B910BD0A4891
S214080130036833B97047094B002BF7D0BDE8104069
S2140801401847064B002BF5D0184700BF00000000E4
S214080150705F0800B4090020705F08000000000007
S214080160224B1A6822F001021A601A69204A4FF4D4
S21408017040705064106F20F0030010670320506032
S2140801805066A2F500621B48C2F80C01D2F80001BE
S21408019040F40060C2F80001174A5A614FF0005256
S2140801A0C3F808224FF04070C3F800020020C3F8D6
S2140801B02402C3F828224FF08072C3F82022D3F80E
S2140801C03C2242F40002C3F83C2241B11A465B685E
S2140801D043F0020353604FF40062084B5A60034A28
S2140801E0136843F001031360704700BF00400B40DC
S2140801F0000E0E402B1000106501290000E100E0FB
S214080200154BD3F8303213F4000F01D10020704795
S21408021070B50446104DD5F82812C1F38741017011
S2140802200E480F4EB047D5F83012C1F3034161703F
S2140802300C48B047D5F834326360D5F83832A36036
S2140802404FF08073C5F82032D5F83C3243F40003EB
S214080250C5F83C32012070BD00400B40305C0800F9
S2140802609D1108003C5C0800FEE7000008B5114B2D
S214080270114A9A4209D00F4B0F4A03E011681960D9
S214080280043304320D498B42F8D30D4B02E00022AA
S2140802901A6004330B4A9342F9D30B4B23F060439E
S2140802A023F07F03094A9360094B9847094B984700
S2140802B0FEE700BF00000020705F0800B0090020BD
S2140802C0B0090020500E00200000080000ED00E0F5
S2140802D0B11008007D0308004FF48063204A1360BD
S2140802E002F5007213601F4B1B6A13F0807F07D15C
S2140802F01D4A1C4B1A621B4B9B6E13F0010FFAD05B
S2140803001A4A184B1A62174B9B6E13F4803FFAD0A2
S214080310144A136B23F0030343F001031363114BD2
S2140803209B6E13F0080FFAD0114A0E4B9A620D4BCB
S2140803309B6E13F0020FFAD011220A4B1A63094B70
S2140803409B6E13F0080FFAD01222064B1A63054B61
S2140803509B6E13F0080FFAD0064A074B1A607047D0
S214080360000A0E4000060E40090837000908370143
S214080370013F0D2000BD01050000002010B582B029
S214080380154B98474FF416511448154B98470020BC
S214080390052363F30300012262F3071063F30B20BF
S2140803A0432363F3174000210E4B98470AE00022C8
S2140803B092F9043092F905001178527800900A48AC
S2140803C00A4CA04700200A4B98470028EFD1094856
S2140803D0094B9847F6E700BFD902080000BD01059B
S2140803E0A9040800610108005C5C08009D1108006B
S2140803F0010208004C5C080061120800094AD3682C
S214080400DB00002108480360416023F07F43013B7E
S214080410536091602021054B83F82310072313604F
S214080420704700BF10E000E0200E002000ED00E05E
S21408043030B40649D1E900230548D0E90045121929
S2140804406B41C1E9002330BC704700BFD0090020CB
S214080450200E0020D0F80C24B2F5806F0CD2D0F80D
S2140804600434C1540133C3F30903C0F80434013219
S214080470C0F80C2401207047002070470346D0F8C7
S2140804800C0480B1D3F808249A5C0A70D3F80824C0
S2140804900132C2F30902C3F80824D3F80C24013A3F
S2140804A0C3F80C2401207047124A136943F480737A
S2140804B01361114B5A6842F440725A601A6F22F45C
S2140804C040721A67A3F5C0631A6842F050021A60B1
S2140804D05A6842F400625A600009B0FBF1F11962EA
S2140804E04FF0FF32DA60E1229A604FF48072034BD5
S2140804F01A60704700060E40000E0E4000E100E04D
S214080500034B5B6913F4007FFAD0014BD861704740
S21408051000080E4008B501460248034B9847C0B28B
S21408052008BD00BFD80900207D04080008B50C4B9C
S2140805305B6913F0E00F03D04FF4A871084A116006
S21408054013F0010F00D108BD054B9969C9B20548DB
S214080550054B98470028F6D10448054B9847F2E71C
S21408056000080E40D809002055040800945C0800CE
S214080570611208000346084AD2F8102432B1064A27
S214080580D2F810040344C2F8103470470349024AEC
S214080590C2F81014F3E700BFD80900205014002052
S2140805A04FF0FF3070474FF400534B600020704701
S2140805B0012070470020704770B501280BDC0E46F6
S2140805C01546002403E0305D044B98470134AC42DE
S2140805D0F9DB284670BD4FF0FF35FAE7010508003D
S2140805E0F8B501280CDC16460F4600242546B4420A
S2140805F008DA3819044B9847054418B10134F6E769
S2140806004FF0FF352846F8BD1505080081F0004173
S21408061002E000BF83F0004330B54FEA41044FEADA
S214080620430594EA050F08BF90EA020F1FBF54EA75
S214080630000C55EA020C7FEA645C7FEA655C00F011
S214080640E2804FEA5454D4EB5555B8BF6D420CDDE2
S2140806502C4480EA020281EA030382EA000083EA65
S214080660010180EA020281EA0303362D88BF30BD05
S21408067011F0004F4FEA01314FF4801C4CEA11315B
S21408068002D0404261EB410113F0004F4FEA0333BA
S2140806904CEA133302D0524263EB430394EA050F45
S2140806A000F0A780A4F10104D5F1200E0DDB02FAB4
S2140806B00EFC22FA05F2801841F1000103FA0EF248
S2140806C0801843FA05F359410EE0A5F120050EF10E
S2140806D0200E012A03FA0EFC28BF4CF0020C43FA3F
S2140806E005F3C01851EBE37101F0004507D54FF04C
S2140806F0000EDCF1000C7EEB00006EEB0101B1F59C
S214080700801F1BD3B1F5001F0CD349085FEA3000E1
S2140807104FEA3C0C04F101044FEA445212F5800FEC
S21408072080F09A80BCF1004F08BF5FEA500C50F189
S214080730000041EB045141EA050130BD5FEA4C0C6C
S214080740404141EB010111F4801FA4F10104E9D1F5
S21408075091F0000F04BF01460020B1FA81F308BFEC
S2140807602033A3F10B03B3F120020CDA0C3208DDB8
S21408077002F1140CC2F10C0201FA0CF021FA02F193
S2140807800CE002F11402D8BFC2F1200C01FA02F103
S21408079020FA0CFCDCBF41EA0C019040E41AA2BF28
S2140807A001EB0451294330BD6FEA04041F3C1CDAF0
S2140807B00C340EDC04F11404C4F1200220FA04F010
S2140807C001FA02F340EA030021FA04F345EA0301BA
S2140807D030BDC4F10C04C4F1200220FA02F001FA7C
S2140807E004F340EA0300294630BD21FA04F02946FE
S2140807F030BD94F0000F83F4801306BF81F4801197
S2140808000134013D4EE77FEA645C18BF7FEA655C09
S21408081029D094EA050F08BF90EA020F05D054EADB
S214080820000C04BF1946104630BD91EA030F1EBFE0
S2140808300021002030BD5FEA545C05D140004941E4
S21408084028BF41F0004130BD14F580043CBF01F5D7
S214080850801130BD01F0004545F0FE4141F47001BD
S2140808604FF0000030BD7FEA645C1ABF1946104698
S2140808707FEA655C1CBF0B46024650EA013406BF99
S21408088052EA033591EA030F41F4002130BD00BF58
S21408089090F0000F04BF0021704730B54FF4806415
S2140808A004F132044FF000054FF0000150E700BF96
S2140808B090F0000F04BF0021704730B54FF48064F5
S2140808C004F1320410F0004548BF40424FF00001E2
S2140808D03EE700BF42004FEAE2014FEA31014FEA25
S2140808E002701FBF12F07F4393F07F4F81F0605174
S2140808F0704792F0000F14BF93F07F4F704730B5E3
S2140809004FF4607401F0004521F0004120E700BF75
S21408091050EA010208BF704730B54FF000050AE0FC
S21408092050EA010208BF704730B511F0004502D5FD
S214080930404261EB41014FF4806404F132045FEAFF
S214080940915C3FF4DCAE4FF003025FEADC0C18BFA4
S21408095003325FEADC0C18BF033202EBDC02C2F19A
S214080960200300FA03FC20FA02F001FA03FE40EA2C
S2140809700E0021FA02F11444C1E600BF70B54FF02C
S214080980FF0C4CF4E06C1CEA11541DBF1CEA13550E
S21408099094EA0C0F95EA0C0F00F0DEF82C4481EA76
S2140809A0030621EA4C5123EA4C5350EA013518BF96
S2140809B052EA033541F4801143F4801338D0A0FB83
S2140809C002CE4FF00005E1FB02E506F00042E0FB30
S2140809D003E54FF00006E1FB03569CF0000F18BF36
S2140809E04EF0010EA4F1FF04B6F5007F64F54074DE
S2140809F004D25FEA4E0E6D4146EB060642EAC62171
S214080A0041EA55514FEAC52040EA5E504FEACE2EDD
S214080A10B4F1FD0C88BFBCF5E06F1ED8BEF1004FE0
S214080A2008BF5FEA500E50F1000041EB045170BD5C
S214080A3006F0004646EA010140EA020081EA0301A0
S214080A40B4EB5C04C2BFD4EB0C0541EA045170BD9C
S214080A5041F480114FF0000E013C00F3AB8014F116
S214080A60360FDEBF002001F0004170BDC4F100045F
S214080A70203C35DA0C341BDC04F11404C4F12005E0
S214080A8000FA05F320FA04F001FA05F240EA02003B
S214080A9001F0004221F0004110EBD37021FA04F671
S214080AA042EB06015EEA430E08BF20EAD37070BD2B
S214080AB0C4F10C04C4F1200500FA04F320FA05F08A
S214080AC001FA04F240EA020001F0004110EBD3708C
S214080AD041F100015EEA430E08BF20EAD37070BDFC
S214080AE0C4F1200500FA05F24EEA020E20FA04F3D5
S214080AF001FA05F243EA020321FA04F001F0004184
S214080B0021FA04F220EA020000EBD3705EEA430EF4
S214080B1008BF20EAD37070BD94F0000F0FD101F023
S214080B200046400041EB010111F4801F08BF013C5C
S214080B30F7D041EA060195F0000F18BF704703F09A
S214080B400046520043EB030313F4801F08BF013D21
S214080B50F7D043EA0603704794EA0C0F0CEA1355DD
S214080B6018BF95EA0C0F0CD050EA410618BF52EA97
S214080B704306D1D181EA030101F000414FF000009D
S214080B8070BD50EA410606BF1046194652EA4306AB
S214080B9019D094EA0C0F02D150EA013613D195EA1F
S214080BA00C0F05D152EA03361CBF104619460AD167
S214080BB081EA030101F0004141F0FE4141F4700171
S214080BC04FF0000070BD41F0FE4141F4780170BD61
S214080BD070B54FF0FF0C4CF4E06C1CEA11541DBFC6
S214080BE01CEA135594EA0C0F95EA0C0F00F0A7F8C8
S214080BF0A4EB050481EA030E52EA03354FEA0131F5
S214080C0000F088804FEA03334FF0805545EA131307
S214080C1043EA12634FEA022245EA111545EA1065CF
S214080C204FEA00260EF000419D4208BF964244F166
S214080C30FD0404F5407402D25B084FEA3202B61A85
S214080C4065EB03055B084FEA32024FF480104FF459
S214080C50002CB6EB020E75EB030E22BFB61A7546CD
S214080C6040EA0C005B084FEA3202B6EB020E75EB60
S214080C70030E22BFB61A754640EA5C005B084FEAC8
S214080C803202B6EB020E75EB030E22BFB61A754695
S214080C9040EA9C005B084FEA3202B6EB020E75EBA0
S214080CA0030E22BFB61A754640EADC0055EA060E61
S214080CB018D04FEA051545EA16754FEA06164FEAA4
S214080CC0C30343EA52734FEAC2025FEA1C1CC0D150
S214080CD011F4801F0BD141EA00014FF000004FF0DD
S214080CE0004CB6E711F4801F04BF01430020B4F19E
S214080CF0FD0C88BFBCF5E06F3FF6AFAEB5EB030C56
S214080D0004BFB6EB020C5FEA500C50F1000041EB52
S214080D10045170BD0EF0004E4EEA113114EB5C041F
S214080D20C2BFD4EB0C0541EA045170BD41F48011F2
S214080D304FF0000E013C90E645EA060E8DE60CEAFA
S214080D40135594EA0C0F08BF95EA0C0F3FF43BAF17
S214080D5094EA0C0F0AD150EA01347FF434AF95EACE
S214080D600C0F7FF425AF104619462CE795EA0C0FB2
S214080D7006D152EA03353FF4FDAE1046194622E77F
S214080D8050EA410618BF52EA43067FF4C5AE50EA59
S214080D9041047FF40DAF52EA43057FF4EBAE12E749
S214080DA053B94AB9002908BF00281CBF4FF0FF31C5
S214080DB04FF0FF3000F07AB9ADF1080C6DE904CEBB
S214080DC000F006F8DDF804E0DDE9022304B0704719
S214080DD02DE9F0478C460E460446089D002B50D158
S214080DE08A4217466CD9B2FA82FEBEF1000F0BD0C3
S214080DF0CEF1200C01FA0EF620FA0CFC02FA0EF7D9
S214080E004CEA060C00FA0EF43A0CBCFBF2F9BBB23C
S214080E1002FB19CC09FB03FA4FEA144848EA0C46C9
S214080E20B2450AD9F61909F1FF3180F02581B24595
S214080E3040F22281A9F102093E44A6EB0A06B6FB57
S214080E40F2F002FB106600FB03F3A4B244EA064481
S214080E50A34209D9E41900F1FF3280F00B81A342BE
S214080E6040F2088102383C440021E41A40EA09406E
S214080E70002D62D0002324FA0EF42C606B60BDE8C7
S214080E80F0878B4207D9002D55D0002185E8410010
S214080E900846BDE8F087B3FA83F1002940F08F8052
S214080EA0B34202D3824200F2FC80841A66EB030641
S214080EB00120B446002D40D085E81010BDE8F08724
S214080EC012B90127B7FBF2F7B7FA87FEBEF1000F93
S214080ED035D10121F61B4FEA174C1FFA87F8B6FBE7
S214080EE0FCF20CFB126608FB02F0230C43EA0646EB
S214080EF0B04207D9F61902F1FF3302D2B04200F227
S214080F00D2801A46361AB6FBFCF00CFB106608FBB5
S214080F1000F8A3B243EA0644A04507D9E41900F14D
S214080F20FF3302D2A04500F2B9801846A4EB0804A5
S214080F3040EA02409CE729462846BDE8F08707FABB
S214080F400EF7CEF1200326FA03F24FEA174CB2FB4F
S214080F50FCF11FFA87F80CFB112206FA0EF620FAA7
S214080F6003F301FB08F933431E0C46EA0246B14573
S214080F7000FA0EF409D9F61901F1FF3280F08C80D8
S214080F80B14540F2898002393E44A6EB0906B6FB15
S214080F90FCF00CFB106200FB08F99EB246EA02461B
S214080FA0B14507D9F61900F1FF3371D2B1456FD9AB
S214080FB002383E44A6EB090640EA01418FE7C1F134
S214080FC0200722FA07F88B4048EA030326FA07F4B4
S214080FD04FEA134EB4FBFEF91FFA83FC0EFB1944C6
S214080FE08E4020FA07F809FB0CFA48EA06084FEA8A
S214080FF0184646EA0444A24502FA01F200FA01F647
S21408100008D9E41809F1FF3044D2A24542D9A9F11B
S21408101002091C44A4EB0A04B4FBFEF00EFB1044C1
S21408102000FB0CFC1FFA88F848EA0444A44507D9D4
S214081030E41800F1FF3E29D2A44527D902381C44FB
S21408104040EA0940A0FB0289A4EB0C0CCC45C2463A
S214081050CE4615D312D055B1B6EB0A036CEB0E0686
S21408106006FA07F7CB401F43CE402F606E6000217C
S214081070BDE8F0871046F7E68946DEE64645EAD23A
S214081080B8EB020A69EB030E0138E4E77046D7E7C7
S21408109018468FE78146BDE7114676E702383C4496
S2140810A044E7084606E7023A3E442BE7704700BF87
S2140810B070B50F4E0F4D761BB61018BF002405D01E
S2140810C0013455F8043B9847A642F9D10A4E0B4D11
S2140810D004F036FF761BB61018BF002406D001347D
S2140810E055F8043B9847A642F9D170BD70BD00BFBD
S2140810F04C5F08004C5F0800585F08004C5F08000B
S21408110070B4860746D0541E002A41D0CAB2034699
S21408111002E014F1FF343BD303F8012B9D07F8D106
S214081120032C2ED9CDB245EA05250F2C45EA0545F0
S21408113019D9264603F11002103E0F2E42F8105C0D
S21408114042F80C5C42F8085C42F8045C02F11002B3
S214081150F2D8A4F1100222F00F0204F00F041032A5
S214081160032C13440DD91E462246043A032A46F891
S214081170045BFAD8221F22F003020432134404F058
S21408118003042CB1C9B21C4403F8011B9C42FBD1D2
S21408119070BC704714460346C2E700BF0FB410B5CC
S2140811A0074B82B004AC54F8042B186823468168B1
S2140811B0019400F08BF802B0BDE8104004B0704708
S2140811C004000020F0B5054689B008460C460127FD
S2140811D000F04EF80226C31920490393AB6B04AA05
S2140811E004940590AC68079702960691019253B34B
S2140811F0636E13F0010FB4F90C309AB201D1900562
S21408120025D5910406D4626E43F4005322F40052A6
S214081210A3816266284601AA214602F03BFE636E59
S21408122000280CBF0A254FF0FF35DA0702D4A38939
S2140812309B0502D5284609B0F0BDA06D02F0E0FF78
S214081240284609B0F0BD284602F098FCD0E7A06D05
S21408125002F0D4FFB4F90C309AB2D2E7B45C0800B6
S214081260024B01461868FFF7ADBF00BF0400002018
S21408127020F0030110F00300C0F1000051F8043B11
S21408128000F1040C4FEACC0C6FF000021CBF22FAE7
S2140812900CF213434FF0010C4CEA0C2C4CEA0C4CA5
S2140812A0A3EB0C0222EA030212EACC1204BF51F89E
S2140812B0043B0430F4D0C2F1000102EA0102B2FA9B
S2140812C082F2C2F11F0200EBD20070472DE9F04F00
S2140812D0C1B01D468A4691460446089002F07CFF37
S2140812E003680E9518461593FFF7C2FF14901CB1B5
S2140812F0A36B002B00F06682DAF86430BAF90C208B
S21408130013F0010F93B202D1990540F17C829F0435
S2140813100AD4DAF8641042F4005321F40051AAF80B
S2140813200C30CAF864109BB21E0740F12A82DAF81D
S2140813301020002A00F0258203F01A020A2A00F07C
S214081340458200230DF1C008139311931293189346
S21408135019930B931693179325932493CDF88C80A3
S214081360CDF828A099F800304C46EBB1252B02D1D1
S2140813701AE0252B03D014F8013F002BF9D1A4EB73
S21408138009058DB1249B259A01332A44072BC8F8F2
S2140813900090C8F804502592249300F3088208F1B8
S2140813A008080B9B2B440B932378002B00F00E8425
S2140813B000231A468DF86F3019460C939B464FF05B
S2140813C0FF33667804F10109099309F10109A6F1CA
S2140813D02003582B00F2D183DFE813F06102CF0315
S2140813E0CF036902CF03CF03CF03CF03CF03CF03C7
S2140813F01D023103CF032A021103CF032C036E020A
S2140814006E026E026E026E026E026E026E026E024F
S214081410CF03CF03CF03CF03CF03CF03CF03CF032F
S214081420CF03CF037E02C502CF03C502CF03CF0387
S214081430CF03CF030C03CF03CF036F00CF03CF0335
S214081440CF03CF03CF035900CF03CF034703CF0300
S214081450CF03CF03CF03CF03CF03CF03CF03CF03EF
S214081460CF034D036103C502C502C50267036103C6
S214081470CF03CF036C03CF037903710036035C02F6
S214081480CF038E03CF035B00CF03CF0334024BF0AA
S214081490100B1BF0200F40F065830E9A1BF0100F00
S2140814A0134640F0EC851BF0400F00F0E8851488E2
S2140814B00432002501230E9214E04BF0100B1BF0AB
S2140814C0200340F03A831BF0100240F0DF851BF043
S2140814D0400300F0DB850E9913460A4600250432C1
S2140814E00C880E92002292468DF86F2009994A1CA5
S2140814F000F019822BF08002069254EA050240F0AA
S2140815001882002940F07F84002B40F07F851BF06E
S21408151001030D9300F0BA86302340AF07F8413D2B
S214081520099B0D9A9342B8BF13460793002310935E
S214081530BAF1000F02D0079B01330793069B13F0FE
S21408154002030F9302D0079B02330793069B13F000
S214081550840540F039830C9B079AA3EB020BBBF17A
S214081560000F40F33183BBF1100F40F3AF874346BB
S2140815701024A8462599249ADDF820A00A9D06E09E
S214081580ABF1100BBBF1100F03F1080318DD0132A5
S214081590AA481031072A2591249283E81100EFDD26
S2140815A023AA2946504603F0BBFF002840F087834D
S2140815B0ABF1100BBBF1100F30AB2599249AE6DC83
S2140815C04546984601329D4B0BEB0104072A2594A5
S2140815D0249288E8080800F3EB829DF86FA008F1CB
S2140815E00808BAF1000F10D00121249B0C440B44C4
S2140815F00DF16F02072B25942493C8F80410C8F839
S214081600002000F3548408F108080F9B7BB10221E0
S214081610249B0C4401331CAA072B25942493C8F852
S2140816200410C8F8002000F34E8408F10808802D3E
S21408163000F04783099B0D9AA3EB020ABAF1000F44
S2140816403CDDBAF1100F40F3F0867D4D4246214648
S214081650B0464FF0100B2E46249B089C0A9D06E0C9
S214081660AAF1100ABAF1100F02F1080217DD0133C9
S2140816701031072B2591249382E84008F0DD23AA31
S2140816802946204603F04CFF002840F01883AAF1AC
S214081690100ABAF1100F30AA2599249BE7DC3546C4
S2140816A00C464646904601335444072B259424930B
S2140816B088E8200400F3B38308F10808069BDB05D6
S2140816C000F19D82249B0D9901330C44072B259429
S2140816D0C8F80070C8F80410249300F3DD8308F1F6
S2140816E00808069B59073CD50C9B079A9D1A002D9F
S2140816F037DD102D40F35B871026249B089FDDF806
S21408170028A004E0103D102D08F1080817DD013365
S2140817104A4A1034072B2594249388E84400F1DDC0
S21408172023AA5146384603F0FBFE002840F05682AE
S214081730103D102D0DF1C008259C249BE7DC0133D5
S2140817403E4A2C44072B2594249388E8240008DD79
S21408175023AA0A99089803F0E3FE002840F050836D
S214081760259C0B9B0C9A07998A42ACBF9B185B1862
S2140817700B93002C40F03C8300230DF1C008249303
S214081780F0E55146089801F0D9F8002838D0DAF87C
S2140817906430DD0704D4BAF80C309C0540F11E8688
S2140817A04FF0FF330B930B9841B0BDE8F08F23AA98
S2140817B00A99089803F0B4FE002840F021830DF13A
S2140817C0C008EEE5089802F0D9F995E5BAF90E20B2
S2140817D0002AFFF6B6ADDAF86420D00705D49905D6
S2140817E003D4DAF8580002F00BFD2B464A46514659
S2140817F0089801F05FF80B900B9841B0BDE8F08FA1
S214081800BAF80C3098E5DAF8580002F0F7FCBAF99E
S2140818100C2093B27BE50E9C236818460C9323464F
S214081820002803F104030E9304DA0C9B5B420C9326
S2140818304BF0040B99F80060C7E500BFFC5C080095
S2140818400C5D0800002A41F01A80C14B18931BF063
S214081850200F40F0DD840E9A1BF0100F134640F060
S2140818601D841BF0400F00F01984002504331488EB
S2140818700E931BF0010F00F05F8354EA050300F097
S2140818805B8330238DF871608DF870304BF0020B57
S214081890022327E64BF0200B99F8006095E599F8A7
S2140818A0006000297FF491AD012220218DE54BF0E0
S2140818B0010B99F8006088E500231846A6F1300366
S2140818C019F8016B00EB800003EB4000A6F130032B
S2140818D0092BF5D90C907AE5002A40F0D8874BF00A
S2140818E0100B1BF0200F40F0C2840E9A1BF0100F4E
S2140818F0134640F0D9831BF0400F00F0D583B2F9A9
S21408190000400433E5170E9322462B46002A73F14F
S2140819100003C0F2CB8409999DF86FA04A1C4FF0CB
S21408192001037FF4E7AD54EA050200F06E82CDF8B5
S21408193018B0012B00F04C83022B40F0D482189884
S21408194030AF230943EA0573290904F00F020D4650
S2140819501C46835C07F8013D54EA0503F1D130AB19
S214081960DB1B0D93DCE5002A40F08D870E9C1BF0F0
S214081970080F04F1070400F0268524F0070303F196
S21408198008020E921A685B6813921293129B139DB4
S21408199023F00044284621464FF0FF326D4B04F0F2
S2140819A0F1F8002840F08C84284621464FF0FF3294
S2140819B0684B04F0C9F8002840F08284169A1398F9
S2140819C0179B129904F0B6F8002840F025859DF874
S2140819D06FA003231A46079300235F4F19460993FF
S2140819E05E4B2BF0800006900D921091472ED8BFC4
S2140819F01F469DE54BF0080B99F80060E5E499F85A
S214081A00006009F101002A2E00F02587A6F13003B0
S214081A10092B814698BF002000F29F8619F8016BB3
S214081A2000EB800003EB4000A6F13003092BF5D944
S214081A300990CCE44BF0800B99F80060C5E499F85F
S214081A40006001222B21C0E4302378260E998DF8F9
S214081A5070300B1D0E933E4B0C6818934BF0020B20
S214081A608DF87160002502233CE5002A40F01787B0
S214081A703B4B1893EBE60122002311460E9807927B
S214081A8002689A468DF86F3009931093031DCDF8B7
S214081A9018B00D918DF898200E9326AF4EE5002AC3
S214081AA03FF41FAF8DF86F101BE74BF0400B99F80B
S214081AB000608AE499F800606C2E03BF99F801600C
S214081AC04BF0200B09F101094BF0100B7DE4002ABE
S214081AD040F0CE861BF0200F40F0C8841BF0100F95
S214081AE05ED11BF0400F5BD00E9A136804320E923C
S214081AF0BDF82C201A8035E400250E9A8DF86F5014
S214081B001768141D002F00F05585099A531C00F01D
S214081B10D2842946384602F08FFE002800F0C98590
S214081B20C31B09950D930E94CDF818B023EAE373FA
S214081B30079310959DF86FA0FAE40E9C073424F0DE
S214081B40070303F10802D3E900450E920023C9E40F
S214081B50DC5C0800FFFFEF7FBC5C0800B85C080090
S214081B60C85C08000E9C073424F0070303F108023B
S214081B70D3E900450E920123B4E4002A40F08B8690
S214081B8026B3002301229A4607928DF89860CDF86E
S214081B9018B08DF86F30099310930D9226AFCDE4E8
S214081BA00E9A136804320E920B9A1A60FFF7DABB85
S214081BB023AA0A99089803F0B3FC002840F020816D
S214081BC09DF86FA00DF1C008259C0AE5259BDDF859
S214081BD028A0002B40F0B78500232493DAF8643059
S214081BE013F0010FBAF80C3002D19A0540F16F8253
S214081BF05B063FF5D5AD0B9841B0BDE8F08F652E76
S214081C0040F3A480169A1398179B129903F088FF3E
S214081C10002800F094810121249BB44A0B440C440C
S214081C20072B25942493C8F80410C8F8002000F35E
S214081C30008408F108081D9B119A259C934203DB33
S214081C40069BDF077FF54DAD249B14990133159A43
S214081C500C44072BC8F80020C8F8041025942493D1
S214081C6000F3148408F10808119B5E1E002E7FF707
S214081C7038AD102E40F3F7811027249B9C4DDDF8D5
S214081C8020A0DDF828B005E008F10808103E102E60
S214081C9040F3EB8101331034072B2594249388E80E
S214081CA0A000F1DD23AA5946504603F039FC002867
S214081CB040F0E9830DF1C008259C249BE6E7AA4678
S214081CC08CE70C9B079AA3EB020ABAF1000F7FF782
S214081CD0B1ACBAF1100F40F3A784854D42462146B1
S214081CE0B0464FF0100B2E46249B089C0A9D06E033
S214081CF0AAF1100ABAF1100F02F1080216DD013334
S214081D001031072B2591249382E84008F0DD23AA9A
S214081D102946204603F004FC0028D0D1AAF1100A70
S214081D20BAF1100F30AA2599249BE8DC35460C46F4
S214081D304646904601335444072B2594249388E856
S214081D40200400F3A68208F1080873E4119B012B0F
S214081D5040F333820123249E1C441E44072E2594F8
S214081D60C8F800702496C8F8043000F3448208F1D6
S214081D700808149A0136159B1444072E25942496B1
S214081D80C8F80030C8F8042000F34D8208F10808A7
S214081D90179B169A1398129903F0C2FE119B0028F7
S214081DA040F03981013B013601371C44072EC8F83C
S214081DB0007024962594C8F8043000F34B8208F186
S214081DC00808199A013614441FAB072E2594249642
S214081DD0C8F80420C8F800307FF781AC23AA0A990F
S214081DE0089803F09DFB58B90DF1C008259C78E4C7
S214081DF023AA0A99089803F093FB00283FF4BCAC82
S214081E00DDF828A0EAE6DDF818B0012B00F05581C9
S214081E10022B64D1CDF818B0002400258FE523AA3C
S214081E200A99089803F07CFB0028E9D10DF1C00850
S214081E30259C43E423AA0A99089803F071FB002816
S214081E40DED11D99259C0DF1C00829B9119B1BB937
S214081E50069BDE077FF545AC1498249B02460133A3
S214081E602244159C072B2592C8F80040C8F80400A1
S214081E70249300F3598408F108080029C0F2258441
S214081E80119901338C18072B25942493C8F80070F1
S214081E90C8F804107FF723AC23AA0A99089803F019
S214081EA03FFB0028ACD1259C0DF1C00819E423AAF5
S214081EB00A99089803F034FB0028A1D10DF1C00850
S214081EC0259CFFF7A2BB23AA0A99089803F028FBCB
S214081ED0002895D10DF1C008259CFFF7A8BB002463
S214081EE00025CDF818B030A905E000BFF85C08005A
S214081EF00C5D08003946E20842EA4572E80804F034
S214081F00070305461446303354EA050201F8013C37
S214081F1001F1FF37EED1069AD2077FF520AD302BB8
S214081F203FF41DAD3023023907F8013C30AB5B1A8D
S214081F300D930F46FFF7F4BA0223FFF7D3BA1D999D
S214081F40002940F38282109B119A9342A8BF134639
S214081F50002B1E460DDD249B34440133072B2594A5
S214081F60C8F80070C8F80460249300F3148308F1D6
S214081F700808109B002EA8BF9B1B002B1E4640F38C
S214081F80C280102B40F35A8422464FF0100A249B36
S214081F90BD4DDDF820B00A9C05E008F10808103EA3
S214081FA0102E40F39B8001331032072B2592249382
S214081FB088E82004F1DD23AA2146584603F0B0FA43
S214081FC0002840F015830DF1C008259A249BE6E703
S214081FD0002D08BF0A2C6ED330AF204629460A22A9
S214081FE00023FEF7DDFE303207F8012D204629468D
S214081FF000230A22FEF7D4FE04460D4654EA0503DB
S214082000EBD130ABDB1B0D93FFF78ABA099B30AFD9
S2140820100D93FFF785BA5F1E002F7FF7D2AE102FFD
S21408202040F30E814FF0100A974DDDF820B005E01A
S21408203008F10808103F102F40F3038101361034CA
S214082040072E2594249688E82004F1DD23AA0A9909
S214082050584603F065FA00287FF4D2AE0DF1C008A2
S214082060259C249EE6E7249B874D01333444072BA2
S2140820702594249388E860007FF731AB0CE7043298
S2140820801C68002501230E92FFF72CBA0E9900252E
S2140820900A4604320C680E92FFF724BA1C6804330A
S2140820A00E930025FFF7E5BB1C680433E5170E936F
S2140820B022462B462AE4DDF818B0012340AF303418
S2140820C0CDF818B007F8414D0D93FFF729BADAF89E
S2140820D0580002F095F8BAF80C3089E51446013332
S2140820E03444072B2594249388E8600040F38481C1
S2140820F023AA0A99089803F013FA00287FF480AEFA
S214082100259C0DF1C0081D9B119A934280F26F81A1
S214082110249A1498013215990444072A2594C8F875
S2140821200010C8F80400249200F3698108F1080832
S214082130119A1099D31A561A9E42A8BF1E46002E08
S2140821400EDD249A0F4401323444072AC8F800707A
S2140821502594C8F80460249200F33B8208F1080826
S214082160002EB4BF1E469E1B002E7FF7BAAA102E5E
S2140821707FF779AF1027249B434DDDF820A0DDF8C4
S21408218028B005E008F10808103E102E7FF76DAF5E
S21408219001331034072B2594249388E8A000F1DD3A
S2140821A023AA5946504603F0BBF9002840F06B8135
S2140821B00DF1C008259C249BE6E7069BD8073FF54B
S2140821C0C9AD0123249E1C441E44072E2594C8F836
S2140821D000702496C8F804307FF7F1AD23AA0A9950
S2140821E0089803F09DF900287FF40AAE0DF1C008A0
S2140821F0259C249EE5E523AA0A99089803F090F9F9
S21408220000287FF4FDAD0DF1C008259C249EB0E59E
S2140822100E9C073424F0070303F108020E92D3E954
S2140822200045FFF726BB23AA0A99089803F078F911
S21408223000287FF4E5AD0DF1C008259C249EA7E58F
S214082240114D01363C44072E2594249688E8A000B4
S2140822507FF7B5AD23AA0A99089803F061F9002814
S2140822607FF4CEAD259C249E0DF1C008A9E50E9CF2
S214082270073424F0070404F10801D4E900230E917A
S21408228014461D46FFF742BB0C5D080030AFFFF74B
S21408229047B923AA0A99089803F042F900287FF458
S2140822A0AFAD0DF1C008259CFFF7C4B94FF02D0A55
S2140822B0644265EB45058DF86FA00123FFF716B954
S2140822C0139C22462046129C2346214603F05AFCBD
S2140822D0002840F07D82099B013326F020030D93E9
S2140822E000F0A080472B04D1099B002B08BF0123D0
S2140822F009934BF480730693129BB3F1000A139B61
S2140823000793B7BF5346002303F1004A2D23662ED2
S2140823100F9300F07081462E00F0978102200D9BE7
S21408232021A9452B0ABF099B099D5D1C8DE8210044
S21408233004911EA81DA90390079A5346029108986F
S21408234000F006FC672E074640F0A3811BF0010F3D
S21408235000F032827C19169A0798179B514603F0AC
S214082360DFFB002840F01581219BA34206D23021CE
S2140823705A1C21921970219B9C42F9D8DB1B119399
S2140823800D9B472B00F0A680652E40F38F811D9B82
S214082390662E109300F06F81119B109A1946914291
S2140823A000F346811BF0010F40F0E381672622EA1E
S2140823B0E27307930D920F9B002B74D109939DF837
S2140823C06FA0FFF7B5B824F0070423681393636873
S2140823D0129304F108030E93FFF7D8BADAF85800F8
S2140823E001F00EFF4FF0FF330B93FFF7DCB9069AA8
S2140823F0D5077FF59DAE8BE608F1080883E623AA85
S2140824000A99089803F08CF800287FF4F9AC0DF1C7
S214082410C0081D9B259C8BE62D239A468DF86F30A9
S214082420FFF7D7BA0623099363E7249BAC4DFFF75B
S2140824303AB923AA0A99089803F072F800287FF494
S214082440DFAC0DF1C008FFF7F6BB0120249BA54AB8
S21408245003440444072B25942493C8F80400C8F8BA
S21408246000203FF7E7AC08F10808EEE40E9A13469A
S21408247004330E930B9B1168DD171A462B46C1E9E9
S2140824800023FEF76FBFDA46FFF7A8BB23AA0A9910
S214082490089803F045F800287FF4B2AC0DF1C008A0
S2140824A0259CFFF7E1BB4FF02D0A00238DF86FA09F
S2140824B00993FFF740B838460995FEF7D9FE0E94FB
S2140824C00D90CDF818B00346FFF730BB2599249A2F
S2140824D0FFF778B81D9B1A461093033304DB099B55
S2140824E019469142BFF658AF023E109B8DF87C60A5
S2140824F0013B002BB4BF2D222B221D93B8BF109B87
S2140825008DF87D20B8BFC3F10103092B40F329815C
S2140825100DF18B000146744C00E0114684FB035213
S214082520DD17C5EBA20505EB8502A3EB42023032A8
S214082530092D01F8012C2B4601F1FF32EDDC303372
S2140825400239DCB2884202F8014C40F295810DF15E
S2140825507E01134601E013F8014B834201F8014B54
S214082560F9D101339B1A0DF17E0213441FAA9B1A58
S214082570119A1993012A13440D9340F355810D9B24
S214082580149A13440D9323EAE373079300231093D6
S21408259011E72346F2E623AA0A99089802F0C0FF34
S2140825A000287FF42DAC0DF1C008259CE1E4249B9F
S2140825B0FFF7C5B8099BBA46062B28BF0623099716
S2140825C0109707930E94CDF818B00D93474FFEF763
S2140825D0AFBF23AA0A99089802F0A2FF00287FF442
S2140825E00FAC1D9B119A0DF1C008259CD31AB7E5B0
S2140825F0A246FFF7F3BA0320099C21A98DE811002B
S21408260004911EA81DA90390079A5346029108989C
S21408261000F09EFA0746254604193B78302B00F052
S214082620ED801D9D2C4496E6249B2D4DFFF782BB1E
S214082630149A119B1344109A0D93002A40F3EC80C9
S21408264023EAE37307936726B5E60320099C21A9C6
S2140826508DE8110004911EA81DA90390079A5346F9
S2140826600291089800F074FA25460746462E07EBAE
S2140826700504D2D06FE6002B40F3E380099A002ABF
S21408268040F09C801BF0010F40F0988007930D9354
S21408269091E6472E7FF45EAE1BF0010FE6D1219B34
S2140826A0DB1B11930D9B472B3FF414AF1D9B109318
S2140826B01BE7099B0E9407930D930990CDF818B065
S2140826C010909DF86FA0FEF733BF4E42103159DACE
S2140826D01024034DDDF820A0DDF828B00DE000BF7B
S2140826E00C5D0800F85C080067666666F05C080023
S2140826F008F10808103E102E45DD01331032072B6E
S21408270025922493C8F80050C8F80440F0DD23AAA0
S2140827105946504602F004FF00287FF4B4AE0DF187
S214082720C008259A249BE5E723AA0A99089802F088
S214082730F7FE00287FF464AB0DF1C0081D99259AB2
S214082740249BFFF79ABB089823AA514602F0E8FE96
S21408275000283FF441AAFFF741BA00230993FEF781
S21408276036BE302213448DF87F308DF87E2020AB9D
S214082770FCE6109B149A672613440D9323EAE3732A
S214082780079318E6484D01333244072B88E8600063
S2140827902592249308F108087FF772AB23AA0A99B2
S2140827A0089802F0BDFE00287FF42AAB0DF1C00899
S2140827B0259A249BFFF764BB219BDFE5109B149AA0
S2140827C01344099A1A4422EAE2730D920793F2E533
S2140827D0129B364F002BBEBF2D239A468DF86F30BE
S2140827E04FF003031A4607934FF00003A8BF9DF85F
S2140827F06FA0194609932E4BFFF7F3B8169A079859
S214082800179B514603F08CF900287FF40AAFC5F1F0
S21408281001051D952C449EE5109B0D9AC3F10103F6
S2140828201A4413460D920BE71BF0010310937FF42E
S214082830A6AE0D9B23EAE3730793BCE5249B1A4DCB
S2140828404DE4099B13B91BF0010F02D0149B01330A
S214082850B7E701231AE70E9C99F8016023688146BA
S21408286043EAE3730993234604330E93FEF7ADBD9C
S2140828708DF86F10FFF72EB90DF17E0376E68DF80A
S2140828806F10FEF7E2BF8DF86F10FFF76FB88DF880
S2140828906F10FFF724B88DF86F10FFF771B98DF831
S2140828A06F10FFF7E5B800BF0C5D0800C45C0800B1
S2140828B0C05C08002DE9F0410C464FF0000E4FF4BE
S2140828C08065064617469846626EE3898989ADF59F
S2140828D08D6D21F002011992ADF80E30E269636A37
S2140828E0ADF80C1016A81AA9CDF818E007920993A7
S2140828F0009104910295059501F07CFC43463A4602
S21408290069463046FEF7E2FC051E07DB3046694698
S21408291001F0DCF8002818BF4FF0FF35BDF80C3082
S2140829205B0603D5A38943F04003A381169801F0FC
S21408293063FC28460DF58D6DBDE8F08138B5304B43
S214082940054618680C4610B1836B002B38D0B4F9CE
S2140829500C2093B218070CD52069A8B113F0010211
S2140829601ED000226369A2605B42A361F0B100201A
S21408297038BDD9063BD5580725D4206942F0080348
S214082980A3819BB20028E9D103F42072B2F5007F38
S214082990E4D02846214601F063FCA3892069DDE7D8
S2140829A0990758BF6269A2600028E0D1B4F90C30D4
S2140829B01A06DDD543F04003A3814FF0FF3038BD3B
S2140829C001F0DCF8C3E7216B51B104F140039942EA
S2140829D004D0284601F078F9B4F90C2000232363C4
S2140829E00023206922F0240284E80900C6E70923A8
S2140829F042F040022B604FF0FF30A28138BD00BF86
S214082A0004000020024B13B1024800F005B87047D6
S214082A1000000000F53B0800002301461A46184649
S214082A2002F09EBD2DE9F04F03690F6983B09F42FF
S214082A3000F38880013F01F1140600F1140A56F8E5
S214082A4027305AF827200133B2FBF3F8BB0000936F
S214082A5006EB030953440193B8F1000F3BD000235B
S214082A60B4461C46D6465CF8042BDEF800501FFA1F
S214082A7082FB08FB0B33120C4FEA134B08FB02BB16
S214082A809AB2A21AABB21FFA8BF41A44C4EB1544D6
S214082A9004EB224492B242EA0442E1454EF8042B83
S214082AA04FEA24444FEA1B43DDD2009B5AF8033012
S214082AB08BB9019C231F9A450CD254F8043C4BB999
S214082AC0A4F1080302E01A68043B1AB99A4507F10C
S214082AD0FF37F8D30761044602F0D8F900282DDB43
S214082AE05546002308F1010856F8041B28688AB2E0
S214082AF09A1A0B0C81B20A44C3EB104303EB224329
S214082B0092B242EA0342B14545F8042B4FEA234302
S214082B10EAD25AF827200AEB87037AB91A1F924591
S214082B200BD253F8042C42B9083B02E01A68043B5F
S214082B301AB99A4507F1FF37F8D32761404603B01C
S214082B40BDE8F08F002003B0BDE8F08F000000005D
S214082B502DE9F04F056C9BB0044692469B46279E8F
S214082B604DB10123426C29469340AB606A6001F080
S214082B70B5FF00232364BBF1000F5D4635DB002359
S214082B8033609D4BAB4315D0002200235046594670
S214082B9002F0C6FF804600282DD00123269A13602F
S214082BA0289B002B00F0BD809448186001381BB0A5
S214082BB0BDE8F08F42F20F73269A1360BAF1000F41
S214082BC00DD1C5F3130555B9289B8D48002BEED0BB
S214082BD000F10803289A13601BB0BDE8F08F289B05
S214082BE08848002BE3D0C31CF4E701232BF00045EC
S214082BF03360AB46C5E718AA19AB01920093524654
S214082C005B46204602F0ECF92B0D814671D0504603
S214082C10CBF3130242F07F51189FA3F2FF36CDF88C
S214082C20508041F440110022774BFDF7F3FC6CA36B
S214082C30D3E90023FDF7A2FE6BA3D3E90023FDF733
S214082C40EBFCCDE902013046FDF732FE68A3D3E976
S214082C500023FDF793FE02460B46DDE90201FDF769
S214082C60DBFCCDE9040102F0A3FF0022029000235A
S214082C70DDE9040102F05EFF002840F06D81029D48
S214082C80162D00F257816149524601EBC5015B4695
S214082C90D1E9000102F06CFF002800F0BE816B1E2F
S214082CA0029300230E93BF1B7B1E089300F14E81F0
S214082CB000230A93029B002BC0F23F81089A0D93CB
S214082CC011461944002308910C93249B092B2AD8F3
S214082CD0052B40F358860025043B2493249B023B8F
S214082CE0032B00F23F86DFE813F0CE03C302D903B6
S214082CF05B04189F199E3E4406F23243202B40F38D
S214082D008781C3F1400306F212409D402AFA00F07C
S214082D102843FDF7BDFD0123013E1493A1F1F87188
S214082D2081E73B4843E7002120466164259101F08E
S214082D30AFFE4FF0FF3307930F930123259A0490B5
S214082D40206424920B93199B002BC0F2D380029A1E
S214082D500E2A00F3CF802D4B03EBC203D3E90023E2
S214082D60CDE90823259B002BC0F2B483DDE908567D
S214082D7050462A4633465946FDF72AFF02F018FF02
S214082D808046FDF795FD2A463346FDF7F7FD0246D1
S214082D900B4650465946FDF73DFC079E049F08F132
S214082DA03005012E3D7002460B4607F1010564D03A
S214082DB00022184BFDF7E2FD0022002306460F46C8
S214082DC002F0AEFE002840F08280CDF828904FF042
S214082DD0000ADDE908894FF0000B0B9429E000BFD4
S214082DE061436F63A787D23FB3C8608B288AC63F04
S214082DF0FB799F501344D33F0000F07FF95C08002E
S214082E001C5D0800285D08000000F83F585D0800B3
S214082E10F85C0800000024400022814BFDF7AEFD58
S214082E2052465B4606460F4602F07AFE002840F0F9
S214082E30BA8342464B4630463946FDF7C9FE02F08D
S214082E40B7FE0446FDF734FD42464B46FDF796FDB1
S214082E5002460B4630463946FDF7DCFB04F13006E1
S214082E6005F8016B049E079FAE1BBE4202460B4642
S214082E70D2D1A046DDF828900B9C10461946FDF7DF
S214082E80CBFB06460F4602460B46DDE9080102F074
S214082E9051FE48B9DDE9080132463B4602F040FEDD
S214082EA0A8B118F0010F12D015F8018C6B1E049A01
S214082EB004E09A4200F0028413F8018DB8F1390F45
S214082EC003F10105F5D008F1010883F800804946AA
S214082ED0204601F003FE0022029B2A70269A013340
S214082EE01360289B002B00F09F8304981D601BB07E
S214082EF0BDE8F08F0B9A002A3ED0249A012A40F3A8
S214082F001183079B0C9A5F1EBA42C0F29083D71BA8
S214082F10079B002BC0F28C840A9D079B0A9A012106
S214082F201A440A92089A20461A44089201F072FE39
S214082F30064623E001230E93B5E600230A9A0D936E
S214082F40029BD21A5B420A920C93BEE6C7F10103B3
S214082F500A9300230893ADE6029D2846FDF7A8FCD1
S214082F6002460B46DDE9040102F0DAFD00287FF48C
S214082F7086AE6B1E029382E60AADE0CD002D0CDD10
S214082F80089900290B4608DDA942A8BF2B460A9ACD
S214082F90ED1AD21ACB1A0A9208930C9BD3B10B9B44
S214082FA0002B00F0B882002F10DD31463A46204646
S214082FB001F0CCFE4A4601460646204601F034FE9D
S214082FC0034649462046994601F088FD0C9BDA1BC5
S214082FD040F0A2820121204601F01CFE0D9B80468F
S214082FE0002B1FDD01461A46204601F0AFFE249B43
S214082FF08046012B40F3558200230C93D8F81030F6
S21408300008EB8303186901F0B5FDC0F1200013E052
S214083010C3F120050AFA05F07BE60E9043E600BFEA
S21408302000002440249B012B40F3858200230C9348
S2140830300D9B0120002BE1D1089A104410F01F00C8
S21408304000F0A180C0F12003042B40F386840A9B7D
S214083050C0F11C0003440A9313460344054408932E
S2140830600A9B002B05DD49461A46204601F0BEFE9F
S2140830708146089B002B05DD41461A46204601F08E
S214083080B5FE80460E9B002B40F08680079B002BE3
S21408309040F364820B9B002B00F09880002D05DD22
S2140830A031462A46204601F0A1FE06460C9B002B18
S2140830B040F036830896079B049A013BD3180B9377
S2140830C017460AF00103C246DDF820B00C935146B5
S2140830D04846FFF7A7FC31460546484601F0D6FEA7
S2140830E05A4607905146204601F0ECFEC2688046D4
S2140830F005F13003002A40F02982014648460A9323
S21408310001F0C4FE41460890204601F0E7FC089A04
S2140831100A9B32B9249921B90C9A002A00F0EE834A
S214083120249A07990029C0F29F8205D1249919B9D3
S2140831300C99002900F09882002A00F305830B9A60
S21408314007F1010897423B70454600F00B83494655
S21408315000230A22204601F0CBFC5E458146314614
S2140831604FF000034FF00A02204600F0E98101F014
S214083170BFFC5946064600230A22204601F0B8FC42
S21408318047468346A3E71C200A9B054403440A9344
S214083190089B0344089363E74146484601F076FED9
S2140831A00028BFF673AF029F494600230A2220462E
S2140831B0013F029701F09CFC0B9B8146002B40F0D8
S2140831C0B5830F9B002B40F3BE830793DDF810A052
S2140831D0079F554606E0494600230A22204601F086
S2140831E087FC814641464846FFF71CFC303005F808
S2140831F0010BA5EB0A03BB42EDDB049B079A82464C
S214083200012AACBF9B1801334FF0000B1D464946F8
S2140832100122204601F0EAFD4146814601F036FECD
S214083220002840F33F8215F8012C6B1E049904E031
S2140832308B4200F0AE8113F8012D392A03F10105FF
S214083240F6D001321A704146204601F047FC002E9F
S2140832503FF43DAEBBF1000F05D0B34503D0594649
S214083260204601F03BFC3146204601F037FC2EE6AE
S21408327000230B93029B259A13440F930133012BCB
S2140832801F461E46B8BF012707930021172F616403
S2140832900AD9012204235B0003F114008742114671
S2140832A002F10102F7D26164204601F0F1FB0E2E0E
S2140832B0049020643FF647AD002D3FF444AD0299D4
S2140832C0CDE910AB002940F30382B94B01F00F0299
S2140832D00D1103EBC203E906D3E9006740F1AF819D
S2140832E0B44B5046D3E908235946FDF771FC4FF016
S2140832F0030ACDE9120105F00F058DB1DFF8B48297
S214083300EA0709D5D8E9002330463946FDF736FBE3
S21408331006460F460AF1010A6D1008F10808EFD1B3
S2140833203B46DDE912013246FDF752FC0746884661
S2140833300E9B43B10022A04B3846414602F0FAFBEA
S214083340002840F087825046FDF7B2FA3A464346D0
S214083350FDF714FB994B0022FDF75EF9079B05461F
S214083360A1F15076002B00F03F81029B1593079B36
S21408337012930B9B002B00F0FB81129A8C4B0020BB
S21408338003EBC20353E902238D49FDF721FC2A46C5
S2140833903346FDF73FF982468B463846414602F0EB
S2140833A007FC0546FDF784FA02460B4638464146B2
S2140833B0FDF730F930355FFA85F8049D06460F4666
S2140833C085F8008002460B4650465946013502F0FD
S2140833D0CFFB002854D132463B4600207649FDF7FD
S2140833E019F902460B465046594602F0C1FB00281A
S2140833F040F07082129A012A00F01281129B049AF9
S214083400CDF84890134499460FE032463B460020D4
S2140834106949FDF7FFF852465B4602F08BFB002829
S21408342040F056824D4500F0F98050465946002235
S214083430644BFDF7A3FA0022624B82468B46304661
S2140834403946FDF79BFA0F46064602F0B1FB804662
S214083450FDF72EFA02460B4630463946FDF7DAF8EF
S21408346008F130085FFA88F805F8018B52465B4683
S21408347006460F4602F05EFB0028C6D0DDF84890E8
S214083480159B029323E500230B93259B002B40F303
S214083490DD801F461E460F930793F6E601230B931F
S2140834A0F3E7BAF1000F7FF4A7ADCBF31303002BB5
S2140834B07FF4BCAD2BF000473F0D3F05002F00F012
S2140834C00D820A9B01330A93089B01330893012354
S2140834D00C93ADE5079B002B3FF748AC40F02282E3
S2140834E0DDE908010022384BFDF748FA52465B46EC
S2140834F002F034FBDDF81C804646002841D0259BA8
S214083500049DDB4302934146204601F0E7FA002E6D
S2140835103FF4DDACA7E60C9A4946204601F016FCB7
S214083520814657E5149A002A00F0888103F233434F
S2140835300C9F0A9DF2E4BAF1000F7FF477ADB4E76A
S21408354001F0D6FA474606468346C0E501462046B9
S214083550089301F0C3FA0122089BE2E5249B022B9C
S2140835607FF798AD079B002BC9D141460522204618
S21408357001F0BEFA01468046484601F087FC00285E
S214083580BDDD3123029A0499013202920B704D1C5C
S214083590B9E73123029A01320292049A137052E66E
S2140835A001230B9366E6DDF828900B9C8FE400BF9A
S2140835B0585D0800305D08000000F03F00001C4021
S2140835C00000E03F00002440000014405046FDF78D
S2140835D06FF93A464346FDF7D1F90022C14BFDF78D
S2140835E01BF80546A1F1507641460022BE4B3846E8
S2140835F0FDF710F82A46334682468B4602F0B8FA9C
S2140836008046002840F010812A4606F100435046BE
S214083610594602F08FFA18B1464670E7DDF848902A
S214083620DDE910ABFFF78FBB0498FFF7C0BA0C9B19
S2140836300D9AFB1A1A440C970D92002768E4DDE9E8
S21408364010234FF0020ACDE9122356E60021012383
S21408365020466164259301F01BFA259B0490079386
S214083660259B20640F9327E6002AD046CDF820B085
S2140836709A4611DD49460122204601F0B7FB41462D
S214083680814601F003FC002840F34581BAF1390F62
S21408369000F0058105F1310AB34687F800A07D1CC5
S2140836A0089ED0E504D11AF0010F01D0BBE51546F7
S2140836B015F8013C6A1E302BF9D0C4E5302204996F
S2140836C00A70029A15F8018C01320292FFF7FBBBCA
S2140836D000F0BB80DDE91001029B4FF0020A5D4254
S2140836E0824B05F00F0203EBC203D3E90023FDF774
S2140836F045F92D11074688463FF41AAE7C4EEB076F
S21408370009D5D6E9002338464146FDF737F9074676
S21408371088460AF1010A6D1006F10806EFD107E699
S2140837207168204601F0B4F90546336906F10C01C4
S21408373002339A000C3001F0C5F8294601222046CB
S21408374001F054FB0890B6E4392BCDF820B0D046EB
S21408375000F0A58003F1010AB34687F800A07D1C97
S214083760089E70E55A46D046B3469A4616464EE533
S21408377012985E492A4601EBC001334651E9020118
S214083780FDF7FCF8CDE916013846414602F010FA76
S2140837900546FDF78DF802460B4638464146FCF7C7
S2140837A039FF06461298049A3035012815700F46D8
S2140837B002F1010526D0129B049ACDF848901344CE
S2140837C04FF0000A9946DFF830B152465B4630465D
S2140837D03946FDF7D3F80F46064602F0E9F9804663
S2140837E0FDF766F802460B4630463946FCF712FFE8
S2140837F008F1300805F8018B4D4506460F46E4D11A
S214083800DDF848900022DDE916013A4BFCF704FF84
S21408381032463B4602F08EF9002846D0159B0293A6
S21408382015F8018CFFF742BB4FF000084646A8E69D
S2140838300A9B079A9D1A0023FFF770BB189B0C9FDC
S214083840C3F136030A9DFFF769BBDDE910784FF030
S214083850020A6DE5079B002B3FF4B8AE0F9B002BC2
S2140838607FF7DEAE0022244B38464146FDF786F841
S214083870074688460AF10100FDF71AF83A46434615
S214083880FDF77CF80022174BFCF7C6FE029A0F9B42
S214083890013A05461592A1F15076129369E5392248
S2140838A0B3463A70089E7D1CBFE4DDE91623002067
S2140838B01049FCF7AFFE32463B4602F059F908B904
S2140838C0AEE6154615F8013C6A1E302BF9D0D7E54A
S2140838D0DDF84890159B0293FFF7E8BA0C97FFF7B8
S2140838E0A7BB00BF00001C4000001440585D08003D
S2140838F0305D08000000E03F00002440392BCDF87A
S21408390020B0D046DDF81CB09A46C8D0BBF1000FF0
S2140839103FF7C0AEC0E67FF4BFAE1AF0010F3FF423
S214083920BBAEB3E64FF000084646E8E5314600234E
S2140839300A22204601F0DCF80F9B0646002B07DD1E
S2140839400793FFF7ABBB249B022B1FDC0F9B3CE4C3
S214083950249B022B1ADC0F9BF2E73FF481ABC0F1E5
S2140839603C0011E4002520466564294601F090F8DD
S2140839704FF0FF3307930F93012304902595206497
S2140839800B93FFF7E0B90125FFF7A8B90F9B07933C
S214083990E8E500BFB1F90C302DE9F0419AB20D46C2
S2140839A0110780463AD46A6843F40063002AAB815C
S2140839B070DDAC6A002C4AD000229BB2D8F80060B2
S2140839C0C8F8002013F4805268D02A6D5F0705D522
S2140839D069682B6B521A0BB1EB6BD21A0023E96994
S2140839E04046A047441C3DD00021B5F90C302A6952
S2140839F023F40063AB81DB0469602A6048D4296B32
S214083A00C8F8006019B305F14003994202D0404651
S214083A1000F05AF900202863BDE8F0812E69B6B197
S214083A20910718BF00232C6808BF6B692E60A41B7B
S214083A30AB600AE0234632466F6AE9694046B847F3
S214083A400028A4EB0004064404DD002CF2DC002069
S214083A50BDE8F081AB894FF0FF3043F04003AB81FF
S214083A60BDE8F081D8F800401D2CF3D8164BE3408B
S214083A70DB4313F00103EDD1B5F90C20296922F4D4
S214083A800062AA81D2046B602960B8D5002CB6D132
S214083A902865B4E7EA6B002A8BDCD8E70123E969D6
S214083AA04046A047431C024602D0AB89AC6A8DE765
S214083AB0D8F80030002BF8D01D2B01D0162BC9D112
S214083AC0C8F80060C3E700BF0100402038B50D46BF
S214083AD0044608B1836BBBB1B5F90C0088B16B6EB0
S214083AE0DB0701D4810517D520462946FFF752FF84
S214083AF06B6E0446DA0702D4AB899B0507D52046C9
S214083B0038BD0446204638BD00F038F8E4E7A86D0E
S214083B1000F076FB204638BDA86D00F06FFBE3E7A3
S214083B20014900F031BB00BFA9560800002310B5B4
S214083B3004468181C28103604360836043660361F3
S214083B4043618361194608225C30FDF7D9FA0748B5
S214083B500749084A084B2062E4616162A262E36290
S214083B6004F15800BDE8104000F044BB19540800A2
S214083B703D540800795408009954080010B50446C6
S214083B80144800F03BFBA26BFAB90320124904F56F
S214083B903B73C4F8E832C4F8E022C4F8E402E163F0
S214083BA060680421FFF7C2FFA06801220921FFF719
S214083BB0BDFFE06802221221FFF7B8FF012305487F
S214083BC0A363BDE8104000F01BBB0248BDE81040E8
S214083BD000F016BB340E0020213B0800014800F018
S214083BE00DBB00BF480E0020014800F009BB00BF0F
S214083BF0480E002038B50A4C0A4D641BA4100AD09B
S214083C0004F18043013B05EB8305013C55F8043974
S214083C109847002CF9D1BDE8384002F09DB900BF9E
S214083C20685F0800645F0800F8B50C46234F064630
S214083C3000F022FFBB68C4F57E615D680F3125F091
S214083C400305294421F47F6121F00F01A1F5805472
S214083C50B4F5805F07DB0021304601F0CBFBBB687C
S214083C602B44984204D0304600F00CFF0020F8BDE4
S214083C706142304601F0BEFB01300DD0104BBA68E9
S214083C8019682D1B45F001053046091B556019605B
S214083C9000F0F8FE0120F8BD0021304601F0AAFB2E
S214083CA0BA68831A0F2BDEDD064C0549246843F0F4
S214083CB00103001B53600860D5E700BF34040020EA
S214083CC0EC0D00203C080020002944D02DE9F041E6
S214083CD00D46804600F0D0FE55F8047C6949A5F1EB
S214083CE0080427F00103E2188E685068B24220F0F4
S214083CF003005ED0FE0750600BD455F8087C01F12F
S214083D00080EE41BA5683B4475456DD0E768EF6070
S214083D10BD6015186D68ED073ED543F00102626078
S214083D20E350B3F5007F17D20122DB0898104D68E0
S214083D30134451F83370824001EBC3002A43083815
S214083D40E060A7604A6041F83340FC604046BDE842
S214083D50F04100F097BE70475A0A042A52D89A09CA
S214083D6002F13907FF0002F13805C819CA590838A0
S214083D7090424FD0516821F003018B4232D29268AC
S214083D809042F7D1C368A060E3609C60C460404678
S214083D90BDE8F04100F076BE95683B4F0344BD424F
S214083DA040D0D06843F00102E86085606260E35066
S214083DB0B7E7FF07034407D455F8085C641BE268B6
S214083DC0A0682B44C2609060304A43F00100126835
S214083DD0606093428C60B9D32D4B40461968FFF754
S214083DE023FFB3E71046CDE711184968C90744D43E
S214083DF091680344D26843F00100CA60916060602D
S214083E00E350A3E7142A16D802F15C07FF0002F174
S214083E105B05AAE70123AA104D6893402B434B6025
S214083E200346B0E743F001024C610C61E560A5600B
S214083E306260E3508AE7542A06D81A0B02F16F0725
S214083E40FF0002F16E0590E7B2F5AA7F06D8DA0BF6
S214083E5002F17807FF0002F1770586E740F2545032
S214083E60824206D89A0C02F17D07FF0002F17C0513
S214083E707BE74FF47E777E2577E743F001016160A4
S214083E80136063E7340400203C0400204008002048
S214083E901C0E00209368002B71D02DE9F04F8B89FB
S214083EA083B00C4619070090164625D522691AB322
S214083EB013F0020035682BD04FF00009B0464F4685
S214083EC0DFF8C0A2002F55D057453B464A4628BFC4
S214083ED05346E1690098666AB047002856DDD8F868
S214083EE0083081441B1A3F1AC8F80830002BE9D15D
S214083EF0002003B0BDE8F08F21460098FEF71EFDAF
S214083F00002840F03581A389356813F00200D3D124
S214083F1013F0010944D14F46019637B39A05D4F8F1
S214083F20088040F185804745C346C0F0AD8013F44D
S214083F30906F40F0AE80BA4620685A46494600F070
S214083F4037FDA2682368A2EB08025B44A2602360E0
S214083F50019AD1449368A7EB0A07A3EB0A03936078
S214083F60002BC5D0A389002FD8D1D5F800906F684C
S214083F700835D2E7D5F800906F680835A2E7002024
S214083F80704721460098FFF7A1FD78B3B4F90C30C6
S214083F904FF0FF3043F04003A38103B0BDE8F08F35
S214083FA0814633464E46A8469A464D4656B300289E
S214083FB032D0B145CB4628BFB346206823695F4652
S214083FC09842626904D9A36813449B4500F3A88005
S214083FD093454DDB1346676A2A46E1690098B84759
S214083FE0071ED3DDB9EB0709CBD00120DAF8083075
S214083FF03D44DB1BF61BCAF80830002B3FF478AFAD
S214084000002ED4D108F1080353F8046C984653F8E8
S214084010085C0833002EF7D032460A21284600F0FE
S2140840200BFC002800F0A1800130A0EB0509C0E7D2
S21408403020682369984202D863699F425DD2B845D2
S21408404028BFB8464946424600F0B2FCA368226834
S214084050A3EB08034244A36022600BB1C24677E78D
S21408406021460098FFF732FD00288FD1C2466FE739
S2140840705A46294600F09CFCA2682368A2EB0B026D
S2140840805B44A2602360ADE7B846BA46BB462068E4
S21408409053E762692068216902EB4208A0EB010A2F
S2140840A008EBD8780AF101004FEA6808384440451A
S2140840B0424684BF804642465B0544D51146009872
S2140840C000F018F98346002855D05246216900F0BA
S2140840D0F9FBA38923F4906343F08003A3810BEBD9
S2140840E00A00A8EB0A03C4F810B0C4F814802060CD
S2140840F0A360B846BA46BB461FE76FF00042BA420E
S21408410028BF3A4692FBF3F2E16903FB02F30098F4
S2140841104A46666AB047B0F1000A3FF719AF35E776
S2140841201A462946019300F043FC2268019B214663
S2140841301A4422600098FFF7C9FC019B00287FF408
S21408414025AF1F464EE7009800F09EFF83460028DE
S214084150C5D1009D21692846FFF7B6FD0C22B4F9A3
S2140841600C302A6023F0800312E706F1010920E7E5
S2140841704FF0FF30BDE60C220099B4F90C300A6007
S21408418006E700BF00FCFF7F2DE9F84310F53876F8
S2140841901ED0884607464FF000097568B468013D8A
S2140841A010D4A389013D012B08D9B4F90E30013388
S2140841B004D021463846C04749EA00096B1C04F17A
S2140841C06804EED13668002EE7D14846BDE8F88385
S2140841D0B1464846BDE8F883044A054B1268506B5A
S2140841E0002808BF1846F030704700BF04000020BB
S2140841F044080020704700BF704700BF704700BFE4
S214084200704700BF70B50C46B1F90E1090B0002983
S21408421015461E4614DB01AA01F028FB00280FDB12
S214084220029A4FF4806302F47042A2F50052B2FA82
S21408423082F24FF40060520932602B6010B070BDF5
S2140842400023A289336012F0800004D0402218466A
S2140842502A6010B070BD4FF480632B6010B070BD3C
S2140842608A890B46920706D5012103F14302596154
S2140842701A601A617047F0B583B001AB6A460C46FF
S2140842800646FFF7BFFF00990546304600F032F8AD
S214084290B4F90C30D8B19DE80600154F43F08003FA
S2140842A0F763A3812060206161611AB92B43A3815B
S2140842B003B0F0BD3046B4F90E1001F0EBFAA0B129
S2140842C0A38923F0030343F001031BB2EEE79A0524
S2140842D0EED4012123F0030304F1430243F0020362
S2140842E0A381616122602261E2E7B4F90C30DDE760
S2140842F0213B08002DE9F04F01F10B06162E83B07E
S214084300054640F29E8036F0070600F1BD80B142B1
S21408431000F2BA8000F0B0FBB6F5FC7FC0F08582EC
S214084320730A00F0B880042B00F26C81B30903F11D
S214084330390003F1380EC100B84F39444C680839C3
S214084340A14206D10CE0002A80F2AB80E468A142C4
S21408435006D0636823F003039A1B0F2AF3DD704622
S2140843603C69DFF8CCE2744500F09E81636823F070
S21408437003039A1B0F2A00F38381002AC7F814E068
S214084380C7F810E080F29180B3F5007F80F0548182
S2140843900122DB0879684FEAA30C134457F83380E8
S2140843A002FA0CF207EBC30C0A43ACF10801E16011
S2140843B0C4F808807A6047F83340C8F80C400124EF
S2140843C083109C4094427DD8144206D120F0030006
S2140843D06400144200F10400FAD007EBC009CC468A
S2140843E08046DCF80C309C4507D15FE1002A80F255
S2140843F06D81DB689C4500F05981596821F00301FE
S2140844008A1B0F2AF2DDDC68D3F808C046F00108DC
S21408441028461E4442F00105C3F80480CCF80C4038
S214084420C4F808C07E613E61C6F80CE0C6F808E02D
S21408443075605A50009300F025FB009B03F10804B2
S2140844401EE0102920D800F017FB1026182302209B
S214084450724F3B445C68A3F10802944200F02F8137
S2140844606368E16823F0030323445A68A66842F0A9
S2140844700102F16028468E605A6000F003FB08349B
S214084480204603B0BDE8F08F00240C2320462B609E
S21408449003B0BDE8F08F40204FF400714FF03F0E98
S2140844A04AE723445A68E168E0E723445A682846FE
S2140844B042F001025A60083400F0E4FA204603B0DD
S2140844C0BDE8F08FBC68636823F00308B04504D3E2
S2140844D0A8EB06030F2B00F38580DFF85891504BA6
S2140844E0D9F800201B680132334404EB080A00F0B0
S2140844F0548103F580530F3323F47F6B2BF00F0B97
S2140845005946284600F076FF411C024600F0FB801C
S214084510824500F2F680434B19685944196000F04A
S2140845204C81D9F8000001301BBFA2EB0A0A51449F
S214084530C9F80020196012F0070100F01481C1F1D3
S2140845400800C1F580510244083102EB0B09C9F393
S2140845500B09A1EB0909494628460193009200F089
S21408456049FF431C9DE80C0000F04281801A48442D
S21408457040F001001968BC424944BA6019605060AE
S21408458017D0B8F10F0F40F2FA804FF0050C6268AA
S214084590A8F10C0020F0070002F0010204EB000E60
S2140845A002430F286260CEF804C0CEF808C000F2B6
S2140845B016811D4BBC681A68914288BF19601B4B50
S2140845C01A689142626888BF196022F00302964210
S2140845D0A2EB060301D80F2B04DC284600F052FA9B
S2140845E000244DE746F0010243F0010326446260CA
S2140845F02846BE600834736000F044FA204603B0CC
S214084600BDE8F08F142B70D9542B00F2A280330B20
S21408461003F16F0003F16E0EC1008DE6340400202E
S2140846201C0E0020EC0D0020140E0020180E002092
S2140846303C0400203C0800205A0A042A5BD9142AA5
S21408464000F2AE8002F15C01C9005B3207EB010C98
S2140846507958ACF1080C8C4500F088804A6822F03E
S2140846600302934273D289688C45F7D1DCF80C3084
S2140846707A68E360C4F808C09C60CCF80C409EE6F4
S21408468046F0010C42F001012644C4F804C028464E
S2140846907E613E61C6F80CE0C6F808E07160E2503C
S2140846A000F0F0F90834EBE67A6888E608F10108C5
S2140846B018F0030F0CF1080C7FF493AE2DE0DC68BD
S2140846C0A34208BF02303FF44BAEC9E61C46194465
S2140846D04A68DB6854F8086F42F001024A602846C8
S2140846E0F3609E6000F0CEF9CAE603F15C0003F1C1
S2140846F05B0EC10020E69A0902F13901C90038327A
S214084700A4E7BC4254D0BC68626822F003025EE7A5
S21408471059F80839994540F0868010F0030F00F1E3
S214084720FF30F5D17B6823EA04037B6064009C4273
S2140847303FF6C8AE002C3FF4C5AE1C4240467FF498
S2140847404CAE64001C4200F10400FAD045E68C46E4
S2140847508CE7B3F5AA7F15D8F30B03F1780003F1BD
S214084760770EC100E8E54FF48051EEE601217B683C
S214084770921001FA02F21A437A60634679E7012337
S21408478053602AE740F25452934222D8B30C03F1FE
S2140847907D0003F17C0EC100CEE503F1100BAFE6F9
S2140847A0542A29D81A0B02F16F01C9006E324DE758
S2140847B0204B196859441960B3E6CAF30B00002861
S2140847C07FF4AFAE08EB0B03BA6843F001035360FF
S2140847D0EFE67F204FF47E714FF07E0EACE504F1D5
S2140847E0080128460093FFF76FFA009B1968E0E671
S2140847F001204FF00009BDE6B2F5AA7F05D8DA0B0E
S21408480002F17801C900773220E740F254518A4213
S21408481005D89A0C02F17D01C9007C3216E74FF4E0
S2140848207E717E2212E77B6880E7F00806F10803AF
S2140848300EE600BFEC0D0020830770B4CDB23DD065
S214084840541E0AB30378AB421FD0431C05E014F18C
S214084850FF3419D30278AA4217D013F0030F18466C
S21408486003F10103F3D1032C11D84CB30378AB4200
S2140848700BD00444431C02E00278AA4205D09C42AE
S214084880184603F10103F7D1002070BC70470902EF
S21408489089B2294341EA0141036806464B40A3F121
S2140848A0013222EA030313F0803F00F1040003D12B
S2140848B0043C032CF0D8D8E73046D7E71446D2E7AE
S2140848C02046E2E7844641EA000313F0030349D191
S2140848D0403A23D30B6803604B6843608B68836059
S2140848E0CB68C3600B6903614B6943618B6983615D
S2140848F0CB69C3610B6A03624B6A43628B6A836245
S214084900CB6AC3620B6B03634B6B43638B6B83632C
S214084910CB6BC36340304031403ADBD230320BD3E6
S2140849200B6803604B6843608B688360CB68C36022
S21408493010301031103AF3D20C3205D351F8043B3C
S21408494040F8043B043AF9D2043208D0D2071CBF18
S21408495011F8013B00F8013B01D30B880380604641
S214084960704700BF082A13D38B07B1D010F0030393
S214084970AED0C3F10403D21ADB071CBF11F8013B03
S21408498000F8013BA4D331F8023B20F8023B9FE72E
S214084990043AD9D3013A11F8013B00F8013BF9D2A1
S2140849A00B7803704B7843708B788370604670473B
S2140849B08842F0B50DD98B1898420AD28418002A76
S2140849C051D0224613F8014D994202F8014DF9D10B
S2140849D0F0BD0F2A48D941EA00039B0746D1154681
S2140849E000F1100401F1100353F8106C103D44F860
S2140849F0106C53F80C6C0F2D44F80C6C53F8086CBC
S214084A0004F1100444F8186C53F8046C03F110030E
S214084A1044F8146CE8D8A2F1100323F00F0302F050
S214084A200F0E1033BEF1030F1944034421D90E4666
S214084A3074461D1F56F8047B043C032C45F8047F77
S214084A40F8D8AEF1040424F00304043421442344C3
S214084A5002F0030262B1013B0A4411F8014B8A4294
S214084A6003F8014FF9D1F0BD0346F3E70346F2E732
S214084A70F0BD7246EEE700BF0148FFF7BFBB00BFB8
S214084A80380E00200148FFF7BBBB00BF380E0020D9
S214084A90C36C70B505460C464BB153F8240080B17C
S214084AA0026843F8242000230361C36070BD2122F6
S214084AB0042100F0B7FDE86403460028EDD1002085
S214084AC070BD012101FA04F6721D2846920000F016
S214084AD0A9FD0028F3D044608660E4E731B1C36CD2
S214084AE04A6853F82200086043F82210704700BF4F
S214084AF0F0B50C4605464FF0000E0E6983B001F17E
S214084B00140738680EF1010E81B202FB0133010C5E
S214084B10180C02FB01019BB203EB0143764547F8EC
S214084B20043B4FEA1143ECDC3BB1A268964207DA35
S214084B3004EB8602013653612661204603B0F0BDB9
S214084B406168284601310193FFF7A2FF07462269EC
S214084B5004F10C01023292000C30FFF7B3FEEA6C47
S214084B606168019B52F82100206042F821403C46CB
S214084B70DEE700BF020C12040346B2B90304102095
S214084B8013F07F4F04BF1B02083013F0704F04BFAA
S214084B901B01043013F0404F04BF9B000230002B6B
S214084BA002DB5B0003D4202070470020E8E70130D2
S214084BB0704700BF0368014613F0070207D0DA07FC
S214084BC021D4980721D49B080B600220704798B21E
S214084BD098B1104613F0FF0F04BF1B0A08301A07D7
S214084BE004BF1B0904309A0704BF9B080230DA0783
S214084BF007D45B0804D1202070471B0C1020E9E777
S214084C0001300B607047002070475B080B6001207E
S214084C10704700BF10B50C460121FFF739FF012287
S214084C204461026110BD00BF2DE9F04F0C6915699B
S214084C3083B0AC428B46164604DA2246B3462C4668
S214084C400E461546DBF8083004EB0508DBF80410BA
S214084C509845C8BF0131FFF71BFF00F1140909EB9F
S214084C60880AD145009005D24B46002143F8041B1C
S214084C709A45FBD806F1140C0CEB85030BF1140BC4
S214084C809C450BEB840E4BD2CDF804A09A46DCF874
S214084C900050AFB2E7B14D465E46002156F8042BE9
S214084CA0286893B284B2120C07FB0343000C07FB78
S214084CB002020B4402EB13419BB243EA0143B6459A
S214084CC045F8043B4FEA1141E8D82960DCF8005063
S214084CD02D0C1DD0D9F8003048461C4659460022EF
S214084CE00E88240C05FB06449BB2224443EA024382
S214084CF040F8043B51F8043B04681B0CA6B205FBBD
S214084D0003638E4503EB12434FEA1342E8D8036069
S214084D100CF1040CE24509F10409B8D8DDF804A042
S214084D20B8F1000F0BDD5AF8043CAAF1040A1BB1CF
S214084D3005E05AF8043D13B9B8F10108F9D100980E
S214084D40C0F8108003B0BDE8F08F00BF12F0030370
S214084D502DE9F041144607462ED10D46A4101CD066
S214084D60BE6C96B3E3074FF0000806D4641014D060
S214084D703068A8B10646E307F8D5324629463846CD
S214084D80FFF752FFB5B16A68FB6C641053F822103F
S214084D90296043F822500546EAD12846BDE8F08146
S214084DA0324631463846FFF73FFF3060C0F800808D
S214084DB00646E0E70546D9E70B4A013B52F82320AA
S214084DC00023FFF795FE0546C8E701213846FFF79A
S214084DD05FFE40F27121012200234161026106460E
S214084DE0B8640360BEE700BF205E08002DE9F843FC
S214084DF00B69541104EB03088B6808F101059D4202
S214084E000E4691460746496804DD5B009D4201F15F
S214084E100101FADC3846FFF73BFE002C00F11403CC
S214084E2006DD002103EB840243F8041B9A42FBD1FB
S214084E30346906F1140119F01F0901EB840E1DD020
S214084E400022C9F1200C0C6804FA09F4144343F84C
S214084E50044B51F8042B8E4522FA0CF2F3D81A604C
S214084E600AB108F10205FB6C7268013D53F822107E
S214084E700561316043F82260BDE8F883043B51F8C9
S214084E80042B8E4543F8042FF9D8ECE730B40B69A9
S214084E9005460069C01A0FD19B0014351431194411
S214084EA02B4401E09D4207D253F8044D51F8042DD7
S214084EB09442F7D002D3012030BC70474FF0FF3041
S214084EC0FAE700BF2DE9F84F0C6989461169924642
S214084ED0641A002C17D1890009F1140702F1140688
S214084EE07B18314401E09F4265D253F8045D51F8BF
S214084EF0042D9542F7D067D24B46BB46D146374677
S214084F009A46012405E061DB002409F114070AF13A
S214084F10140BD9F80410FFF7BBFD5D464FF00008E8
S214084F20D9F810E0DAF810303E46C4600BEB830C74
S214084F3007EB8E0700F1140456F8049B55F8042B6B
S214084F401FFA89F343441FFA82F8120CA3EB0803EE
S214084F50C2EB194202EB23429BB243EA0243AC453A
S214084F6044F8043B4FEA2248E6D8B74217D9A44685
S214084F70354655F8043B99B241440A1402EB1342ED
S214084F8089B241EA0243AF424CF8043B4FEA224852
S214084F90EFD8F643374427F0030704373C44043C6D
S214084FA02BB954F8043D0EF1FF3E002BF9D0C0F89B
S214084FB010E0BDE8F88F0021FFF76AFD0122002304
S214084FC002614361BDE8F88FB346A2E74B4609F194
S214084FD0140B02F11407914601249A4699E700BF7C
S214084FE0F0B5012183B01C46C3F30A551646FFF7F1
S214084FF04FFDC4F3130407460DB144F4801401941E
S21408500006B302A840F8086DFFF7D4FD002830D193
S2140850109DE80C007A61002B0CBF01210221BB61C0
S2140850203961D5B9089A07EB8103A0F232401060BF
S2140850301869FFF79FFD099BC0EB411018603846BA
S21408504003B0F0BD01A8FFF7B5FD0122019B11468C
S21408505020303A617B61002DE4D0A5F23343089AEC
S21408506003441360099BC0F135001860384603B046
S214085070F0BD019BC0F12002009903FA02F20A4330
S214085080C34001937A61C6E7002900F094802DE9B1
S214085090F04F0C46154683B0804605F10B06FFF721
S2140850A0EBFC54F804EC162E2EF00307A4F10809BE
S2140850B03CD810221646B5423DD8974243DAC64B2E
S2140850C009EB07009968884200F0C380436823F01C
S2140850D0010101444968C9074DD51EF0010F00F0CB
S2140850E09B8029464046FFF705F9054600283BD031
S2140850F054F8043CA0F1080223F001034B449A42FA
S21408510000F02B813A1F242A00F21881132A00F295
S214085110EB80034622461168196051685960926808
S2140851209A6021464046FEF7CFFD1DE026F00706AA
S214085130002E3246BFDA00250C232846C8F8003071
S21408514003B0BDE8F08F2546BB1B0F2BD9F804200B
S2140851501DD802F001023A4309EB0701C9F80420FA
S2140851604B6843F001034B604046FFF78BFC28462C
S21408517003B0BDE8F08F23F00303F91891421DDB56
S214085180C36882682546D3600F469A60DCE702F05B
S214085190010209EB060143F001033243C9F8042073
S2140851A04F444B607B68083143F001037B60404600
S2140851B0FEF78AFDD8E71146FFF79CB81EF0010FE8
S2140851C08FD154F8081CA9EB010ADAF8041021F06C
S2140851D003010B443B44934226DB5546C16880686E
S2140851E03A1FC160886055F8080FDAF80C10242AB0
S2140851F0C160886026D8132A40F2818021681B2A5D
S214085200CAF808106168CAF80C1000F2AD8004F1FC
S21408521008000AF1100274E054F8083CA9EB030AE7
S214085220DAF8041021F003017B189342FFF659AF11
S2140852305546DAF80C1055F8080F3A1F242AC160AC
S2140852408860D8D9214628461F46D146FFF7B0FBC6
S2140852507AE7416806F1100021F0030BBB4483454A
S21408526058DA1EF0010F7FF43CAF54F8081CA9EB7F
S214085270010ADAF8041021F003018B445845D3DC00
S2140852805546DAF80C1055F8080F3A1F242AC1605C
S214085290886000F28D80132A40F2878021681B2AD6
S2140852A0CAF808106168CAF80C1000F2888004F181
S2140852B008010AF11002086810604868506089689A
S2140852C09160ABEB06020AEB060142F00102996018
S2140852D04A60DAF80430404603F001031E43CAF871
S2140852E00460FFF7CFFB42E723681B2A0360636866
S2140852F0436027D800F1080304F108020BE72046AC
S2140853002A4601681F4611604168D1465160836885
S214085310936019E7ABEB060B09EB06014BF00102AD
S21408532099604A6054F8043C404603F001031E4363
S21408533044F8046CFFF7A6FB254618E72146FFF756
S21408534037FBEEE6A368242A8360E368C36018D0B8
S21408535000F1100304F11002DDE650F8043C25467F
S21408536023F003031F44EFE6A168242ACAF81010A6
S214085370E168CAF814100DD004F110000AF11802FA
S214085380BFE7226900F118030261616904F1180297
S2140853904161C0E6226904F11800CAF8182061695C
S2140853A00AF12002CAF81C10ABE721462A4682E713
S2140853B0214628460193FFF7FBFA019B81E7A1687F
S2140853C0242ACAF81010E168CAF8141006D004F1A6
S2140853D010010AF118026EE734040020226904F16D
S2140853E01801CAF8182060690AF12002CAF81C00D9
S2140853F061E700BF38B50023064C0546084623601B
S214085400FBF7B8F8431C00D038BD2368002BFBD048
S2140854102B6038BD4C0E002010B50C46B1F90E10A6
S21408542000F084FA002803DB236D0344236510BDCF
S214085430A38923F48053A38110BD00BF2DE9F04152
S2140854400C46B1F90C101F46CB051646054607D57F
S214085450B4F90E100223002200F03CFAB4F90C103E
S21408546021F48051A1813B463246B4F90E102846F5
S214085470BDE8F04100F05EB810B50C46B1F90E1064
S21408548000F028FAA389421C0EBF23F4805343F485
S21408549080532065A38110BDB1F90E1000F0F2B854
S2140854A02DE9F84F4B6E93469C042FD593681268E7
S2140854B053B30E46074602F1080919E920045FEAC5
S2140854C09A0817D00024043D01E0A04510D03246C3
S2140854D055F8041F384600F095F9431C04F10104FA
S2140854E0F3D10023CBF80830CBF80430BDE8F88FAA
S2140854F0DBF808302AF0030AA3EB0A03CBF80830D7
S21408550009F10809002BD8D10020EAE7FEF7C2FC0B
S2140855100023CBF80830CBF80430BDE8F88F00BF7E
S21408552093680BB1FFF7BCBF10B41846536010BCA5
S214085530704700BFF8B50E460025084C11460746CA
S2140855401A4630462560FBF737F8431C00D0F8BDEE
S2140855502368002BFBD03B60F8BD00BF4C0E002034
S2140855602DE9F8432C4D0646286898460F4691467E
S214085570FEF744FE294B1C68D4F84831002B3ED071
S2140855805A681F2A1CDC02F1010E76B1012103EBD2
S2140855908204C4F88890D3F8880191400843022E04
S2140855A0C3F88801C4F8088123D00232C3F804E09F
S2140855B0286843F82270FEF723FE0020BDE8F8832B
S2140855C0174B0BB34FF4C870AFF300800346D8B13F
S2140855D00020D4F848114FF0010E586019600246B2
S2140855E0C4F84831C3F88801C3F88C01002EDCD013
S2140855F0CCE7D3F88C010143C3F88C11D5E704F542
S214085600A673C4F84831BBE72868FEF7F9FD4FF0E3
S214085610FF30BDE8F88300BF30040020B05C080007
S2140856200000000010B502FB01F1FEF763FE044619
S214085630D8B150F8042C22F00302043A242A18D8C9
S214085640132A14D900231B2A0360436016D9242A78
S2140856508360C36011BF00F110020361436100F16B
S21408566018020023136053609360204610BD02465C
S214085670F7E70021FBF744FD204610BD00F10802BD
S214085680EFE700BF38B50023064C054608462360FA
S214085690FAF786FF431C00D038BD2368002BFBD0E2
S2140856A02B6038BD4C0E002070B559B105460C4627
S2140856B010B1836B002B3CD0636ED80705D5B4F9C0
S2140856C00C302BB90026304670BDA38999053CD509
S2140856D021462846FEF75EF9E36A064633B1E169D5
S2140856E0284698470028B8BF4FF0FF36A3891A0601
S2140856F022D4216B41B104F14003994202D02846D6
S214085700FEF7E2FA00232363616C21B12846FEF710
S214085710DBFA00236364FEF761FA0022636EA28157
S214085720DB070ED5A06DFEF767FDFEF75DFA30467F
S21408573070BDFEF723FABFE721692846FEF7C4FACC
S214085740D7E7A06DFEF75CFDECE7A06DFEF756FD0B
S214085750B4F90C30002BBBD1666E16F00106B1D139
S214085760A06DFEF74DFD304670BD00BF2DE9F04335
S21408577083B007468846144600F09EF8012833D0C2
S214085780424604F15C0301A9384600F03DF9421C84
S214085790064622D090B39DF8041000250DF10409A2
S2140857A008E023685A1C226019700135B54225D2D4
S2140857B015F80910A368013B002BA360F1DAA2696B
S2140857C0934201DB0A29ECD12246384600F0C4F899
S2140857D0431CEAD103B0BDE8F083A38943F0400335
S2140857E0A38103B0BDE8F08308F1FF33FE2BC7D8CA
S2140857F05FFA88F106468DF80410CEE7404603B0F7
S214085800BDE8F08330B5536E144613F0010FB2F9B5
S2140858100C3083B005469AB201D190051CD5900489
S21408582006D4626E43F4005342F40052A3816266C3
S21408583028462246FFF79AFF636E0546DA0702D423
S214085840A3899B0502D5284603B030BDA06DFEF798
S214085850D7FC284603B030BDA06D0191FEF7CEFCFC
S214085860B4F90C3001999AB2D9E700BF70B50D4665
S2140858700023074C0646114628462360FAF793FE8F
S214085880431C00D070BD2368002BFBD0336070BD6E
S2140858904C0E002038B50023064C05460846236003
S2140858A0FAF786FE431C00D038BD2368002BFBD0D1
S2140858B02B6038BD4C0E0020044B054A1B685B6BFA
S2140858C0002B08BF134693F82801704704000020F1
