S00D00004E6F6465312E7372656360
S11300000C9460030C947D030C947D030C947D0389
S11300100C947D030C947D030C947D030C947D035C
S11300200C947D030C947D030C947D030C947D034C
S11300300C947D030C947D030C947D030C947D033C
S11300400C947D030C947D030C947D030C947D032C
S11300500C947D030C947D030C947D030C947D031C
S11300600C947D030C947D030C947D030C947D030C
S113007000000000005C00000C000C007C287C28C0
S113008058DC68002410480028542840000C000064
S1130090007884008478000054385400107C1000E8
S11300A080400000101010000040000060100C00A0
S11300B038543800487C40004864580044542C00AC
S11300C01C107C005C5424003854240064140C007C
S11300D068542C0048543800004800008048000050
S11300E0102844002828280044281000045408003C
S11300F038445C00781478007C5428003844280084
S11301007C4438007C5444007C140400384474005B
S11301107C107C00447C440020403C007C106C003B
S11301207C4040007C187C0078103C003844380047
S11301307C1408003844B8007C1468004854240037
S1130140047C04007C407C003C603C007C307C00EF
S11301506C106C000C700C0064544C00007C440067
S11301600C106000447C00000804080080808000BB
S113017000040800304878007C48300030484800CB
S113018030487C00306850001078140090A8780043
S11301907C08700050744000808074007C106800FB
S11301A0447C4000781078007808700030483000B3
S11301B0F82810003048F80078100800505828003B
S11301C0083C4800384078003840380078207800EF
S11301D04830480098A07800486858001078840097
S11301E0007C00008478100008040804000000006B
S11301F00000005F00000007000700147F147F1454
S1130200242A7F2A12231308646236495522500097
S113021005030000001C2241000041221C00082AA2
S11302201C2A0808083E0808005030000008080886
S11302300808006060000020100804023E5149458F
S11302403E00427F400042615149462141454B31C5
S11302501814127F1027454545393C4A4949300155
S1130260710905033649494936064949291E0036AC
S113027036000000563600000008142241141414FD
S1130280141441221408000201510906324979412B
S11302903E7E1111117E7F494949363E414141223A
S11302A07F4141221C7F494949417F090901013E9F
S11302B0414151327F0808087F00417F41002040BE
S11302C0413F017F081422417F404040407F0204A7
S11302D0027F7F0408107F3E4141413E7F090909A6
S11302E0063E4151215E7F09192946464949493153
S11302F001017F01013F4040403F1F2040201F7FFC
S11303002018207F631408146303047804036151E4
S113031049454300007F4141020408102041417FC8
S11303200000040201020440404040400001020475
S11303300020545454787F4844443838444444207A
S1130340384444487F3854545418087E090102083C
S11303501454543C7F0804047800447D4000204039
S1130360443D00007F10284400417F40007C041875
S113037004787C0804047838444444387C14141405
S113038008081414187C7C080404084854545420A5
S1130390043F4440203C4040207C1C2040201C3C26
S11303A04030403C44281028440C5050503C446495
S11303B0544C44000836410000007F0000004136E0
S11303C00800020103020100000000000000000018
S11303D0065F5F060000000007070007070000141F
S11303E07F7F147F7F1400242E6B6B3A120000462B
S11303F06630180C666200307A4F5D377A48000424
S113040007030000000000001C3E634100000000E0
S113041041633E1C000000082A3E1C1C3E2A0808BA
S1130420083E3E0808000000A0E06000000000084C
S11304300808080808000000006060000000006070
S113044030180C060301003E7F594D7F3E000042E8
S1130450427F7F40400000627359496F660000226A
S11304606349497F360000181C16137F7F1000274C
S11304706745457D3900003C7E4B497930000003D7
S11304806371190F070000367F49497F3600000663
S11304904F49693F1E000000006C6C000000000022
S11304A0A0EC6C00000000081C366341000000143E
S11304B014141414140000004163361C08000002D4
S11304C00351590F0600003E7F415D5D1F1E007CF5
S11304D07E13137E7C0000417F7F49497F36001CD8
S11304E03E634141632200417F7F41637F1C0041A1
S11304F07F7F495D416300417F7F491D0103001CEB
S11305003E6341517372007F7F08087F7F000000C3
S1130510417F7F41000000307040417F3F01004136
S11305207F7F081C776300417F7F41406070007FBC
S11305307F060C067F7F007F7F060C187F7F001CE0
S11305403E6341633E1C00417F7F49090F06001E44
S11305503F21717F5E0000417F7F19396F4600267D
S1130560674D597B32000003417F7F410300007FC8
S11305707F40407F7F00001F3F60603F1F00007F7F
S11305807F3018307F7F0063771C081C7763000777
S11305904F78784F0700006773594D476371000027
S11305A07F7F41410000000103060C183060000009
S11305B041417F7F000000080C0603060C08008000
S11305C08080808080808000000307040000002079
S11305D07454543C784000413F7F44447C38003894
S11305E07C44446C280000307848493F7F40003800
S11305F07C54545C180000487E7F49030200009834
S1130600BCA4A4F87C0400417F7F08047C7800002B
S1130610447D7D4000000040C484FD7D0000004115
S11306207F7F10386C440000417F7F400000007CD5
S11306307C0C180C7C78007C7C04047C78000038EA
S11306407C44447C38000084FCF8A4243C18001842
S11306503C24A4F8FC8400447C78441C1800004822
S11306605C54547424000000043E7F442400003C85
S11306707C40403C7C40001C3C60603C1C00003CD6
S11306807C6030607C3C00446C3810386C44009CC6
S1130690BCA0A0FC7C00004C64745C4C64000008AA
S11306A0083E7741410000000000777700000041D8
S11306B041773E0808000002030103020301000021
S11306C011241FBECFEFD4E0DEBFCDBF12E0A0E007
S11306D0B1E0EAE2F8E102C005900D92AA34B10754
S11306E0D9F722E0AAE4B2E001C01D92AD3EB20700
S11306F0E1F70E94A8060C94130C0C94000081B33B
S1130700806181BB80E480938B0089E080938A00C0
S1130710109287001092860008951092001497E2B8
S11307209A95F1F70000853040F090E00EC0F90191
S1130730FC5E90812F5F3F4F03C020E030E090E0EB
S1130740482F50E04217530794F7892F0895CF9309
S1130750C82F88B38F7E88BB83E00E94D6048C2F79
S11307600E94D6040E94DA0498B3906198BBCF919A
S11307700895CF93DF93D82FC62F88B38F7E88BB7D
S113078082E00E94D6048D2F0E94D6048C2F0E94F2
S1130790D60488B3806188BBDF91CF91089588B374
S11307A08F7E88BB80EC0E94D60488B3806188BBAE
S11307B083EC99E00197F1F700C0000008950E94CE
S11307C0D00487B3806187BB88B3806188BB0E94F3
S11307D0CF038EE00E94A703807E803829F08CE24C
S11307E091E00E94D70704C080E691E00E94D707F9
S11307F060E48FE00E94B9038EE00E94A703807E2C
S1130800803429F083E891E00E94D70708958FEAA5
S113081091E00E94D707089582ED91E00E94D707E6
S113082060E082ED91E00E9491062FE986E891E074
S1130830215080409040E1F700C000002FE986E895
S113084091E0215080409040E1F700C000002FE982
S113085086E891E0215080409040E1F700C000001C
S11308602FE986E891E0215080409040E1F700C0F4
S113087000002FE986E891E0215080409040E1F7A4
S113088000C000002FE986E891E0215080409040AC
S1130890E1F700C00000089586EE91E00E94D707BA
S11308A00E94330660E086EE91E00E9491062FE3F9
S11308B082E49FE0215080409040E1F700C00000B6
S11308C00895CF93DF938AE0EBEFF1E0A3E6B2E083
S11308D001900D928A95E1F7CAE4D2E082E0888F14
S11308E08CE492E0998388838BE0E5E0F2E0A5E96B
S11308F0B2E001900D928A95E1F78CE094E0909338
S1130900AF028093AE02109294028EE792E09D8330
S11309108C838BE0E0E1F2E0A7ECB2E001900D9271
S11309208A95E1F78CE494E09093E1028093E002ED
S11309301092C60280EB92E09F838E831092E202B3
S1130940DF91CF91089580914A0290914B02E091FA
S1130950E2020E2E000CFF0B3196EE0FFF1FE80F84
S1130960F91F0190F081E02D00A8F1A9E02D09956F
S1130970089588235CF0E0914A02F0914B02968935
S1130980891734F48093E20281E0089580E00895A9
S113099080E008959091E202890F0E94B9040895BD
S11309A087B3806A87BB81E58DB908958FB9779B3A
S11309B0FECF089580E00E94D6048FB1089588B3D5
S11309C0846088BB87B387BB0895CF93DF93EC0122
S11309D080E00E948D0390E09983888381E00E94E7
S11309E08D0390E09B838A8382E00E948D0390E0D4
S11309F09D838C8383E00E948D0390E09F838E838C
S1130A0081E0B29980E08887CE01DF91CF9108958B
S1130A10EF92FF920F931F93CF93DF93CDB7DEB77F
S1130A202A970FB6F894DEBF0FBECDBFFC01E98252
S1130A30FA820B831C832D833E834F835887162FA2
S1130A4029813A812F57310944E6429FC001439FCF
S1130A50900D11242FE730E0B9010E944E077183F5
S1130A6060836B817C816F577109469FC001479FEA
S1130A70900D1124B9010E944E07738362836D8126
S1130A807E816F577109469FC001479F900D1124C5
S1130A90B9010E944E07758364836F8178856F570F
S1130AA07109469FC001479F900D1124B9010E940E
S1130AB04E07778366831087CF012A960FB6F89482
S1130AC0DEBF0FBECDBFDF91CF911F910F91FF907D
S1130AD0EF9008950F931F93CF93DF93CDB7DEB7B5
S1130AE02A970FB6F894DEBF0FBECDBF09831A83D1
S1130AF02B833C8389819A818832910564F4893DF2
S1130B002FEF920744F02B813C81283231051CF4ED
S1130B10293D3F4F04F5AC01992324F4442755277C
S1130B20481B590B6B817C819B01772324F422277A
S1130B303327261B370B421753072CF018161906B8
S1130B4064F482E00FC0421753074CF416161706DC
S1130B5044F483E007C080E005C081E003C080E086
S1130B6001C084E02A960FB6F894DEBF0FBECDBF55
S1130B70DF91CF911F910F910895809300120895F2
S1130B808093001008958EEA0E94C00581EA0E94B5
S1130B90C0058AED0E94C00582E10E94C00588EC70
S1130BA00E94C00588EA0E94C0058FE30E94C00528
S1130BB085ED0E94C00580E80E94C00581E80E947E
S1130BC0C00580E50E94C00589ED0E94C00581E250
S1130BD00E94C00580E20E94C00582E00E94C00518
S1130BE08BED0E94C00580E30E94C0058DEA0E943F
S1130BF0C00580E00E94C00584EA0E94C00586EA20
S1130C000E94C0058FEA0E94C00508958770806B1A
S1130C100E94C0050895CF93C82F8F700E94C0050D
S1130C208C2F82958F7080610E94C005CF910895AA
S1130C30CF93C62F0E9406068C2F0E940B06CF91DD
S1130C40089560E080E00E9418060895CF930E9402
S1130C500606C0E004C080E00E94BD05CF5FCC233F
S1130C60D4F7CF910895CF93C0E004C08C2F0E9495
S1130C702606CF5FC830D0F30E942106CF91089595
S1130C80CF93DF9390EE980F903608F047C0C82FAB
S1130C90643099F0683039F13EC0EC2FF0E0B09741
S1130CA0EE0FFF1FEE0FFF1FED0FF11DE059FF4F79
S1130CB084910E94BD05DF5F01C0D0E0D43068F3A9
S1130CC02DC0EC2FF0E0B097EE0FFF1FEE0FFF1FCB
S1130CD0EE0FFF1FED0FF11DE953FC4F84910E94AD
S1130CE0BD05DF5F01C0D0E0D83058F317C02C2F0A
S1130CF030E020523109F901EE0FFF1FEE0FFF1F04
S1130D00E20FF31FED0FF11DE451FE4F84910E9499
S1130D10BD05DF5F01C0D0E0D53048F3DF91CF914E
S1130D2008950F931F93CF93DF938C01C0E0D0E01D
S1130D3004C065E00E9440062196F801EC0FFD1FF7
S1130D4080818111F6CFDF91CF911F910F9108958A
S1130D50CF93DF93CDB7DEB764970FB6F894DEBFB9
S1130D600FBECDBF8FE190E00E9441070E94300783
S1130D700E947F030E94DF040E94C3050E94330681
S1130D800E9461040E94DF03D12CCE0101960E94CF
S1130D90E504E980FA800B811C812D813E814F811D
S1130DA0588569857A85CE010B960E9408058AE0EC
S1130DB0FE013B96DE01119601900D928A95E1F7B2
S1130DC009811A812B813C814D815E816F817885F7
S1130DD089859A850E946A05182F0E94330613306C
S1130DE039F423E0C21621F08FEF0E94CA0408C030
S1130DF0143031F484E0C81619F081E00E94CA046A
S1130E00898581110E94A3049FE926E881E091501D
S1130E1020408040E1F700C00000D3946D2D8AEAA1
S1130E200E94B9039FE926E881E091502040804068
S1130E30E1F700C000008AEA0E94A7031F928F9383
S1130E401F92DF9283E292E09F938F930E94C107E7
S1130E50C12E0F900F900F900F900F900F9095CF81
S1130E6085B7806885BF80E280BF08955F9BFECF11
S1130E708CB190E008955D9BFECF8CB980E090E04A
S1130E80089590BD89B988E18AB98EE880BD66E38A
S1130E9077E08BE397E00E947607089597FB072E8F
S1130EA016F4009407D077FD09D00E94620707FC6E
S1130EB005D03EF4909581959F4F08957095619566
S1130EC07F4F0895AA1BBB1B51E107C0AA1FBB1F7C
S1130ED0A617B70710F0A61BB70B881F991F5A95C2
S1130EE0A9F780959095BC01CD0108950F931F93A8
S1130EF0CF93DF93009731F46115710519F480E005
S1130F0090E03AC08B01EC016EE070E081E090E08B
S1130F100E94E809FC01892B91F380E88383011581
S1130F20110571F01387028781E883838091E302BE
S1130F309091E402892B21F4F093E402E093E3021C
S1130F402097C9F0D187C087838182608383809191
S1130F50E5029091E602892B71F4F093E602E093A6
S1130F60E5028091E7029091E802892B21F4F09345
S1130F70E802E093E702CF01DF91CF911F910F9137
S1130F800895A0E0B0E0E7ECF7E00C94EC0BAE01C0
S1130F904B5F5F4FFA0161917191AF018091E5025E
S1130FA09091E6020E940708E2E00C94080C0F936B
S1130FB01F93CF93DF93E091E502F091E602238142
S1130FC021FF1BC08C01D0E0C0E0F80181918F01AA
S1130FD06091E5027091E602DB011896ED91FC91B7
S1130FE01997882331F00995892B79F3DFEFCFEF37
S1130FF0ECCF8AE00995892B19F08FEF9FEF02C09F
S11310008D2F9C2FDF91CF911F910F910895ABE00D
S1131010B0E0EDE0F8E00C94DC0B6C017B018A019C
S1131020FC0117821682838181FFCCC1CE01019617
S11310303C01F6019381F70193FD859193FF819122
S11310407F01882309F4BAC1853239F493FD85916F
S113105093FF81917F01853229F4B60190E00E94CB
S1131060420BE7CF912C212C312CFFE1F315D8F062
S11310708B3279F038F4803279F08332A1F4232D65
S113108020611DC08D3261F0803369F4232D21600D
S113109016C0832D8260382EE32DE4603E2E2AC0D4
S11310A0F32DF8601DC037FC2DC020ED280F2A3029
S11310B040F08E32B9F436FC81C1232D2064322EE7
S11310C019C036FE06C08AE0989E200D1124922E87
S11310D011C0EAE02E9E200D1124222EF32DF06281
S11310E03F2E08C08C3621F4832D8068382E02C030
S11310F0883641F4F70193FD859193FF81917F0137
S11311008111B3CF982F9F7D9554933028F40C5FB1
S11311101F4F9FE399830DC0833631F0833771F0FD
S1131120833509F059C021C0F801808189830E5F9D
S11311301F4F88248394912C530113C02801F2E09B
S11311404F0E511CF801A080B18036FE03C0692DFA
S113115070E002C06FEF7FEFC5010E94370B4C01B6
S11311608201F32DFF773F2E16C0280122E0420EA4
S1131170511CF801A080B18036FE03C0692D70E0D7
S113118002C06FEF7FEFC5010E94250B4C01F32DC8
S1131190F0683F2E820133FC1BC0822D90E088163C
S11311A09906B0F4B60180E290E00E94420B2A94C2
S11311B0F4CFF50137FC859137FE81915F01B601CB
S11311C090E00E94420B21102A9421E0821A910897
S11311D08114910471F7E8C0843611F0893641F521
S11311E0F80137FE07C060817181828193810C5FB1
S11311F01F4F08C060817181072E000C880B990B6A
S11312000E5F1F4FF32DFF763F2E97FF09C0909579
S11312108095709561957F4F8F4F9F4FF0683F2E5B
S11312202AE030E0A3010E947E0B882E861845C078
S1131230853731F4232D2F7EB22E2AE030E025C0ED
S1131240932D997FB92E8F36C1F018F4883579F033
S1131250B5C0803719F0883721F0B0C0E92FE061BC
S1131260BE2EB4FE0DC0FB2DF460BF2E09C034FEAB
S11312700AC0292F2660B22E06C028E030E005C03F
S113128020E130E002C020E132E0F801B7FE07C0FF
S113129060817181828193810C5F1F4F06C06081E0
S11312A0718180E090E00E5F1F4FA3010E947E0BCE
S11312B0882E8618FB2DFF773F2E36FE0DC0232D7A
S11312C02E7FA22E891458F434FE0BC032FC09C0C0
S11312D0832D8E7EA82E05C0B82CA32C03C0B82C59
S11312E001C0B92CA4FE0FC0FE01E80DF11D8081E0
S11312F0803321F49A2D997EA92E09C0A2FE06C03E
S1131300B394B39404C08A2D867809F0B394A3FCF3
S113131011C0A0FE06C0B21488F4280C922C9B18AD
S11313200EC0B21460F4B60180E290E00E94420B59
S1131330B394F7CFB21418F42B1802C0982C212CB4
S1131340A4FE10C0B60180E390E00E94420BA2FE0E
S113135017C0A1FC03C088E790E002C088E590E0D4
S1131360B6010CC08A2D867859F0A1FE02C08BE22A
S113137001C080E2A7FC8DE2B60190E00E94420B1E
S1131380891438F4B60180E390E00E94420B9A94E9
S1131390F7CF8A94F301E80DF11D8081B60190E046
S11313A00E94420B8110F5CF222009F442CEB601EF
S11313B080E290E00E94420B2A94F6CFF6018681E7
S11313C0978102C08FEF9FEF2B96E2E10C94F80B0C
S11313D00F931F93CF93DF93869F8001879F100DF8
S11313E0969F100D1124C8010E94040AEC01009775
S11313F029F0A80160E070E00E94300BCE01DF917B
S1131400CF911F910F9108950F931F93CF93DF9363
S11314108230910510F482E090E0E091EB02F091CB
S1131420EC0220E030E0A0E0B0E0309719F1408118
S113143051810281138148175907C8F08417950711
S113144069F4109731F012960C93129713961C932B
S113145027C00093EB021093EC0222C02115310542
S113146019F04217530718F49A01BD01EF01DF0187
S1131470F801DBCF21153105F9F0281B390B243095
S1131480310580F48A819B816115710521F0FB018E
S11314909383828304C09093EC028093EB02FE0159
S11314A0329644C0FE01E20FF31F819391932250C0
S11314B03109398328833AC02091E9023091EA0244
S11314C0232B41F420910201309103013093EA026D
S11314D02093E90220910001309101012115310589
S11314E041F42DB73EB74091040150910501241BEE
S11314F0350BE091E902F091EA02E217F307A0F458
S11315002E1B3F0B2817390778F0AC014E5F5F4F55
S11315102417350748F04E0F5F1F5093EA0240939B
S1131520E9028193919302C0E0E0F0E0CF01DF9102
S1131530CF911F910F910895CF93DF93009709F4F2
S113154081C0FC01329713821282A091EB02B09108
S1131550EC02109781F420813181820F931F209136
S1131560E9023091EA022817390751F5F093EA02AB
S1131570E093E90267C0ED0120E030E0CE17DF0719
S113158040F44A815B819E0141155105F1F0EA0165
S1131590F5CFD383C28340815181840F951FC8172F
S11315A0D90759F488819981840F951F02969183F4
S11315B080838A819B81938382832115310529F459
S11315C0F093EC02E093EB023DC0E901FB83EA8374
S11315D049915991C40FD51FEC17FD0761F480811F
S11315E09181840F951F0296E901998388838281F2
S11315F093819B838A83E0E0F0E012968D919C9125
S11316001397009719F0FD01DC01F7CF8D919C91A0
S113161011979D012E5F3F4F820F931F2091E90286
S11316203091EA022817390769F4309729F41092A7
S1131630EC021092EB0202C013821282B093EA020F
S1131640A093E902DF91CF910895FC0105906150C8
S113165070400110D8F7809590958E0F9F1F0895C4
S1131660DC0101C06D9341505040E0F70895FC0146
S11316706150704001900110D8F7809590958E0FBD
S11316809F1F08950F931F93CF93DF93FB01238133
S113169021FD03C08FEF9FEF2CC022FF16C04681AF
S11316A05781248135814217530744F4A081B181C5
S11316B09D012F5F3F4F318320838C932681378197
S11316C02F5F3F4F3783268314C08B01EC01FB014E
S11316D00084F185E02D0995892BE1F6D801169651
S11316E08D919C911797019617969C938E931697BC
S11316F0CE01DF91CF911F910F910895FA01AA278E
S1131700283051F1203181F1E8946F936E7F6E5F40
S11317107F4F8F4F9F4FAF4FB1E03ED0B4E03CD0EE
S1131720670F781F891F9A1FA11D680F791F8A1FD1
S1131730911DA11D6A0F711D811D911DA11D20D038
S113174009F468943F912AE0269F11243019305DF2
S11317503193DEF6CF010895462F4770405D4193E3
S1131760B3E00FD0C9F7F6CF462F4F70405D4A3330
S113177018F0495D31FD4052419302D0A9F7EACFF8
S1131780B4E0A6959795879577956795BA95C9F727
S113179000976105710508959B01AC010A2E06941A
S11317A05795479537952795BA95C9F7620F731FD3
S11317B0841F951FA01D08952F923F924F925F9210
S11317C06F927F928F929F92AF92BF92CF92DF924D
S11317D0EF92FF920F931F93CF93DF93CDB7DEB7B2
S11317E0CA1BDB0B0FB6F894DEBF0FBECDBF099446
S11317F02A88398848885F846E847D848C849B849D
S1131800AA84B984C884DF80EE80FD800C811B81AA
S1131810AA81B981CE0FD11D0FB6F894DEBF0FBED9
S10D1820CDBFED010895F894FFCF49
S113182A0000ED0220004552524F523A204D4350D7
S113183A32353135206973204E4F5420696E206E3B
S113184A6F726D616C206D6F646521002045525280
S113185A4F523A204D435032353135206973204E68
S113186A4F5420696E20636F6E666967206D6F64DA
S113187A65206166746572207265736574210D0052
S113188A204D43503235313520697320776F726B9E
S113189A696E67206D7920647564657321203A291D
S11318AA200D004552524F523A204D4350323531A1
S11318BA3520646964206E6F7420656E74657220C5
S11318CA6C6F6F706261636B206D6F64650D004DA0
S11318DA43503235313520456E7465726564206C27
S11318EA6F6F706261636B206D6F646520422D298E
S11318FA0D004669727374206D656E752073656C8C
S113190A6563746564005365636F6E64206D656E08
S113191A752073656C6563746564004D61696E2036
S113192A4D656E7500537562206D656E75203100C4
S113193A537562206D656E752032002D3E2000209D
S113194A20200053656E743A202530325820202016
S113195A202D2020202052656365697665643A202B
S10D196A25303258200D0A0D0A0042
S9030000FC
