S00D00004E6F6465312E7372656360
S11300000C9460030C947D030C947D030C947D0389
S11300100C947D030C947D030C947D030C947D035C
S11300200C947D030C947D030C947D030C947D034C
S11300300C947D030C947D030C947D030C947D033C
S11300400C947D030C947D030C947D030C947D032C
S11300500C947D030C947D030C947D030C947D031C
S11300600C947D030C947D030C947D030C947D030C
S113007000000000005C00000C000C007C287C28C0
S113008058DC68002410480028542840000C000064
S1130090007884008478000054385400107C1000E8
S11300A080400000101010000040000060100C00A0
S11300B038543800487C40004864580044542C00AC
S11300C01C107C005C5424003854240064140C007C
S11300D068542C0048543800004800008048000050
S11300E0102844002828280044281000045408003C
S11300F038445C00781478007C5428003844280084
S11301007C4438007C5444007C140400384474005B
S11301107C107C00447C440020403C007C106C003B
S11301207C4040007C187C0078103C003844380047
S11301307C1408003844B8007C1468004854240037
S1130140047C04007C407C003C603C007C307C00EF
S11301506C106C000C700C0064544C00007C440067
S11301600C106000447C00000804080080808000BB
S113017000040800304878007C48300030484800CB
S113018030487C00306850001078140090A8780043
S11301907C08700050744000808074007C106800FB
S11301A0447C4000781078007808700030483000B3
S11301B0F82810003048F80078100800505828003B
S11301C0083C4800384078003840380078207800EF
S11301D04830480098A07800486858001078840097
S11301E0007C00008478100008040804000000006B
S11301F00000005F00000007000700147F147F1454
S1130200242A7F2A12231308646236495522500097
S113021005030000001C2241000041221C00082AA2
S11302201C2A0808083E0808005030000008080886
S11302300808006060000020100804023E5149458F
S11302403E00427F400042615149462141454B31C5
S11302501814127F1027454545393C4A4949300155
S1130260710905033649494936064949291E0036AC
S113027036000000563600000008142241141414FD
S1130280141441221408000201510906324979412B
S11302903E7E1111117E7F494949363E414141223A
S11302A07F4141221C7F494949417F090901013E9F
S11302B0414151327F0808087F00417F41002040BE
S11302C0413F017F081422417F404040407F0204A7
S11302D0027F7F0408107F3E4141413E7F090909A6
S11302E0063E4151215E7F09192946464949493153
S11302F001017F01013F4040403F1F2040201F7FFC
S11303002018207F631408146303047804036151E4
S113031049454300007F4141020408102041417FC8
S11303200000040201020440404040400001020475
S11303300020545454787F4844443838444444207A
S1130340384444487F3854545418087E090102083C
S11303501454543C7F0804047800447D4000204039
S1130360443D00007F10284400417F40007C041875
S113037004787C0804047838444444387C14141405
S113038008081414187C7C080404084854545420A5
S1130390043F4440203C4040207C1C2040201C3C26
S11303A04030403C44281028440C5050503C446495
S11303B0544C44000836410000007F0000004136E0
S11303C00800020103020100000000000000000018
S11303D0065F5F060000000007070007070000141F
S11303E07F7F147F7F1400242E6B6B3A120000462B
S11303F06630180C666200307A4F5D377A48000424
S113040007030000000000001C3E634100000000E0
S113041041633E1C000000082A3E1C1C3E2A0808BA
S1130420083E3E0808000000A0E06000000000084C
S11304300808080808000000006060000000006070
S113044030180C060301003E7F594D7F3E000042E8
S1130450427F7F40400000627359496F660000226A
S11304606349497F360000181C16137F7F1000274C
S11304706745457D3900003C7E4B497930000003D7
S11304806371190F070000367F49497F3600000663
S11304904F49693F1E000000006C6C000000000022
S11304A0A0EC6C00000000081C366341000000143E
S11304B014141414140000004163361C08000002D4
S11304C00351590F0600003E7F415D5D1F1E007CF5
S11304D07E13137E7C0000417F7F49497F36001CD8
S11304E03E634141632200417F7F41637F1C0041A1
S11304F07F7F495D416300417F7F491D0103001CEB
S11305003E6341517372007F7F08087F7F000000C3
S1130510417F7F41000000307040417F3F01004136
S11305207F7F081C776300417F7F41406070007FBC
S11305307F060C067F7F007F7F060C187F7F001CE0
S11305403E6341633E1C00417F7F49090F06001E44
S11305503F21717F5E0000417F7F19396F4600267D
S1130560674D597B32000003417F7F410300007FC8
S11305707F40407F7F00001F3F60603F1F00007F7F
S11305807F3018307F7F0063771C081C7763000777
S11305904F78784F0700006773594D476371000027
S11305A07F7F41410000000103060C183060000009
S11305B041417F7F000000080C0603060C08008000
S11305C08080808080808000000307040000002079
S11305D07454543C784000413F7F44447C38003894
S11305E07C44446C280000307848493F7F40003800
S11305F07C54545C180000487E7F49030200009834
S1130600BCA4A4F87C0400417F7F08047C7800002B
S1130610447D7D4000000040C484FD7D0000004115
S11306207F7F10386C440000417F7F400000007CD5
S11306307C0C180C7C78007C7C04047C78000038EA
S11306407C44447C38000084FCF8A4243C18001842
S11306503C24A4F8FC8400447C78441C1800004822
S11306605C54547424000000043E7F442400003C85
S11306707C40403C7C40001C3C60603C1C00003CD6
S11306807C6030607C3C00446C3810386C44009CC6
S1130690BCA0A0FC7C00004C64745C4C64000008AA
S11306A0083E7741410000000000777700000041D8
S11306B041773E0808000002030103020301000021
S11306C011241FBECFEFD4E0DEBFCDBF11E0A0E008
S11306D0B1E0E8E7F2E102C005900D92AA31B1075A
S11306E0D9F721E0AAE1B1E001C01D92A432B2071A
S11306F0E1F70E9490040C943A090C94000081B331
S1130700806181BB80E480938B0089E080938A00C0
S11307101092870010928600089588B3846088BB85
S113072087B387BB089580930012089580930010C7
S113073008958EEA0E94960381EA0E9496038AED48
S11307400E94960382E10E94960388EC0E9496031D
S113075088EA0E9496038FE30E94960385ED0E9427
S1130760960380E80E94960381E80E94960380E540
S11307700E94960389ED0E94960381E20E949603EB
S113078080E20E94960382E00E9496038BED0E9411
S1130790960380E30E9496038DEA0E94960380E00C
S11307A00E94960384EA0E94960386EA0E949603B6
S11307B08FEA0E94960308958770806B0E949603C7
S11307C00895CF93C82F8F700E9496038C2F829523
S11307D08F7080610E949603CF910895CF93C62FA6
S11307E00E94DC038C2F0E94E103CF91089560E006
S11307F080E00E94EE030895CF930E94DC03C0E0E2
S113080004C080E00E949303CF5FCC23D4F7CF9140
S11308100895CF93C0E004C08C2F0E94FC03CF5FE7
S1130820C830D0F30E94F703CF9108950F931F931C
S1130830CF93DF93182F062FC82FD0E01F928F93EA
S11308401F928F9386E091E09F938F930E941805E7
S113085010520F900F900F900F900F900F90103632
S113086008F042C0043091F0083029F13AC0FE018A
S1130870B097EE0FFF1FEE0FFF1FE10FF11DE059C0
S1130880FF4F84910E9493031F5F01C010E0143056
S113089070F32AC0FE01B097EE0FFF1FEE0FFF1F8B
S11308A0EE0FFF1FE10FF11DE953FC4F84910E94ED
S11308B093031F5F01C010E0183060F315C0CE0130
S11308C08097FC01EE0FFF1FEE0FFF1FE80FF91FCB
S11308D0E10FF11DE451FE4F84910E9493031F5FC9
S11308E001C010E0153058F3DF91CF911F910F91A3
S11308F008950F931F93CF93DF938C01C0E0D0E052
S113090004C065E00E9416042196F801EC0FFD1F57
S113091080818111F6CFDF91CF911F910F910895BE
S11309208FE190E00E94C0040E94AF040E947F0304
S11309300E948D030E9499030E94090465E080E1EE
S113094091E00E9479042FEF8FE797E021508040D7
S11309509040E1F700C000000E940904EFCF85B782
S1130960806885BF80E280BF08955F9BFECF8CB115
S113097090E008955D9BFECF8CB980E090E00895EF
S113098090BD89B988E18AB98EE880BD65EB74E0D1
S11309908AEB94E00E94CD0408950F931F93CF93A4
S11309A0DF93009731F46115710519F480E090E04C
S11309B03AC08B01EC016EE070E081E090E00E94AF
S11309C00F07FC01892B91F380E88383011511053E
S11309D071F01387028781E8838380911A019091D3
S11309E01B01892B21F4F0931B01E0931A0120973A
S11309F0C9F0D187C08783818260838380911C0181
S1130A0090911D01892B71F4F0931D01E0931C0159
S1130A1080911E0190911F01892B21F4F0931F01F5
S1130A20E0931E01CF01DF91CF911F910F910895A3
S1130A30A0E0B0E0EEE1F5E00C941309AE014B5FE9
S1130A405F4FFA0161917191AF0180911C01909106
S1130A501D010E942E05E2E00C942F09ABE0B0E0EA
S1130A60E4E3F5E00C9403096C017B018A01FC01C9
S1130A7017821682838181FFCCC1CE0101963C018D
S1130A80F6019381F70193FD859193FF81917F0195
S1130A90882309F4BAC1853239F493FD859193FF13
S1130AA081917F01853229F4B60190E00E946908A2
S1130AB0E7CF912C212C312CFFE1F315D8F08B32A8
S1130AC079F038F4803279F08332A1F4232D206157
S1130AD01DC08D3261F0803369F4232D216016C06E
S1130AE0832D8260382EE32DE4603E2E2AC0F32D40
S1130AF0F8601DC037FC2DC020ED280F2A3040F0CF
S1130B008E32B9F436FC81C1232D2064322E19C0F3
S1130B1036FE06C08AE0989E200D1124922E11C044
S1130B20EAE02E9E200D1124222EF32DF0623F2E9A
S1130B3008C08C3621F4832D8068382E02C0883694
S1130B4041F4F70193FD859193FF81917F01811118
S1130B50B3CF982F9F7D9554933028F40C5F1F4F8B
S1130B609FE399830DC0833631F0833771F0833569
S1130B7009F059C021C0F801808189830E5F1F4F9D
S1130B8088248394912C530113C02801F2E04F0E62
S1130B90511CF801A080B18036FE03C0692D70E0BD
S1130BA002C06FEF7FEFC5010E945E084C01820115
S1130BB0F32DFF773F2E16C0280122E0420E511C70
S1130BC0F801A080B18036FE03C0692D70E002C038
S1130BD06FEF7FEFC5010E944C084C01F32DF068C4
S1130BE03F2E820133FC1BC0822D90E088169906AB
S1130BF0B0F4B60180E290E00E9469082A94F4CF30
S1130C00F50137FC859137FE81915F01B60190E0D3
S1130C100E94690821102A9421E0821A9108811403
S1130C20910471F7E8C0843611F0893641F5F80172
S1130C3037FE07C060817181828193810C5F1F4FF1
S1130C4008C060817181072E000C880B990B0E5F20
S1130C501F4FF32DFF763F2E97FF09C09095809587
S1130C60709561957F4F8F4F9F4FF0683F2E2AE01C
S1130C7030E0A3010E94A508882E861845C0853758
S1130C8031F4232D2F7EB22E2AE030E025C0932D9F
S1130C90997FB92E8F36C1F018F4883579F0B5C034
S1130CA0803719F0883721F0B0C0E92FE061BE2EFB
S1130CB0B4FE0DC0FB2DF460BF2E09C034FE0AC083
S1130CC0292F2660B22E06C028E030E005C020E1BE
S1130CD030E002C020E132E0F801B7FE07C06081D5
S1130CE07181828193810C5F1F4F06C06081718185
S1130CF080E090E00E5F1F4FA3010E94A508882E9C
S1130D008618FB2DFF773F2E36FE0DC0232D2E7F38
S1130D10A22E891458F434FE0BC032FC09C0832D72
S1130D208E7EA82E05C0B82CA32C03C0B82C01C0FD
S1130D30B92CA4FE0FC0FE01E80DF11D80818033A3
S1130D4021F49A2D997EA92E09C0A2FE06C0B3945F
S1130D50B39404C08A2D867809F0B394A3FC11C01F
S1130D60A0FE06C0B21488F4280C922C9B180EC066
S1130D70B21460F4B60180E290E00E946908B39472
S1130D80F7CFB21418F42B1802C0982C212CA4FE0F
S1130D9010C0B60180E390E00E946908A2FE17C06B
S1130DA0A1FC03C088E790E002C088E590E0B601AA
S1130DB00CC08A2D867859F0A1FE02C08BE201C0D6
S1130DC080E2A7FC8DE2B60190E00E9469088914D4
S1130DD038F4B60180E390E00E9469089A94F7CF52
S1130DE08A94F301E80DF11D8081B60190E00E9420
S1130DF069088110F5CF222009F442CEB60180E2C1
S1130E0090E00E9469082A94F6CFF60186819781C2
S1130E1002C08FEF9FEF2B96E2E10C941F090F9312
S1130E201F93CF93DF93869F8001879F100D969F1A
S1130E30100D1124C8010E942B07EC01009729F022
S1130E40A80160E070E00E945708CE01DF91CF91C5
S1130E501F910F9108950F931F93CF93DF938230C7
S1130E60910510F482E090E0E0912201F0912301D9
S1130E7020E030E0A0E0B0E0309719F140815181EA
S1130E800281138148175907C8F08417950769F43C
S1130E90109731F012960C93129713961C9327C057
S1130EA0009322011093230122C02115310519F06A
S1130EB04217530718F49A01BD01EF01DF01F8014D
S1130EC0DBCF21153105F9F0281B390B243031050E
S1130ED080F48A819B816115710521F0FB01938364
S1130EE0828304C09093230180932201FE013296F1
S1130EF044C0FE01E20FF31F819391932250310904
S1130F00398328833AC02091200130912101232B79
S1130F1041F4209102013091030130932101209387
S1130F20200120910001309101012115310541F486
S1130F302DB73EB74091040150910501241B350B98
S1130F40E0912001F0912101E217F307A0F42E1B98
S1130F503F0B2817390778F0AC014E5F5F4F241719
S1130F60350748F04E0F5F1F509321014093200135
S1130F708193919302C0E0E0F0E0CF01DF91CF9143
S1130F801F910F910895CF93DF93009709F481C0C7
S1130F90FC01329713821282A0912201B0912301A5
S1130FA0109781F420813181820F931F20912001B9
S1130FB0309121012817390751F5F0932101E0936D
S1130FC0200167C0ED0120E030E0CE17DF0740F4D8
S1130FD04A815B819E0141155105F1F0EA01F5CF8B
S1130FE0D383C28340815181840F951FC817D907C9
S1130FF059F488819981840F951F02969183808387
S11310008A819B81938382832115310529F4F0938E
S11310102301E09322013DC0E901FB83EA83499166
S11310205991C40FD51FEC17FD0761F4808191819C
S1131030840F951F0296E9019983888382819381A5
S11310409B838A83E0E0F0E012968D919C91139744
S1131050009719F0FD01DC01F7CF8D919C91119758
S11310609D012E5F3F4F820F931F209120013091ED
S113107021012817390769F4309729F410922301C4
S11310801092220102C013821282B0932101A09314
S11310902001DF91CF910895FC01059061507040CB
S11310A00110D8F7809590958E0F9F1F0895DC014D
S11310B001C06D9341505040E0F70895FC01615028
S11310C0704001900110D8F7809590958E0F9F1F66
S11310D008950F931F93CF93DF93FB01238121FD89
S11310E003C08FEF9FEF2CC022FF16C046815781AB
S11310F0248135814217530744F4A081B1819D01B5
S11311002F5F3F4F318320838C93268137812F5F5C
S11311103F4F3783268314C08B01EC01FB0100840D
S1131120F185E02D0995892BE1F6D80116968D916C
S11311309C911797019617969C938E931697CE01C0
S1131140DF91CF911F910F910895FA01AA272830BA
S113115051F1203181F1E8946F936E7F6E5F7F4F80
S11311608F4F9F4FAF4FB1E03ED0B4E03CD0670FFC
S1131170781F891F9A1FA11D680F791F8A1F911D4F
S1131180A11D6A0F711D811D911DA11D20D009F49F
S113119068943F912AE0269F11243019305D3193E1
S11311A0DEF6CF010895462F4770405D4193B3E0CA
S11311B00FD0C9F7F6CF462F4F70405D4A3318F071
S11311C0495D31FD4052419302D0A9F7EACFB4E022
S11311D0A6959795879577956795BA95C9F70097DA
S11311E06105710508959B01AC010A2E069457957B
S11311F0479537952795BA95C9F7620F731F841FD2
S1131200951FA01D08952F923F924F925F926F9267
S11312107F928F929F92AF92BF92CF92DF92EF9282
S1131220FF920F931F93CF93DF93CDB7DEB7CA1B03
S1131230DB0B0FB6F894DEBF0FBECDBF09942A882E
S1131240398848885F846E847D848C849B84AA84D6
S1131250B984C884DF80EE80FD800C811B81AA8163
S1131260B981CE0FD11D0FB6F894DEBF0FBECDBF2E
S10B1270ED010895F894FFCF8D
S11312780000240120002563203D2025640D0A0078
S10D128854657374203A2820000016
S9030000FC
