S00D00004E6F6465312E7372656360
S11300000C9438000C9455000C9455000C94550035
S11300100C9455000C9455000C9455000C94550008
S11300200C9455000C9455000C9455000C945500F8
S11300300C9455000C9455000C9455000C945500E8
S11300400C9455000C9455000C9455000C945500D8
S11300500C9455000C9455000C9455000C945500C8
S11300600C9455000C9455000C9455000C945500B8
S113007011241FBECFEFD4E0DEBFCDBF11E0A0E05E
S1130080B1E0E0E8F4E002C005900D92A830B107B9
S1130090D9F721E0A8E0B1E001C01D92A231B20776
S11300A0E1F70E9465000C943E020C94000081B3B9
S11300B0806181BB80E480938B0089E080938A0017
S11300C0109287001092860008958FE190E00E94BC
S11300D0A2000E9492000E945700E0910601F09154
S11300E0070110828CEC94E00197F1F700C0000046
S11300F0E0910601F091070180818CEC94E0019776
S1130100F1F700C00000E0910601F0910701818140
S11301109FEF2FE781E0915020408040E1F700C03D
S113012000C0DBCF80E885BF80E280BF08955F9B7D
S1130130FECF8CB190E008955D9BFECF8CB980E03A
S113014090E0089590BD89B988E18AB98EE880BDB0
S113015067E970E08CE990E00E94AF0008950F9386
S11301601F93CF93DF93009731F46115710519F450
S113017080E090E03AC08B01EC016EE070E081E039
S113018090E00E94FA00FC01892B91F380E88383BC
S11301900115110571F01387028781E8838380912B
S11301A0080190910901892B21F4F0930901E0934E
S11301B008012097C9F0D187C08783818260838337
S11301C080910A0190910B01892B71F4F0930B013A
S11301D0E0930A0180910C0190910D01892B21F487
S11301E0F0930D01E0930C01CF01DF91CF911F91AA
S11301F00F9108950F931F93CF93DF93869F8001F0
S1130200879F100D969F100D1124C8010E9416019E
S1130210EC01009729F0A80160E070E00E94370229
S1130220CE01DF91CF911F910F9108950F931F93EA
S1130230CF93DF938230910510F482E090E0E09157
S11302401001F091110120E030E0A0E0B0E030971F
S113025019F1408151810281138148175907C8F06F
S11302608417950769F4109731F012960C9312973E
S113027013961C9327C0009310011093110122C000
S11302802115310519F04217530718F49A01BD01DD
S1130290EF01DF01F801DBCF21153105F9F0281B4F
S11302A0390B2430310580F48A819B8161157105F5
S11302B021F0FB019383828304C090931101809306
S11302C01001FE01329644C0FE01E20FF31F819338
S11302D0919322503109398328833AC020910E0129
S11302E030910F01232B41F420910201309103013D
S11302F030930F0120930E012091000130910101F0
S11303002115310541F42DB73EB7409104015091B8
S11303100501241B350BE0910E01F0910F01E2174A
S1130320F307A0F42E1B3F0B2817390778F0AC0114
S11303304E5F5F4F2417350748F04E0F5F1F5093F1
S11303400F0140930E018193919302C0E0E0F0E02D
S1130350CF01DF91CF911F910F910895CF93DF9338
S1130360009709F481C0FC01329713821282A09194
S11303701001B0911101109781F420813181820F15
S1130380931F20910E0130910F012817390751F561
S1130390F0930F01E0930E0167C0ED0120E030E01F
S11303A0CE17DF0740F44A815B819E014115510558
S11303B0F1F0EA01F5CFD383C28340815181840FE8
S11303C0951FC817D90759F488819981840F951FFF
S11303D00296918380838A819B81938382832115F2
S11303E0310529F4F0931101E09310013DC0E901B6
S11303F0FB83EA8349915991C40FD51FEC17FD077C
S113040061F480819181840F951F0296E90199839B
S11304108883828193819B838A83E0E0F0E0129653
S11304208D919C911397009719F0FD01DC01F7CF92
S11304308D919C9111979D012E5F3F4F820F931FC9
S113044020910E0130910F012817390769F4309774
S113045029F4109211011092100102C01382128229
S1130460B0930F01A0930E01DF91CF910895DC01A9
S113047001C06D9341505040E0F70895F894FFCFC8
S10B0480000012012000001429
S9030000FC
