S00D00004E6F6465312E7372656360
S11300000C9460030C947D030C947D030C947D0389
S11300100C947D030C947D030C947D030C947D035C
S11300200C947D030C947D030C947D030C947D034C
S11300300C947D030C947D030C947D030C947D033C
S11300400C947D030C947D030C947D030C947D032C
S11300500C947D030C947D030C947D030C947D031C
S11300600C947D030C947D030C947D030C947D030C
S113007000000000005C00000C000C007C287C28C0
S113008058DC68002410480028542840000C000064
S1130090007884008478000054385400107C1000E8
S11300A080400000101010000040000060100C00A0
S11300B038543800487C40004864580044542C00AC
S11300C01C107C005C5424003854240064140C007C
S11300D068542C0048543800004800008048000050
S11300E0102844002828280044281000045408003C
S11300F038445C00781478007C5428003844280084
S11301007C4438007C5444007C140400384474005B
S11301107C107C00447C440020403C007C106C003B
S11301207C4040007C187C0078103C003844380047
S11301307C1408003844B8007C1468004854240037
S1130140047C04007C407C003C603C007C307C00EF
S11301506C106C000C700C0064544C00007C440067
S11301600C106000447C00000804080080808000BB
S113017000040800304878007C48300030484800CB
S113018030487C00306850001078140090A8780043
S11301907C08700050744000808074007C106800FB
S11301A0447C4000781078007808700030483000B3
S11301B0F82810003048F80078100800505828003B
S11301C0083C4800384078003840380078207800EF
S11301D04830480098A07800486858001078840097
S11301E0007C00008478100008040804000000006B
S11301F00000005F00000007000700147F147F1454
S1130200242A7F2A12231308646236495522500097
S113021005030000001C2241000041221C00082AA2
S11302201C2A0808083E0808005030000008080886
S11302300808006060000020100804023E5149458F
S11302403E00427F400042615149462141454B31C5
S11302501814127F1027454545393C4A4949300155
S1130260710905033649494936064949291E0036AC
S113027036000000563600000008142241141414FD
S1130280141441221408000201510906324979412B
S11302903E7E1111117E7F494949363E414141223A
S11302A07F4141221C7F494949417F090901013E9F
S11302B0414151327F0808087F00417F41002040BE
S11302C0413F017F081422417F404040407F0204A7
S11302D0027F7F0408107F3E4141413E7F090909A6
S11302E0063E4151215E7F09192946464949493153
S11302F001017F01013F4040403F1F2040201F7FFC
S11303002018207F631408146303047804036151E4
S113031049454300007F4141020408102041417FC8
S11303200000040201020440404040400001020475
S11303300020545454787F4844443838444444207A
S1130340384444487F3854545418087E090102083C
S11303501454543C7F0804047800447D4000204039
S1130360443D00007F10284400417F40007C041875
S113037004787C0804047838444444387C14141405
S113038008081414187C7C080404084854545420A5
S1130390043F4440203C4040207C1C2040201C3C26
S11303A04030403C44281028440C5050503C446495
S11303B0544C44000836410000007F0000004136E0
S11303C00800020103020100000000000000000018
S11303D0065F5F060000000007070007070000141F
S11303E07F7F147F7F1400242E6B6B3A120000462B
S11303F06630180C666200307A4F5D377A48000424
S113040007030000000000001C3E634100000000E0
S113041041633E1C000000082A3E1C1C3E2A0808BA
S1130420083E3E0808000000A0E06000000000084C
S11304300808080808000000006060000000006070
S113044030180C060301003E7F594D7F3E000042E8
S1130450427F7F40400000627359496F660000226A
S11304606349497F360000181C16137F7F1000274C
S11304706745457D3900003C7E4B497930000003D7
S11304806371190F070000367F49497F3600000663
S11304904F49693F1E000000006C6C000000000022
S11304A0A0EC6C00000000081C366341000000143E
S11304B014141414140000004163361C08000002D4
S11304C00351590F0600003E7F415D5D1F1E007CF5
S11304D07E13137E7C0000417F7F49497F36001CD8
S11304E03E634141632200417F7F41637F1C0041A1
S11304F07F7F495D416300417F7F491D0103001CEB
S11305003E6341517372007F7F08087F7F000000C3
S1130510417F7F41000000307040417F3F01004136
S11305207F7F081C776300417F7F41406070007FBC
S11305307F060C067F7F007F7F060C187F7F001CE0
S11305403E6341633E1C00417F7F49090F06001E44
S11305503F21717F5E0000417F7F19396F4600267D
S1130560674D597B32000003417F7F410300007FC8
S11305707F40407F7F00001F3F60603F1F00007F7F
S11305807F3018307F7F0063771C081C7763000777
S11305904F78784F0700006773594D476371000027
S11305A07F7F41410000000103060C183060000009
S11305B041417F7F000000080C0603060C08008000
S11305C08080808080808000000307040000002079
S11305D07454543C784000413F7F44447C38003894
S11305E07C44446C280000307848493F7F40003800
S11305F07C54545C180000487E7F49030200009834
S1130600BCA4A4F87C0400417F7F08047C7800002B
S1130610447D7D4000000040C484FD7D0000004115
S11306207F7F10386C440000417F7F400000007CD5
S11306307C0C180C7C78007C7C04047C78000038EA
S11306407C44447C38000084FCF8A4243C18001842
S11306503C24A4F8FC8400447C78441C1800004822
S11306605C54547424000000043E7F442400003C85
S11306707C40403C7C40001C3C60603C1C00003CD6
S11306807C6030607C3C00446C3810386C44009CC6
S1130690BCA0A0FC7C00004C64745C4C64000008AA
S11306A0083E7741410000000000777700000041D8
S11306B041773E0808000002030103020301000021
S11306C011241FBECFEFD4E0DEBFCDBF12E0A0E007
S11306D0B1E0ECEBF9E102C005900D92A83EB10740
S11306E0D9F723E0A8EEB2E001C01D92AB38B207FF
S11306F0E1F70E9404050C94DC0C0C94000081B317
S1130700806181BB80E480938B0089E080938A00C0
S1130710109287001092860008951092001497E2B8
S11307209A95F1F70000853040F090E00EC0F90191
S1130730FC5E90812F5F3F4F03C020E030E090E0EB
S1130740482F50E04217530794F7892F08950E94C9
S1130750170608950F931F93CF93DF938C0181E6BF
S11307600E94BA0590E0880F991F880F991F880F7F
S1130770991FF8019183808382E60E94BA05282F8D
S1130780229526952770F80180819181822B91838F
S1130790808385E60E94BA05F8018283C0E0D0E038
S11307A009C08C2F8A590E94BA05F801EC0FFD1F6D
S11307B083832196F801828190E0C817D9078CF3CE
S11307C040E050E061E070E08CE290E00E94EB05D4
S11307D0DF91CF911F910F9108950F931F93CF93A2
S11307E0DF938C01FC016081718176956795769524
S11307F067957695679581E30E94CC05F801608141
S11308006295660F607E82E30E94CC05F8016281E6
S113081085E30E94CC05C0E0D0E009C0F801EC0FEC
S1130820FD1F63818C2F8A5C0E94CC052196F80100
S1130830828190E0C817D9078CF381E890E00E9488
S1130840E205DF91CF911F910F91089588B38460E1
S113085088BB87B387BB0895CF93DF93EC0180E017
S11308600E948D0390E09983888381E00E948D0328
S113087090E09B838A8382E00E948D0390E09D83B5
S11308808C8383E00E948D0390E09F838E8381E0BC
S1130890B29980E08887CE01DF91CF910895EF92DD
S11308A0FF920F931F93CF93DF93CDB7DEB72A97B1
S11308B00FB6F894DEBF0FBECDBFFC01E982FA8209
S11308C00B831C832D833E834F835887162F2981E6
S11308D03A812F57310944E6429FC001439F900D4E
S11308E011242FE730E0B9010E9417087183608357
S11308F06B817C816F577109469FC001479F900DA2
S11309001124B9010E941708738362836D817E816B
S11309106F577109469FC001479F900D1124B9017B
S11309200E941708758364836F8178856F577109F6
S1130930469FC001479F900D1124B9010E941708DA
S1130940778366831087CF012A960FB6F894DEBFAB
S11309500FBECDBFDF91CF911F910F91FF90EF900C
S113096008950F931F93CF93DF93CDB7DEB72A97E4
S11309700FB6F894DEBF0FBECDBF09831A832B8355
S11309803C8389819A818832910564F4893D2FEFF3
S1130990920744F02B813C81283231051CF4293D17
S11309A03F4F04F5AC01992324F444275527481BF1
S11309B0590B6B817C819B01772324F422273327F5
S11309C0261B370B421753072CF01816190664F42C
S11309D082E00FC0421753074CF41616170644F46E
S11309E083E007C080E005C081E003C080E001C06F
S11309F084E02A960FB6F894DEBF0FBECDBFDF9118
S1130A00CF911F910F910895CF93DF93CDB7DEB7A8
S1130A10AA970FB6F894DEBF0FBECDBF8FE190E06A
S1130A200E940A080E94F9070E947F030E9426047C
S1130A300E9405070E9475070E9490060E94A70362
S1130A40CE0101960E942C04E980FA800B811C815E
S1130A502D813E814F81588569857A85CE018196A5
S1130A600E944F048AE0FE01B196DE0111960190C6
S1130A700D928A95E1F709811A812B813C814D8180
S1130A805E816F81788589859A850E94B104182FCB
S1130A900E947507133039F423E0D21621F08FEF4A
S1130AA00E94F90608C0143031F434E0D31619F06A
S1130AB081E00E94F906098501110E94D20682E4B0
S1130AC090E09F8B8E8B84E0888F8981898F8B81C6
S1130AD08A8F0B8F81E08C8FCE0146960E94ED03A6
S1130AE04C8D3B8D2A8D998D888D1F924F931F922B
S1130AF03F931F922F931F929F931F928F938F89DF
S1130B008F938E898F9386E091E09F938F930E94B9
S1130B108A088CE20E94BA050FB6F894DEBF0FBEB5
S1130B20CDBF80FF1CC0CE010B960E94AA032F8567
S1130B309E858D851F922F931F929F931F928F9353
S1130B408C858F938B858F938DE491E09F938F9306
S1130B500E948A080FB6F894DEBF0FBECDBF9FE98E
S1130B6026E831E0915020403040E1F700C0000019
S1130B70D12E66CFCF93C82F88B38F7E88BB83E0F6
S1130B800E94F0078C2F0E94F0070E94F40798B38C
S1130B90906198BBCF910895CF93DF93D82FC62F40
S1130BA088B38F7E88BB82E00E94F0078D2F0E945D
S1130BB0F0078C2F0E94F00788B3806188BBDF9117
S1130BC0CF91089598B39F7E98BB0E94F00788B395
S1130BD0806188BB08951F93CF93DF93182FD62F7E
S1130BE0C42F88B38F7E88BB85E00E94F007812FD5
S1130BF00E94F0078D2F0E94F0078C2F0E94F007AF
S1130C0088B3806188BBDF91CF911F91089588B329
S1130C108F7E88BB80EC0E94F00788B3806188BB1C
S1130C2083EC99E00197F1F700C0000008950E9459
S1130C30EA0787B3806187BB88B3806188BB0E9461
S1130C4007068EE00E94BA05982F907E903869F0CE
S1130C501F928F938CEE91E09F938F930E948A084A
S1130C600F900F900F900F9004C08AE891E00E94BB
S1130C70A00863E08AE20E94CC0561EB89E20E944D
S1130C80CC0565E888E20E94CC0540E050E061E0D4
S1130C9070E08BE290E00E94EB0540E050E061E000
S1130CA070E08CE290E00E94EB0560E08FE00E942F
S1130CB0CC058EE00E94BA05807E29F087EA91E097
S1130CC00E94A00808958EEC91E00E94A008089567
S1130CD087E992E00E94A00860E087E992E00E9420
S1130CE0D3072FE986E891E0215080409040E1F756
S1130CF000C0000008958BEA92E00E94A0080E94C0
S1130D00750760E08BEA92E00E94D3072FE986E83A
S1130D1091E0215080409040E1F700C00000089528
S1130D20CF93DF938AE0E0ECF2E0A1E0B3E001903E
S1130D300D928A95E1F7C8EED2E082E0888F8AEEC0
S1130D4092E0998388838BE0EAECF2E0A3E3B3E0DA
S1130D5001900D928A95E1F788E696E090934D0311
S1130D6080934C03109232038CE193E09D838C8337
S1130D708BE0E5EDF2E0A5E6B3E001900D928A95F3
S1130D80E1F78BE796E090937F0380937E031092C4
S1130D9064038EE493E09F838E8310928003DF913B
S1130DA0CF9108958091E8029091E902E091800347
S1130DB00E2E000CFF0B3196EE0FFF1FE80FF91FEC
S1130DC00190F081E02D00A8F1A9E02D0995089586
S1130DD088235CF0E091E802F091E9029689891792
S1130DE034F48093800381E0089580E0089580E0E6
S1130DF0089590918003890F0E94E80608958093D6
S1130E00001208958093001008958EEA0E9402074C
S1130E1081EA0E9402078AED0E94020782E10E9491
S1130E20020788EC0E94020788EA0E9402078FE307
S1130E300E94020785ED0E94020780E80E940207D3
S1130E4081E80E94020780E50E94020789ED0E9462
S1130E50020781E20E94020780E20E94020782E008
S1130E600E9402078BED0E94020780E30E940207A2
S1130E708DEA0E94020780E00E94020784EA0E9431
S1130E80020786EA0E9402078FEA0E940207089579
S1130E908770806B0E9402070895CF93C82F8F70CC
S1130EA00E9402078C2F82958F7080610E94020736
S1130EB0CF910895CF93C62F0E9448078C2F0E948C
S1130EC04D07CF91089560E080E00E945A0708958D
S1130ED0CF930E944807C0E004C080E00E94FF0650
S1130EE0CF5FCC23D4F7CF910895CF93C0E004C053
S1130EF08C2F0E946807CF5FC830D0F30E9463072D
S1130F00CF910895CF93DF9390EE980F903608F029
S1130F1047C0C82F643099F0683039F13EC0EC2FD7
S1130F20F0E0B097EE0FFF1FEE0FFF1FED0FF11D66
S1130F30E059FF4F84910E94FF06DF5F01C0D0E0BB
S1130F40D43068F32DC0EC2FF0E0B097EE0FFF1F04
S1130F50EE0FFF1FEE0FFF1FED0FF11DE953FC4FC6
S1130F6084910E94FF06DF5F01C0D0E0D83058F3BF
S1130F7017C02C2F30E020523109F901EE0FFF1F6A
S1130F80EE0FFF1FE20FF31FED0FF11DE451FE4FB3
S1130F9084910E94FF06DF5F01C0D0E0D53048F3A2
S1130FA0DF91CF9108950F931F93CF93DF938C011B
S1130FB0C0E0D0E004C065E00E9482072196F801F9
S1130FC0EC0FFD1F80818111F6CFDF91CF911F912E
S1130FD00F91089587B3806A87BB81E58DB9089521
S1130FE08FB9779BFECF089580E00E94F0078FB100
S1130FF0089585B7806885BF80E280BF08955F9BB0
S1131000FECF8CB190E008955D9BFECF8CB980E05B
S113101090E0089590BD89B988E18AB98EE880BDD1
S11310206FEF77E084E098E00E943F08089597FB13
S1131030072E16F4009407D077FD09D00E942B08E0
S113104007FC05D03EF4909581959F4F08957095C7
S113105061957F4F0895AA1BBB1B51E107C0AA1FCE
S1131060BB1FA617B70710F0A61BB70B881F991F45
S11310705A95A9F780959095BC01CD0108950F93D9
S11310801F93CF93DF93009731F46115710519F421
S113109080E090E03AC08B01EC016EE070E081E00A
S11310A090E00E94B10AFC01892B91F380E88383CC
S11310B00115110571F01387028781E883838091FC
S11310C0810390918203892B21F4F0938203E093AE
S11310D081032097C9F0D187C0878381826083838D
S11310E08091830390918403892B71F4F09384039A
S11310F0E09383038091850390918603892B21F4E7
S1131100F0938603E0938503CF01DF91CF911F9184
S11311100F910895A0E0B0E0E0E9F8E00C94B50C7C
S1131120AE014B5F5F4FFA0161917191AF01809104
S11311308303909184030E94D008E2E00C94D10CC4
S11311400F931F93CF93DF93E0918303F091840374
S1131150238121FF1BC08C01D0E0C0E0F801819104
S11311608F016091830370918403DB011896ED91E4
S1131170FC911997882331F00995892B79F3DFEFD6
S1131180CFEFECCF8AE00995892B19F08FEF9FEF11
S113119002C08D2F9C2FDF91CF911F910F91089545
S11311A0ABE0B0E0E6EDF8E00C94A50C6C017B013B
S11311B08A01FC0117821682838181FFCCC1CE0192
S11311C001963C01F6019381F70193FD859193FF0C
S11311D081917F01882309F4BAC1853239F493FDE2
S11311E0859193FF81917F01853229F4B60190E0C6
S11311F00E940B0CE7CF912C212C312CFFE1F3152D
S1131200D8F08B3279F038F4803279F08332A1F45B
S1131210232D20611DC08D3261F0803369F4232DAC
S1131220216016C0832D8260382EE32DE4603E2EAB
S11312302AC0F32DF8601DC037FC2DC020ED280F07
S11312402A3040F08E32B9F436FC81C1232D20645B
S1131250322E19C036FE06C08AE0989E200D112455
S1131260922E11C0EAE02E9E200D1124222EF32D81
S1131270F0623F2E08C08C3621F4832D8068382E0E
S113128002C0883641F4F70193FD859193FF819163
S11312907F018111B3CF982F9F7D9554933028F40B
S11312A00C5F1F4F9FE399830DC0833631F0833762
S11312B071F0833509F059C021C0F8018081898318
S11312C00E5F1F4F88248394912C530113C028016F
S11312D0F2E04F0E511CF801A080B18036FE03C02D
S11312E0692D70E002C06FEF7FEFC5010E94000C12
S11312F04C018201F32DFF773F2E16C0280122E016
S1131300420E511CF801A080B18036FE03C0692D45
S113131070E002C06FEF7FEFC5010E94EE0B4C013D
S1131320F32DF0683F2E820133FC1BC0822D90E028
S113133088169906B0F4B60180E290E00E940B0C86
S11313402A94F4CFF50137FC859137FE81915F0132
S1131350B60190E00E940B0C21102A9421E0821A1D
S113136091088114910471F7E8C0843611F089362C
S113137041F5F80137FE07C0608171818281938154
S11313800C5F1F4F08C060817181072E000C880B11
S1131390990B0E5F1F4FF32DFF763F2E97FF09C069
S11313A090958095709561957F4F8F4F9F4FF06812
S11313B03F2E2AE030E0A3010E94470C882E8618B5
S11313C045C0853731F4232D2F7EB22E2AE030E03C
S11313D025C0932D997FB92E8F36C1F018F4883526
S11313E079F0B5C0803719F0883721F0B0C0E92F03
S11313F0E061BE2EB4FE0DC0FB2DF460BF2E09C00B
S113140034FE0AC0292F2660B22E06C028E030E040
S113141005C020E130E002C020E132E0F801B7FE6F
S113142007C060817181828193810C5F1F4F06C068
S11314306081718180E090E00E5F1F4FA3010E94E4
S1131440470C882E8618FB2DFF773F2E36FE0DC0E5
S1131450232D2E7FA22E891458F434FE0BC032FCA7
S113146009C0832D8E7EA82E05C0B82CA32C03C0E2
S1131470B82C01C0B92CA4FE0FC0FE01E80DF11D6B
S11314808081803321F49A2D997EA92E09C0A2FE71
S113149006C0B394B39404C08A2D867809F0B3943B
S11314A0A3FC11C0A0FE06C0B21488F4280C922C30
S11314B09B180EC0B21460F4B60180E290E00E9462
S11314C00B0CB394F7CFB21418F42B1802C0982C59
S11314D0212CA4FE10C0B60180E390E00E940B0C06
S11314E0A2FE17C0A1FC03C088E790E002C088E513
S11314F090E0B6010CC08A2D867859F0A1FE02C096
S11315008BE201C080E2A7FC8DE2B60190E00E946C
S11315100B0C891438F4B60180E390E00E940B0CA4
S11315209A94F7CF8A94F301E80DF11D8081B601F6
S113153090E00E940B0C8110F5CF222009F442CEDA
S1131540B60180E290E00E940B0C2A94F6CFF601DB
S11315508681978102C08FEF9FEF2B96E2E10C9476
S1131560C10C0F931F93CF93DF93869F8001879FB6
S1131570100D969F100D1124C8010E94CD0AEC0194
S1131580009729F0A80160E070E00E94F90BCE01F9
S1131590DF91CF911F910F9108950F931F93CF93D4
S11315A0DF938230910510F482E090E0E0918903AA
S11315B0F0918A0320E030E0A0E0B0E0309719F128
S11315C0408151810281138148175907C8F084175B
S11315D0950769F4109731F012960C9312971396AD
S11315E01C9327C00093890310938A0322C02115FA
S11315F0310519F04217530718F49A01BD01EF01A0
S1131600DF01F801DBCF21153105F9F0281B390B77
S11316102430310580F48A819B816115710521F0A4
S1131620FB019383828304C090938A03809389038C
S1131630FE01329644C0FE01E20FF31F81939193A1
S113164022503109398328833AC02091870330918D
S11316508803232B41F4209102013091030130933C
S11316608803209387032091000130910101211503
S1131670310541F42DB73EB7409104015091050165
S1131680241B350BE0918703F0918803E217F307DD
S1131690A0F42E1B3F0B2817390778F0AC014E5FDE
S11316A05F4F2417350748F04E0F5F1F5093880390
S11316B0409387038193919302C0E0E0F0E0CF016F
S11316C0DF91CF911F910F910895CF93DF930097EE
S11316D009F481C0FC01329713821282A09189031C
S11316E0B0918A03109781F420813181820F931F76
S11316F020918703309188032817390751F5F09317
S11317008803E093870367C0ED0120E030E0CE1743
S1131710DF0740F44A815B819E0141155105F1F0D8
S1131720EA01F5CFD383C28340815181840F951F91
S1131730C817D90759F488819981840F951F029697
S1131740918380838A819B819383828321153105D0
S113175029F4F0938A03E09389033DC0E901FB83F4
S1131760EA8349915991C40FD51FEC17FD0761F421
S113177080819181840F951F0296E9019983888362
S1131780828193819B838A83E0E0F0E012968D91BD
S11317909C911397009719F0FD01DC01F7CF8D910F
S11317A09C9111979D012E5F3F4F820F931F2091B3
S11317B08703309188032817390769F4309729F48F
S11317C010928A031092890302C013821282B0938A
S11317D08803A0938703DF91CF910895FC010590BE
S11317E0615070400110D8F7809590958E0F9F1F1F
S11317F00895DC0101C06D9341505040E0F7089515
S1131800FC016150704001900110D8F780959095CB
S11318108E0F9F1F08950F931F93CF93DF93FB01A8
S1131820238121FD03C08FEF9FEF2CC022FF16C040
S113183046815781248135814217530744F4A0819E
S1131840B1819D012F5F3F4F318320838C9326818B
S113185037812F5F3F4F3783268314C08B01EC0100
S1131860FB010084F185E02D0995892BE1F6D8016F
S113187016968D919C911797019617969C938E932B
S11318801697CE01DF91CF911F910F910895FA0120
S1131890AA27283051F1203181F1E8946F936E7FAB
S11318A06E5F7F4F8F4F9F4FAF4FB1E03ED0B4E09C
S11318B03CD0670F781F891F9A1FA11D680F791FDD
S11318C08A1F911DA11D6A0F711D811D911DA11DEE
S11318D020D009F468943F912AE0269F11243019FE
S11318E0305D3193DEF6CF010895462F4770405D99
S11318F04193B3E00FD0C9F7F6CF462F4F70405D48
S11319004A3318F0495D31FD4052419302D0A9F7A2
S1131910EACFB4E0A6959795879577956795BA959C
S1131920C9F700976105710508959B01AC010A2E62
S113193006945795479537952795BA95C9F7620F39
S1131940731F841F951FA01D08952F923F924F92DD
S11319505F926F927F928F929F92AF92BF92CF923B
S1131960DF92EF92FF920F931F93CF93DF93CDB744
S1131970DEB7CA1BDB0B0FB6F894DEBF0FBECDBFBC
S113198009942A88398848885F846E847D848C848D
S11319909B84AA84B984C884DF80EE80FD800C8196
S11319A01B81AA81B981CE0FD11D0FB6F894DEBF79
S10F19B00FBECDBFED010895F894FFCFE9
S11319BC00008B03200053656E743A2049443A208E
S11319CC25303258202020202D202020204C656EDC
S11319DC3A2025303258202020202D20202020444D
S11319EC61743A2025303258202530325820253065
S11319FC31582025303158200D0A0D0A00526563E8
S1131A0C763A2049443A2025303258202020202D83
S1131A1C202020204C656E3A20253032582020207E
S1131A2C202D202020204461743A20253032582067
S1131A3C25303258200D0A0D0A004D4350323531F1
S1131A4C3520656E746572656420636F6E666967B4
S1131A5C206D6F64650D004552524F523A204D4330
S1131A6C5032353135206973204E4F5420696E2025
S1131A7C6E6F726D616C206D6F6465210D004D434A
S1131A8C503235313520656E7465726564206E6F25
S1131A9C726D616C206D6F64650D00204552524F60
S1131AAC5220253032583A204D43503235313520AE
S1131ABC6973204E4F5420696E20636F6E6669679C
S1131ACC206D6F6465206166746572207265736540
S1131ADC74210D0A00204D43503235313520697381
S1131AEC20776F726B696E67206D792064756465FD
S1131AFC7321203A29200D004552524F523A204D61
S1131B0C43503235313520646964206E6F7420651E
S1131B1C6E746572206C6F6F706261636B206D6F95
S1131B2C64650D004D43503235313520456E746576
S1131B3C726564206C6F6F706261636B206D6F648F
S1131B4C6520422D290D004669727374206D656EF3
S1131B5C752073656C6563746564005365636F6E9F
S1131B6C64206D656E752073656C656374656400C3
S1131B7C4D61696E204D656E7500537562206D65FF
S1131B8C6E75203100537562206D656E75203200C0
S10B1B9C2D3E20002020200052
S9030000FC
