S00D00004E6F6465312E7372656360
S11300000C9460030C947D030C947D030C947D0389
S11300100C947D030C947D030C947D030C947D035C
S11300200C947D030C947D030C947D030C947D034C
S11300300C947D030C947D030C947D030C947D033C
S11300400C947D030C947D030C947D030C947D032C
S11300500C947D030C947D030C947D030C947D031C
S11300600C947D030C947D030C947D030C947D030C
S113007000000000005C00000C000C007C287C28C0
S113008058DC68002410480028542840000C000064
S1130090007884008478000054385400107C1000E8
S11300A080400000101010000040000060100C00A0
S11300B038543800487C40004864580044542C00AC
S11300C01C107C005C5424003854240064140C007C
S11300D068542C0048543800004800008048000050
S11300E0102844002828280044281000045408003C
S11300F038445C00781478007C5428003844280084
S11301007C4438007C5444007C140400384474005B
S11301107C107C00447C440020403C007C106C003B
S11301207C4040007C187C0078103C003844380047
S11301307C1408003844B8007C1468004854240037
S1130140047C04007C407C003C603C007C307C00EF
S11301506C106C000C700C0064544C00007C440067
S11301600C106000447C00000804080080808000BB
S113017000040800304878007C48300030484800CB
S113018030487C00306850001078140090A8780043
S11301907C08700050744000808074007C106800FB
S11301A0447C4000781078007808700030483000B3
S11301B0F82810003048F80078100800505828003B
S11301C0083C4800384078003840380078207800EF
S11301D04830480098A07800486858001078840097
S11301E0007C00008478100008040804000000006B
S11301F00000005F00000007000700147F147F1454
S1130200242A7F2A12231308646236495522500097
S113021005030000001C2241000041221C00082AA2
S11302201C2A0808083E0808005030000008080886
S11302300808006060000020100804023E5149458F
S11302403E00427F400042615149462141454B31C5
S11302501814127F1027454545393C4A4949300155
S1130260710905033649494936064949291E0036AC
S113027036000000563600000008142241141414FD
S1130280141441221408000201510906324979412B
S11302903E7E1111117E7F494949363E414141223A
S11302A07F4141221C7F494949417F090901013E9F
S11302B0414151327F0808087F00417F41002040BE
S11302C0413F017F081422417F404040407F0204A7
S11302D0027F7F0408107F3E4141413E7F090909A6
S11302E0063E4151215E7F09192946464949493153
S11302F001017F01013F4040403F1F2040201F7FFC
S11303002018207F631408146303047804036151E4
S113031049454300007F4141020408102041417FC8
S11303200000040201020440404040400001020475
S11303300020545454787F4844443838444444207A
S1130340384444487F3854545418087E090102083C
S11303501454543C7F0804047800447D4000204039
S1130360443D00007F10284400417F40007C041875
S113037004787C0804047838444444387C14141405
S113038008081414187C7C080404084854545420A5
S1130390043F4440203C4040207C1C2040201C3C26
S11303A04030403C44281028440C5050503C446495
S11303B0544C44000836410000007F0000004136E0
S11303C00800020103020100000000000000000018
S11303D0065F5F060000000007070007070000141F
S11303E07F7F147F7F1400242E6B6B3A120000462B
S11303F06630180C666200307A4F5D377A48000424
S113040007030000000000001C3E634100000000E0
S113041041633E1C000000082A3E1C1C3E2A0808BA
S1130420083E3E0808000000A0E06000000000084C
S11304300808080808000000006060000000006070
S113044030180C060301003E7F594D7F3E000042E8
S1130450427F7F40400000627359496F660000226A
S11304606349497F360000181C16137F7F1000274C
S11304706745457D3900003C7E4B497930000003D7
S11304806371190F070000367F49497F3600000663
S11304904F49693F1E000000006C6C000000000022
S11304A0A0EC6C00000000081C366341000000143E
S11304B014141414140000004163361C08000002D4
S11304C00351590F0600003E7F415D5D1F1E007CF5
S11304D07E13137E7C0000417F7F49497F36001CD8
S11304E03E634141632200417F7F41637F1C0041A1
S11304F07F7F495D416300417F7F491D0103001CEB
S11305003E6341517372007F7F08087F7F000000C3
S1130510417F7F41000000307040417F3F01004136
S11305207F7F081C776300417F7F41406070007FBC
S11305307F060C067F7F007F7F060C187F7F001CE0
S11305403E6341633E1C00417F7F49090F06001E44
S11305503F21717F5E0000417F7F19396F4600267D
S1130560674D597B32000003417F7F410300007FC8
S11305707F40407F7F00001F3F60603F1F00007F7F
S11305807F3018307F7F0063771C081C7763000777
S11305904F78784F0700006773594D476371000027
S11305A07F7F41410000000103060C183060000009
S11305B041417F7F000000080C0603060C08008000
S11305C08080808080808000000307040000002079
S11305D07454543C784000413F7F44447C38003894
S11305E07C44446C280000307848493F7F40003800
S11305F07C54545C180000487E7F49030200009834
S1130600BCA4A4F87C0400417F7F08047C7800002B
S1130610447D7D4000000040C484FD7D0000004115
S11306207F7F10386C440000417F7F400000007CD5
S11306307C0C180C7C78007C7C04047C78000038EA
S11306407C44447C38000084FCF8A4243C18001842
S11306503C24A4F8FC8400447C78441C1800004822
S11306605C54547424000000043E7F442400003C85
S11306707C40403C7C40001C3C60603C1C00003CD6
S11306807C6030607C3C00446C3810386C44009CC6
S1130690BCA0A0FC7C00004C64745C4C64000008AA
S11306A0083E7741410000000000777700000041D8
S11306B041773E0808000002030103020301000021
S11306C011241FBECFEFD4E0DEBFCDBF12E0A0E007
S11306D0B1E0E0E9FEE102C005900D92A23EB1074F
S11306E0D9F723E0A2EEB2E001C01D92AC38B20704
S11306F0E1F70E946B050C94460F0C94000081B343
S1130700806181BB80E480938B0089E080938A00C0
S1130710109287001092860008951092001497E2B8
S11307209A95F1F70000853040F090E00EC0F90191
S1130730FC5E90812F5F3F4F03C020E030E090E0EB
S1130740482F50E04217530794F7892F08950E94C9
S1130750000708950F931F93CF93DF938C0181E6D5
S11307600E94A30690E0880F991F880F991F880F95
S1130770991FF8019183808382E60E94A306282FA3
S1130780229526952770F80180819181822B91838F
S1130790808385E60E94A306F8018283C0E0D0E04E
S11307A009C08C2F8A590E94A306F801EC0FFD1F83
S11307B083832196F801828190E0C817D9078CF3CE
S11307C040E050E061E070E08CE290E00E94D406EA
S11307D0DF91CF911F910F9108950F931F93CF93A2
S11307E0DF938C01FC016081718176956795769524
S11307F067957695679581E30E94B506F801608157
S11308006295660F607E82E30E94B506F8016281FC
S113081085E30E94B506C0E0D0E009C0F801EC0F02
S1130820FD1F63818C2F8A5C0E94B5062196F80116
S1130830828190E0C817D9078CF381E890E00E9488
S1130840CB06DF91CF911F910F91089588B38460F7
S113085088BB87B387BB0895AF92BF92CF92DF92D4
S1130860EF92FF920F931F93CF93DF93CDB7DEB731
S11308702E970FB6F894DEBF0FBECDBF8C0129872B
S11308803A874B875C876D877E8780E00E948D0363
S113089090E09A83898381E00E948D0390E09C8399
S11308A08B8382E00E948D0390E09E838D8383E09E
S11308B00E948D0390E098878F8381E0B29980E055
S11308C08D878EE0FE013196D80101900D928A95B4
S11308D0E1F7C8012E960FB6F894DEBF0FBECDBF68
S11308E0DF91CF911F910F91FF90EF90DF90CF9008
S11308F0BF90AF900895AF92BF92CF92DF92EF92E4
S1130900FF920F931F93CF93DF93CDB7DEB72E974C
S11309100FB6F894DEBF0FBECDBFFC01A982BA8228
S1130920CB82DC82ED82FE820F8318876D8729815A
S11309303A812F57310944E6429FC001439F900DED
S1130940112468E770E00E94510A80859185681B34
S1130950790B71836083653671052CF084E690E031
S11309609183808307C06C397F4F24F48CE99FEF17
S1130970918380832B813C812F57310944E6429F28
S1130980C001439F900D112468E770E00E94510A52
S113099082859385681B790B738362836536710541
S11309A02CF084E690E09383828307C06C397F4FF8
S11309B024F48CE99FEF938382832D813E812F570A
S11309C0310944E6429FC001439F900D11240FE773
S11309D010E0B8010E94510A758364832F81388521
S11309E02F573109429FC001439F900D1124B80134
S11309F00E94510A778366838D858487CF012E9662
S1130A000FB6F894DEBF0FBECDBFDF91CF911F911B
S1130A100F91FF90EF90DF90CF90BF90AF9008952B
S1130A20CF92DF92EF92FF920F931F93CF93DF93B6
S1130A30CDB7DEB72E970FB6F894DEBF0FBECDBF8D
S1130A40C982DA82EB82FC8289819A81883291059B
S1130A5064F4893D2FEF920744F02B813C812832C6
S1130A6031051CF4293D3F4F04F5AC01992324F4CE
S1130A7044275527481B590B6B817C819B017723A5
S1130A8024F422273327261B370B421753072CF055
S1130A901816190664F482E00FC0421753074CF489
S1130AA01616170644F483E007C080E005C081E011
S1130AB003C080E001C084E02E960FB6F894DEBF38
S1130AC00FBECDBFDF91CF911F910F91FF90EF909B
S1130AD0DF90CF900895CF93DF93CDB7DEB7E6973D
S1130AE00FB6F894DEBF0FBECDBF8FE190E00E9439
S1130AF0440A0E94330A0E947F030E9426040E9433
S1130B0037090E94A7090E949D080E94A703A98093
S1130B10BA80CB80DC80ED80FE800F81188529852A
S1130B203A854B855C856D857E85CE0101960E9454
S1130B302C04A980BA80CB80DC80ED80FE800F81FC
S1130B40188529853A854B855C856D857E85CE0122
S1130B5085960E947B048EE0FE01B596DE01119617
S1130B6001900D928A95E1F7812C1BAA1CAA1DAA5B
S1130B701EAA412C512C3201A980BA80CB80DC8082
S1130B80ED80FE800F81188529853A854B855C852B
S1130B906D857E85CE0185960E942C048EE0FE0133
S1130BA0B596DE01119601900D928A95E1F7A98020
S1130BB0BA80CB80DC80ED80FE800F81188529858A
S1130BC03A854B855C856D857E85CE0185960E9430
S1130BD07B048EE0FE01B596DE01119601900D9224
S1130BE08A95E1F7C980DA80EB80FC800D811E8153
S1130BF02F81388549855A856B857C858D859E85B1
S1130C000E941005182F0E94A709133039F423E01D
S1130C10321621F08FEF0E94190908C0143031F404
S1130C2034E0331619F081E00E9419092D8581E022
S1130C3090E0992011F080E090E030E0822393234B
S1130C40892B51F00E942809882319F00E94E60894
S1130C5005C00E94EE0802C00E941F099D8482E420
S1130C6090E09B8F8A8F84E08C8F89818D8F8B811C
S1130C708E8F9F8E8091E502817088A3CE014A9663
S1130C800E94ED0348A13F8D2E8D9D8D8C8D1F926A
S1130C904F931F923F931F922F931F929F931F92E4
S1130CA08F938B8D8F938A8D8F9386E091E09F93A2
S1130CB08F930E94C40A8CE20E94A3060FB6F89494
S1130CC0DEBF0FBECDBF80FF07C0CE010F960E94CE
S1130CD0AA038A898170882E8091E50280FF31C041
S1130CE05FEF451A550A650A750A21E04BA95CA90C
S1130CF06DA97EA9465F5F4F6F4F7F4F4415550521
S1130D006605770508F020E091E04BA95CA96DA980
S1130D107EA9441655066606770608F090E0922BE5
S1130D2049F09091E2029F5F9093E2024BAA5CAA81
S1130D306DAA7EAA882029F08E7F8093E5020E9406
S1130D40E608312E19CFCF93C82F88B38F7E88BB86
S1130D5083E00E942A0A8C2F0E942A0A0E942E0AEB
S1130D6098B3906198BBCF910895CF93DF93D82F18
S1130D70C62F88B38F7E88BB82E00E942A0A8D2FFB
S1130D800E942A0A8C2F0E942A0A88B3806188BB99
S1130D90DF91CF91089598B39F7E98BB0E942A0A51
S1130DA088B3806188BB08951F93CF93DF93182F76
S1130DB0D62FC42F88B38F7E88BB85E00E942A0A71
S1130DC0812F0E942A0A8D2F0E942A0A8C2F0E94AA
S1130DD02A0A88B3806188BBDF91CF911F9108955F
S1130DE088B38F7E88BB80EC0E942A0A88B3806116
S1130DF088BB83EC99E00197F1F700C000000895E7
S1130E000E94240A87B3806187BB88B3806188BB52
S1130E100E94F0068EE00E94A306982F907E9038E0
S1130E2069F01F928F938FEA91E09F938F930E94B2
S1130E30C40A0F900F900F900F9004C08DE491E0BE
S1130E400E94DA0A63E08AE20E94B50661EB89E255
S1130E500E94B50665E888E20E94B50640E050E0CD
S1130E6061E070E08BE290E00E94D40640E050E044
S1130E7061E070E08CE290E00E94D40660E08FE0D4
S1130E800E94B5068EE00E94A306807E29F08AE6C1
S1130E9091E00E94DA0A089581E991E00E94DA0A59
S1130EA008950F931F93CF93DF93CDB7DEB7609769
S1130EB00FB6F894DEBF0FBECDBF8AE592E00E9464
S1130EC0DA0A60E080E00E948C0960E08EE692E03D
S1130ED00E94050A8091E50280FD03C08160809331
S1130EE0E5028091E2021F928F9384E892E09F933F
S1130EF08F931F9280E18F938E010F5F1F4F1F937B
S1130F000F930E940A0B60E081E00E948C0960E06C
S1130F10C8010E94050A0FB6F894DEBF0FBECDBF0C
S1130F2060960FB6F894DEBF0FBECDBFDF91CF91B0
S1130F301F910F910895AF92BF92CF92DF92EF92DB
S1130F40FF920F931F93CF93DF93CDB7DEB76A97CA
S1130F500FB6F894DEBF0FBECDBF8EE892E00E94BC
S1130F60DA0A0E94A70960E080E00E948C0960E030
S1130F7084EA92E00E94050A60E081E00E948C0904
S1130F800F2EF3EEAF2EF2E0BF2EF02DF50180818F
S1130F901F928F930F2EF3EBEF2EF2E0FF2EF02D26
S1130FA0FF92EF921F920F2EFAE0DF2EF02DDF92C8
S1130FB08E010F5F1F4F1F930F930E940A0B60E077
S1130FC0C8010E94050A60E082E00E948C09F501D4
S1130FD081811F928F93FF92EF921F92DF921F9352
S1130FE00F930E940A0B60E0C8010E94050A60E0AA
S1130FF083E00E948C09F50182811F928F93FF92F6
S1131000EF921F92DF921F930F930E940A0B60E0EE
S1131010C8010E94050A0FB6F894DEBF0FBECDBF0B
S113102000E010E026C0F801ED51FD4F8081780109
S11310309FEFE91AF90A1F928F93FF92EF928FEABA
S113104092E09F938F931F9280E18F936E01EBE068
S1131050CE0ED11CDF92CF920E940A0B61E0600F8A
S1131060C6010E94050A0FB6F894DEBF0FBECDBFBD
S1131070870103301105BCF26A960FB6F894DEBFFF
S11310800FBECDBFDF91CF911F910F91FF90EF90D5
S1131090DF90CF90BF90AF9008950F931F93CF939D
S11310A0DF930E9495098091E6029091E70260E047
S11310B047960E94050A60E081E00E948C09C0E026
S11310C0D0E02BC080918103082E000C990BC81727
S11310D0D90731F460E086EB92E00E94050A05C06E
S11310E060E08AEB92E00E94050AE091E602F0914A
S11310F0E7028E010F5F1F4FC801880F991FE80F89
S1131100F91F8081918160E047960E94050A60E0A2
S11311108C2F8E5F0E948C09E801E091E602F09129
S1131120E7028689082E000C990B8C179D0754F64C
S1131130DF91CF911F910F910895CF93DF9389E1B0
S1131140E8ECF2E0AFEFB2E001900D928A95E1F79E
S1131150C6EED2E08DE498E09BAB8AAB82E0888F48
S113116088EE92E0998388838AE0EEEBF2E0A2E3D2
S1131170B3E001900D928A95E1F781E597E09093B1
S11311804C0380934B03109231038BE193E09D83D6
S11311908C838BE0E4EAF2E0A5E6B3E001900D92E3
S11311A08A95E1F78BE997E090937F0380937E0320
S11311B01092640381E0809380038EE493E09F8324
S11311C08E8310928103DF91CF91089588EE92E08F
S11311D09093E7028093E60281E00895A091E602ED
S11311E0B091E70256968C915697882381F0E0914E
S11311F081030E2E000CFF0B3196EE0FFF1FEA0F3A
S1131200FB1F808191819093E7028093E602089509
S113121088235CF0E091E602F091E7029689891751
S113122034F48093810381E0089580E0089580E0A0
S1131230089590918103890F0E9408090895E0910F
S1131240E602F091E70200A8F1A9E02D09950895BE
S1131250E091E602F091E70282A9813009F080E092
S113126008958093001208958093001008958EEAE3
S11312700E94340981EA0E9434098AED0E943409EB
S113128082E10E94340988EC0E94340988EA0E94B1
S113129034098FE30E94340985ED0E94340980E803
S11312A00E94340981E80E94340980E50E943409CF
S11312B089ED0E94340981E20E94340980E20E948F
S11312C0340982E00E9434098BED0E94340980E3E2
S11312D00E9434098DEA0E94340980E00E94340996
S11312E084EA0E94340986EA0E9434098FEA0E9443
S11312F0340908958770806B0E9434090895CF9350
S1131300C82F8F700E9434098C2F82958F70806152
S11313100E943409CF910895CF93C62F0E947A0971
S11313208C2F0E947F09CF91089560E080E00E9495
S11313308C090895CF930E947A09C0E004C080E02C
S11313400E943109CF5FCC23D4F7CF910895CF9376
S1131350C0E004C08C2F0E949A09CF5FC830D0F33C
S11313600E949509CF910895CF93DF9390EE980F43
S1131370903608F047C0C82F643099F0683039F1CE
S11313803EC0EC2FF0E0B097EE0FFF1FEE0FFF1FF3
S1131390ED0FF11DE059FF4F84910E943109DF5F89
S11313A001C0D0E0D43068F32DC0EC2FF0E0B0974A
S11313B0EE0FFF1FEE0FFF1FEE0FFF1FED0FF11DCE
S11313C0E953FC4F84910E943109DF5F01C0D0E0F2
S11313D0D83058F317C02C2F30E020523109F901CE
S11313E0EE0FFF1FEE0FFF1FE20FF31FED0FF11DB6
S11313F0E451FE4F84910E943109DF5F01C0D0E0C7
S1131400D53048F3DF91CF910895EF92FF921F9367
S1131410CF93DF937C01162F643019F0683009F004
S113142015E0C0E0D0E004C0612F0E94B409219609
S1131430F701EC0FFD1F80818111F6CFDF91CF9171
S11314401F91FF90EF90089587B3806A87BB81E571
S11314508DB908958FB9779BFECF089580E00E94DF
S11314602A0A8FB1089585B7806885BF80E280BF5E
S113147008955F9BFECF8CB190E008955D9BFECFF5
S11314808CB980E090E0089590BD89B988E18AB96B
S11314908EE880BD69E37AE08EE39AE00E94790ADF
S11314A0089597FB072E16F4009407D077FD09D012
S11314B00E94650A07FC05D03EF4909581959F4FE4
S11314C00895709561957F4F0895AA1BBB1B51E148
S11314D007C0AA1FBB1FA617B70710F0A61BB70BA0
S11314E0881F991F5A95A9F780959095BC01CD0145
S11314F008950F931F93CF93DF93009731F46115F1
S1131500710519F480E090E03AC08B01EC016EE0C3
S113151070E081E090E00E941B0DFC01892B91F3A7
S113152080E883830115110571F01387028781E830
S113153083838091820390918303892B21F4F09318
S11315408303E09382032097C9F0D187C087838106
S1131550826083838091840390918503892B71F445
S1131560F0938503E093840380918603909187032D
S1131570892B21F4F0938703E0938603CF01DF9155
S1131580CF911F910F910895A0E0B0E0EAECFAE04A
S11315900C941F0FAE014B5F5F4FFA016191719183
S11315A0AF0180918403909185030E943A0BE2E09D
S11315B00C943B0F0F931F93CF93DF93E09184031D
S11315C0F0918503238121FF1BC08C01D0E0C0E092
S11315D0F80181918F016091840370918503DB018F
S11315E01896ED91FC911997882331F00995892B70
S11315F079F3DFEFCFEFECCF8AE00995892B19F06F
S11316008FEF9FEF02C08D2F9C2FDF91CF911F9101
S11316100F910895AEE0B0E0E0E1FBE00C941D0F03
S11316200D891E898F89988D26E02C831A8309835E
S113163097FF02C080E090E801979E838D83AE01FE
S1131640455E5F4F698D7A8DCE0101960E943A0BFB
S11316504D815E8157FD0AC02F813885421753079B
S11316600CF49A01F801E20FF31F10822E96E4E0C5
S11316700C94390FABE0B0E0E0E4FBE00C940F0F06
S11316806C017B018A01FC0117821682838181FF30
S1131690CCC1CE0101963C01F6019381F70193FD83
S11316A0859193FF81917F01882309F4BAC1853222
S11316B039F493FD859193FF81917F01853229F45B
S11316C0B60190E00E94750EE7CF912C212C312CAD
S11316D0FFE1F315D8F08B3279F038F4803279F0E9
S11316E08332A1F4232D20611DC08D3261F080333B
S11316F069F4232D216016C0832D8260382EE32DDA
S1131700E4603E2E2AC0F32DF8601DC037FC2DC0C6
S113171020ED280F2A3040F08E32B9F436FC81C116
S1131720232D2064322E19C036FE06C08AE0989E0E
S1131730200D1124922E11C0EAE02E9E200D1124BA
S1131740222EF32DF0623F2E08C08C3621F4832D17
S11317508068382E02C0883641F4F70193FD8591E4
S113176093FF81917F018111B3CF982F9F7D955471
S1131770933028F40C5F1F4F9FE399830DC0833689
S113178031F0833771F0833509F059C021C0F80175
S1131790808189830E5F1F4F88248394912C530189
S11317A013C02801F2E04F0E511CF801A080B18053
S11317B036FE03C0692D70E002C06FEF7FEFC501F4
S11317C00E946A0E4C018201F32DFF773F2E16C052
S11317D0280122E0420E511CF801A080B18036FE9F
S11317E003C0692D70E002C06FEF7FEFC5010E9456
S11317F0580E4C01F32DF0683F2E820133FC1BC0C0
S1131800822D90E088169906B0F4B60180E290E04B
S11318100E94750E2A94F4CFF50137FC859137FEAA
S113182081915F01B60190E00E94750E21102A9407
S113183021E0821A91088114910471F7E8C084367A
S113184011F0893641F5F80137FE07C060817181D6
S1131850828193810C5F1F4F08C060817181072EC4
S1131860000C880B990B0E5F1F4FF32DFF763F2E54
S113187097FF09C090958095709561957F4F8F4F24
S11318809F4FF0683F2E2AE030E0A3010E94B10E82
S1131890882E861845C0853731F4232D2F7EB22E2D
S11318A02AE030E025C0932D997FB92E8F36C1F000
S11318B018F4883579F0B5C0803719F0883721F0ED
S11318C0B0C0E92FE061BE2EB4FE0DC0FB2DF46064
S11318D0BF2E09C034FE0AC0292F2660B22E06C0CE
S11318E028E030E005C020E130E002C020E132E031
S11318F0F801B7FE07C060817181828193810C5F1A
S11319001F4F06C06081718180E090E00E5F1F4F21
S1131910A3010E94B10E882E8618FB2DFF773F2E5F
S113192036FE0DC0232D2E7FA22E891458F434FECA
S11319300BC032FC09C0832D8E7EA82E05C0B82CA6
S1131940A32C03C0B82C01C0B92CA4FE0FC0FE0107
S1131950E80DF11D8081803321F49A2D997EA92E02
S113196009C0A2FE06C0B394B39404C08A2D86783D
S113197009F0B394A3FC11C0A0FE06C0B21488F40D
S1131980280C922C9B180EC0B21460F4B60180E2AD
S113199090E00E94750EB394F7CFB21418F42B188C
S11319A002C0982C212CA4FE10C0B60180E390E064
S11319B00E94750EA2FE17C0A1FC03C088E790E048
S11319C002C088E590E0B6010CC08A2D867859F0F3
S11319D0A1FE02C08BE201C080E2A7FC8DE2B60149
S11319E090E00E94750E891438F4B60180E390E00B
S11319F00E94750E9A94F7CF8A94F301E80DF11DB5
S1131A008081B60190E00E94750E8110F5CF2220EE
S1131A1009F442CEB60180E290E00E94750E2A9449
S1131A20F6CFF6018681978102C08FEF9FEF2B9648
S1131A30E2E10C942B0F0F931F93CF93DF93869FB8
S1131A408001879F100D969F100D1124C8010E94DC
S1131A50370DEC01009729F0A80160E070E00E94C6
S1131A60630ECE01DF91CF911F910F9108950F93D3
S1131A701F93CF93DF938230910510F482E090E0BE
S1131A80E0918A03F0918B0320E030E0A0E0B0E025
S1131A90309719F140815181028113814817590708
S1131AA0C8F08417950769F4109731F012960C93D7
S1131AB0129713961C9327C000938A0310938B03E9
S1131AC022C02115310519F04217530718F49A0161
S1131AD0BD01EF01DF01F801DBCF21153105F9F07C
S1131AE0281B390B2430310580F48A819B816115D0
S1131AF0710521F0FB019383828304C090938B03CF
S1131B0080938A03FE01329644C0FE01E20FF31F64
S1131B108193919322503109398328833AC02091CB
S1131B20880330918903232B41F4209102013091E1
S1131B30030130938903209388032091000130919D
S1131B4001012115310541F42DB73EB7409104013F
S1131B5050910501241B350BE0918803F091890312
S1131B60E217F307A0F42E1B3F0B2817390778F070
S1131B70AC014E5F5F4F2417350748F04E0F5F1FCF
S1131B8050938903409388038193919302C0E0E0CA
S1131B90F0E0CF01DF91CF911F910F910895CF9382
S1131BA0DF93009709F481C0FC01329713821282FB
S1131BB0A0918A03B0918B03109781F42081318125
S1131BC0820F931F209188033091890328173907C6
S1131BD051F5F0938903E093880367C0ED0120E099
S1131BE030E0CE17DF0740F44A815B819E01411546
S1131BF05105F1F0EA01F5CFD383C28340815181CD
S1131C00840F951FC817D90759F488819981840FC7
S1131C10951F0296918380838A819B81938382831B
S1131C202115310529F4F0938B03E0938A033DC019
S1131C30E901FB83EA8349915991C40FD51FEC173D
S1131C40FD0761F480819181840F951F0296E9015B
S1131C5099838883828193819B838A83E0E0F0E087
S1131C6012968D919C911397009719F0FD01DC0158
S1131C70F7CF8D919C9111979D012E5F3F4F820F5D
S1131C80931F20918803309189032817390769F439
S1131C90309729F410928B0310928A0302C01382A6
S1131CA01282B0938903A0938803DF91CF910895A2
S1131CB0FC010590615070400110D8F78095909513
S1131CC08E0F9F1F0895DC0101C06D934150504059
S1131CD0E0F70895FC016150704001900110D8F7BD
S1131CE0809590958E0F9F1F08950F931F93CF9308
S1131CF0DF93FB01238121FD03C08FEF9FEF2CC0F5
S1131D0022FF16C04681578124813581421753072B
S1131D1044F4A081B1819D012F5F3F4F3183208323
S1131D208C93268137812F5F3F4F3783268314C0DE
S1131D308B01EC01FB010084F185E02D0995892BD1
S1131D40E1F6D80116968D919C91179701961796F6
S1131D509C938E931697CE01DF91CF911F910F9193
S1131D600895FA01AA27283051F1203181F1E8942D
S1131D706F936E7F6E5F7F4F8F4F9F4FAF4FB1E07A
S1131D803ED0B4E03CD0670F781F891F9A1FA11D75
S1131D90680F791F8A1F911DA11D6A0F711D811D76
S1131DA0911DA11D20D009F468943F912AE0269F3B
S1131DB011243019305D3193DEF6CF010895462F9A
S1131DC04770405D4193B3E00FD0C9F7F6CF462F7B
S1131DD04F70405D4A3318F0495D31FD40524193E4
S1131DE002D0A9F7EACFB4E0A695979587957795A1
S1131DF06795BA95C9F700976105710508959B0128
S1131E00AC010A2E06945795479537952795BA95B0
S1131E10C9F7620F731F841F951FA01D08952F9289
S1131E203F924F925F926F927F928F929F92AF9266
S1131E30BF92CF92DF92EF92FF920F931F93CF93B3
S1131E40DF93CDB7DEB7CA1BDB0B0FB6F894DEBF4A
S1131E500FBECDBF09942A88398848885F846E8470
S1131E607D848C849B84AA84B984C884DF80EE80BA
S1131E70FD800C811B81AA81B981CE0FD11D0FB6C3
S1131E80F894DEBF0FBECDBFED010895F894FFCFE7
S1131E9000008C03200053656E743A2049443A20B4
S1131EA025303258202020202D202020204C656E03
S1131EB03A2025303258202020202D202020204474
S1131EC061743A202530325820253032582025308C
S1131ED031582025303158200D0A0D0A004D435049
S1131EE03235313520656E746572656420636F6EBA
S1131EF0666967206D6F64650D004552524F523A12
S1131F00204D435032353135206973204E4F5420D3
S1131F10696E206E6F726D616C206D6F6465210D4A
S1131F20004D43503235313520656E7465726564F9
S1131F30206E6F726D616C206D6F64650D002045BD
S1131F4052524F5220253032583A204D43503235A8
S1131F503135206973204E4F5420696E20636F6EB3
S1131F60666967206D6F64652061667465722072AE
S1131F7065736574210D0A00204D435032353135A7
S1131F8020697320776F726B696E67206D792064A6
S1131F907564657321203A29200D004552524F5231
S1131FA03A204D43503235313520646964206E6FD8
S1131FB07420656E746572206C6F6F706261636B00
S1131FC0206D6F64650D004D435032353135204529
S1131FD06E7465726564206C6F6F706261636B20F0
S1131FE06D6F646520422D290D004669727374205B
S1131FF06D656E752073656C65637465640020207F
S113200020202047616D6520696E2070726F6772B1
S11320106573730053636F72653A202575005365C9
S1132020636F6E64206D656E752073656C65637493
S113203065640D004869676853636F7265730025B2
S1132040643A202575002D3E200020202000506C8D
S113205061792047616D650050696E6720506F6E2D
S1132060672053696D756C61746F72203330303042
S105207000006A
S9030000FC
