S00D00004E6F6465312E7372656360
S11300000C9460030C947D030C947D030C947D0389
S11300100C947D030C947D030C947D030C947D035C
S11300200C947D030C947D030C947D030C947D034C
S11300300C947D030C947D030C947D030C947D033C
S11300400C947D030C947D030C947D030C947D032C
S11300500C947D030C947D030C947D030C947D031C
S11300600C947D030C947D030C947D030C947D030C
S113007000000000005C00000C000C007C287C28C0
S113008058DC68002410480028542840000C000064
S1130090007884008478000054385400107C1000E8
S11300A080400000101010000040000060100C00A0
S11300B038543800487C40004864580044542C00AC
S11300C01C107C005C5424003854240064140C007C
S11300D068542C0048543800004800008048000050
S11300E0102844002828280044281000045408003C
S11300F038445C00781478007C5428003844280084
S11301007C4438007C5444007C140400384474005B
S11301107C107C00447C440020403C007C106C003B
S11301207C4040007C187C0078103C003844380047
S11301307C1408003844B8007C1468004854240037
S1130140047C04007C407C003C603C007C307C00EF
S11301506C106C000C700C0064544C00007C440067
S11301600C106000447C00000804080080808000BB
S113017000040800304878007C48300030484800CB
S113018030487C00306850001078140090A8780043
S11301907C08700050744000808074007C106800FB
S11301A0447C4000781078007808700030483000B3
S11301B0F82810003048F80078100800505828003B
S11301C0083C4800384078003840380078207800EF
S11301D04830480098A07800486858001078840097
S11301E0007C00008478100008040804000000006B
S11301F00000005F00000007000700147F147F1454
S1130200242A7F2A12231308646236495522500097
S113021005030000001C2241000041221C00082AA2
S11302201C2A0808083E0808005030000008080886
S11302300808006060000020100804023E5149458F
S11302403E00427F400042615149462141454B31C5
S11302501814127F1027454545393C4A4949300155
S1130260710905033649494936064949291E0036AC
S113027036000000563600000008142241141414FD
S1130280141441221408000201510906324979412B
S11302903E7E1111117E7F494949363E414141223A
S11302A07F4141221C7F494949417F090901013E9F
S11302B0414151327F0808087F00417F41002040BE
S11302C0413F017F081422417F404040407F0204A7
S11302D0027F7F0408107F3E4141413E7F090909A6
S11302E0063E4151215E7F09192946464949493153
S11302F001017F01013F4040403F1F2040201F7FFC
S11303002018207F631408146303047804036151E4
S113031049454300007F4141020408102041417FC8
S11303200000040201020440404040400001020475
S11303300020545454787F4844443838444444207A
S1130340384444487F3854545418087E090102083C
S11303501454543C7F0804047800447D4000204039
S1130360443D00007F10284400417F40007C041875
S113037004787C0804047838444444387C14141405
S113038008081414187C7C080404084854545420A5
S1130390043F4440203C4040207C1C2040201C3C26
S11303A04030403C44281028440C5050503C446495
S11303B0544C44000836410000007F0000004136E0
S11303C00800020103020100000000000000000018
S11303D0065F5F060000000007070007070000141F
S11303E07F7F147F7F1400242E6B6B3A120000462B
S11303F06630180C666200307A4F5D377A48000424
S113040007030000000000001C3E634100000000E0
S113041041633E1C000000082A3E1C1C3E2A0808BA
S1130420083E3E0808000000A0E06000000000084C
S11304300808080808000000006060000000006070
S113044030180C060301003E7F594D7F3E000042E8
S1130450427F7F40400000627359496F660000226A
S11304606349497F360000181C16137F7F1000274C
S11304706745457D3900003C7E4B497930000003D7
S11304806371190F070000367F49497F3600000663
S11304904F49693F1E000000006C6C000000000022
S11304A0A0EC6C00000000081C366341000000143E
S11304B014141414140000004163361C08000002D4
S11304C00351590F0600003E7F415D5D1F1E007CF5
S11304D07E13137E7C0000417F7F49497F36001CD8
S11304E03E634141632200417F7F41637F1C0041A1
S11304F07F7F495D416300417F7F491D0103001CEB
S11305003E6341517372007F7F08087F7F000000C3
S1130510417F7F41000000307040417F3F01004136
S11305207F7F081C776300417F7F41406070007FBC
S11305307F060C067F7F007F7F060C187F7F001CE0
S11305403E6341633E1C00417F7F49090F06001E44
S11305503F21717F5E0000417F7F19396F4600267D
S1130560674D597B32000003417F7F410300007FC8
S11305707F40407F7F00001F3F60603F1F00007F7F
S11305807F3018307F7F0063771C081C7763000777
S11305904F78784F0700006773594D476371000027
S11305A07F7F41410000000103060C183060000009
S11305B041417F7F000000080C0603060C08008000
S11305C08080808080808000000307040000002079
S11305D07454543C784000413F7F44447C38003894
S11305E07C44446C280000307848493F7F40003800
S11305F07C54545C180000487E7F49030200009834
S1130600BCA4A4F87C0400417F7F08047C7800002B
S1130610447D7D4000000040C484FD7D0000004115
S11306207F7F10386C440000417F7F400000007CD5
S11306307C0C180C7C78007C7C04047C78000038EA
S11306407C44447C38000084FCF8A4243C18001842
S11306503C24A4F8FC8400447C78441C1800004822
S11306605C54547424000000043E7F442400003C85
S11306707C40403C7C40001C3C60603C1C00003CD6
S11306807C6030607C3C00446C3810386C44009CC6
S1130690BCA0A0FC7C00004C64745C4C64000008AA
S11306A0083E7741410000000000777700000041D8
S11306B041773E0808000002030103020301000021
S11306C011241FBECFEFD4E0DEBFCDBF12E0A0E007
S11306D0B1E0EAE7F9E102C005900D92AC3AB10746
S11306E0D9F723E0ACEAB2E001C01D92AF34B207FF
S11306F0E1F70E9404050C94BB0C0C94000081B338
S1130700806181BB80E480938B0089E080938A00C0
S1130710109287001092860008951092001497E2B8
S11307209A95F1F70000853040F090E00EC0F90191
S1130730FC5E90812F5F3F4F03C020E030E090E0EB
S1130740482F50E04217530794F7892F08950E94C9
S1130750F60508950F931F93CF93DF938C0181E6E1
S11307600E94990590E0880F991F880F991F880FA0
S1130770991FF8019183808382E60E949905282FAE
S1130780229526952770F80180819181822B91838F
S1130790808385E60E949905F8018283C0E0D0E059
S11307A009C08C2F8A590E949905F801EC0FFD1F8E
S11307B083832196F801828190E0C817D9078CF3CE
S11307C040E050E061E070E08CE290E00E94CA05F5
S11307D0DF91CF911F910F9108950F931F93CF93A2
S11307E0DF938C01FC016081718176956795769524
S11307F067957695679581E30E94AB05F801608162
S11308006295660F607E82E30E94AB05F801628107
S113081085E30E94AB05C0E0D0E009C0F801EC0F0D
S1130820FD1F63818C2F8A5C0E94AB052196F80121
S1130830828190E0C817D9078CF381E890E00E9488
S1130840C105DF91CF911F910F91089588B3846002
S113085088BB87B387BB0895CF93DF93EC0180E017
S11308600E948D0390E09983888381E00E948D0328
S113087090E09B838A8382E00E948D0390E09D83B5
S11308808C8383E00E948D0390E09F838E8381E0BC
S1130890B29980E08887CE01DF91CF910895EF92DD
S11308A0FF920F931F93CF93DF93CDB7DEB72A97B1
S11308B00FB6F894DEBF0FBECDBFFC01E982FA8209
S11308C00B831C832D833E834F835887162F2981E6
S11308D03A812F57310944E6429FC001439F900D4E
S11308E011242FE730E0B9010E94F6077183608379
S11308F06B817C816F577109469FC001479F900DA2
S11309001124B9010E94F607738362836D817E818D
S11309106F577109469FC001479F900D1124B9017B
S11309200E94F607758364836F8178856F57710918
S1130930469FC001479F900D1124B9010E94F607FC
S1130940778366831087CF012A960FB6F894DEBFAB
S11309500FBECDBFDF91CF911F910F91FF90EF900C
S113096008950F931F93CF93DF93CDB7DEB72A97E4
S11309700FB6F894DEBF0FBECDBF09831A832B8355
S11309803C8389819A818832910564F4893D2FEFF3
S1130990920744F02B813C81283231051CF4293D17
S11309A03F4F04F5AC01992324F444275527481BF1
S11309B0590B6B817C819B01772324F422273327F5
S11309C0261B370B421753072CF01816190664F42C
S11309D082E00FC0421753074CF41616170644F46E
S11309E083E007C080E005C081E003C080E001C06F
S11309F084E02A960FB6F894DEBF0FBECDBFDF9118
S1130A00CF911F910F910895CF93DF93CDB7DEB7A8
S1130A10AA970FB6F894DEBF0FBECDBF8FE190E06A
S1130A200E94E9070E94D8070E947F030E942604BF
S1130A300E94E4060E9454070E946F060E94A703C6
S1130A40CE0101960E942C04E980FA800B811C815E
S1130A502D813E814F81588569857A85CE018196A5
S1130A600E944F048AE0FE01B196DE0111960190C6
S1130A700D928A95E1F709811A812B813C814D8180
S1130A805E816F81788589859A850E94B104182FCB
S1130A900E945407133039F423E0D21621F08FEF6B
S1130AA00E94D80608C0143031F434E0D31619F08B
S1130AB081E00E94D806098501110E94B10682E4F2
S1130AC090E09F8B8E8B84E0888F8981898F8B81C6
S1130AD08A8F0B8F81E08C8FCE0146960E94ED03A6
S1130AE04C8D3B8D2A8D998D888D1F924F931F922B
S1130AF03F931F922F931F929F931F928F938F89DF
S1130B008F938E898F9386E091E09F938F930E94B9
S1130B1069088CE20E9499050FB6F894DEBF0FBEF7
S1130B20CDBF80FF04C0CE010B960E94AA03D12E34
S1130B3087CFCF93C82F88B38F7E88BB83E00E9472
S1130B40CF078C2F0E94CF070E94D30798B39061E0
S1130B5098BBCF910895CF93DF93D82FC62F88B336
S1130B608F7E88BB82E00E94CF078D2F0E94CF0723
S1130B708C2F0E94CF0788B3806188BBDF91CF910F
S1130B80089598B39F7E98BB0E94CF0788B3806175
S1130B9088BB08951F93CF93DF93182FD62FC42FAC
S1130BA088B38F7E88BB85E00E94CF07812F0E9487
S1130BB0CF078D2F0E94CF078C2F0E94CF0788B3B9
S1130BC0806188BBDF91CF911F91089588B38F7E98
S1130BD088BB80EC0E94CF0788B3806188BB83EC1C
S1130BE099E00197F1F700C0000008950E94C90739
S1130BF087B3806187BB88B3806188BB0E94E605A8
S1130C008EE00E949905982F907E903869F01F928B
S1130C108F938FEA91E09F938F930E9469080F90BE
S1130C200F900F900F9004C08DE491E00E947F0814
S1130C3063E08AE20E94AB0561EB89E20E94AB05A6
S1130C4065E888E20E94AB0540E050E061E070E0B6
S1130C508BE290E00E94CA0540E050E061E070E061
S1130C608CE290E00E94CA0560E08FE00E94AB0530
S1130C708EE00E949905807E29F08AE691E00E9428
S1130C807F08089581E991E00E947F0808958AE52C
S1130C9092E00E947F0860E08AE592E00E94B20739
S1130CA02FE986E891E0215080409040E1F700C0B0
S1130CB0000008958EE692E00E947F080E94540787
S1130CC060E08EE692E00E94B2072FE986E891E0A8
S1130CD0215080409040E1F700C000000895CF9378
S1130CE0DF938AE0E3E8F2E0A5ECB2E001900D9234
S1130CF08A95E1F7CCEAD2E082E0888F8EEA92E02E
S1130D00998388838BE0EDE8F2E0A7EFB2E00190ED
S1130D100D928A95E1F787E496E09093110380930E
S1130D2010031092F60280EE92E09D838C838BE098
S1130D30E8E9F2E0A9E2B3E001900D928A95E1F7C7
S1130D408AE596E09093430380934203109228032C
S1130D5082E193E09F838E8310924403DF91CF91CD
S1130D6008958091AC029091AD02E09144030E2E5F
S1130D70000CFF0B3196EE0FFF1FE80FF91F0190D7
S1130D80F081E02D00A8F1A9E02D099508958823AC
S1130D905CF0E091AC02F091AD029689891734F4CD
S1130DA08093440381E0089580E0089580E00895ED
S1130DB090914403890F0E94C706089580930012FE
S1130DC008958093001008958EEA0E94E10681EA56
S1130DD00E94E1068AED0E94E10682E10E94E1069A
S1130DE088EC0E94E10688EA0E94E1068FE30E94F3
S1130DF0E10685ED0E94E10680E80E94E10681E8B3
S1130E000E94E10680E50E94E10689ED0E94E10668
S1130E1081E20E94E10680E20E94E10682E00E94F3
S1130E20E1068BED0E94E10680E30E94E1068DEA73
S1130E300E94E10680E00E94E10684EA0E94E10645
S1130E4086EA0E94E1068FEA0E94E106089587700F
S1130E50806B0E94E1060895CF93C82F8F700E9483
S1130E60E1068C2F82958F7080610E94E106CF91FC
S1130E700895CF93C62F0E9427078C2F0E942C071A
S1130E80CF91089560E080E00E9439070895CF93E0
S1130E900E942707C0E004C080E00E94DE06CF5F06
S1130EA0CC23D4F7CF910895CF93C0E004C08C2F06
S1130EB00E944707CF5FC830D0F30E944207CF910A
S1130EC00895CF93DF9390EE980F903608F047C0C3
S1130ED0C82F643099F0683039F13EC0EC2FF0E04F
S1130EE0B097EE0FFF1FEE0FFF1FED0FF11DE0593E
S1130EF0FF4F84910E94DE06DF5F01C0D0E0D43052
S1130F0068F32DC0EC2FF0E0B097EE0FFF1FEE0F4B
S1130F10FF1FEE0FFF1FED0FF11DE953FC4F8491EE
S1130F200E94DE06DF5F01C0D0E0D83058F317C05E
S1130F302C2F30E020523109F901EE0FFF1FEE0F84
S1130F40FF1FE20FF31FED0FF11DE451FE4F8491DB
S1130F500E94DE06DF5F01C0D0E0D53048F3DF91A8
S1130F60CF9108950F931F93CF93DF938C01C0E02B
S1130F70D0E004C065E00E9461072196F801EC0FFF
S1130F80FD1F80818111F6CFDF91CF911F910F91C9
S1130F90089587B3806A87BB81E58DB908958FB9B9
S1130FA0779BFECF089580E00E94CF078FB108950C
S1130FB085B7806885BF80E280BF08955F9BFECFC0
S1130FC08CB190E008955D9BFECF8CB980E090E0F9
S1130FD0089590BD89B988E18AB98EE880BD6EED27
S1130FE077E083EE97E00E941E08089597FB072E92
S1130FF016F4009407D077FD09D00E940A0807FC74
S113100005D03EF4909581959F4F08957095619514
S11310107F4F0895AA1BBB1B51E107C0AA1FBB1F2A
S1131020A617B70710F0A61BB70B881F991F5A9570
S1131030A9F780959095BC01CD0108950F931F9356
S1131040CF93DF93009731F46115710519F480E0B3
S113105090E03AC08B01EC016EE070E081E090E03A
S11310600E94900AFC01892B91F380E88383011587
S1131070110571F01387028781E88383809145030A
S113108090914603892B21F4F0934603E0934503A2
S11310902097C9F0D187C087838182608383809140
S11310A0470390914803892B71F4F0934803E0932C
S11310B047038091490390914A03892B21F4F093CB
S11310C04A03E0934903CF01DF91CF911F910F9120
S11310D00895A0E0B0E0EFE6F8E00C94940CAE01C3
S11310E04B5F5F4FFA0161917191AF0180914703AA
S11310F0909148030E94AF08E2E00C94B00C0F9367
S11311001F93CF93DF93E0914703F091480323812A
S113111021FF1BC08C01D0E0C0E0F80181918F0158
S11311206091470370914803DB011896ED91FC919F
S11311301997882331F00995892B79F3DFEFCFEFE5
S1131140ECCF8AE00995892B19F08FEF9FEF02C04D
S11311508D2F9C2FDF91CF911F910F910895ABE0BC
S1131160B0E0E5EBF8E00C94840C6C017B018A019F
S1131170FC0117821682838181FFCCC1CE010196C6
S11311803C01F6019381F70193FD859193FF8191D1
S11311907F01882309F4BAC1853239F493FD85911E
S11311A093FF81917F01853229F4B60190E00E947A
S11311B0EA0BE7CF912C212C312CFFE1F315D8F069
S11311C08B3279F038F4803279F08332A1F4232D14
S11311D020611DC08D3261F0803369F4232D2160BC
S11311E016C0832D8260382EE32DE4603E2E2AC083
S11311F0F32DF8601DC037FC2DC020ED280F2A30D8
S113120040F08E32B9F436FC81C1232D2064322E95
S113121019C036FE06C08AE0989E200D1124922E35
S113122011C0EAE02E9E200D1124222EF32DF0622F
S11312303F2E08C08C3621F4832D8068382E02C0DE
S1131240883641F4F70193FD859193FF81917F01E5
S11312508111B3CF982F9F7D9554933028F40C5F60
S11312601F4F9FE399830DC0833631F0833771F0AC
S1131270833509F059C021C0F801808189830E5F4C
S11312801F4F88248394912C530113C02801F2E04A
S11312904F0E511CF801A080B18036FE03C0692DA9
S11312A070E002C06FEF7FEFC5010E94DF0B4C01BD
S11312B08201F32DFF773F2E16C0280122E0420E53
S11312C0511CF801A080B18036FE03C0692D70E086
S11312D002C06FEF7FEFC5010E94CD0B4C01F32DCF
S11312E0F0683F2E820133FC1BC0822D90E08816EB
S11312F09906B0F4B60180E290E00E94EA0B2A94C9
S1131300F4CFF50137FC859137FE81915F01B60179
S113131090E00E94EA0B21102A9421E0821A91089D
S11313208114910471F7E8C0843611F0893641F5CF
S1131330F80137FE07C060817181828193810C5F5F
S11313401F4F08C060817181072E000C880B990B18
S11313500E5F1F4FF32DFF763F2E97FF09C0909528
S11313608095709561957F4F8F4F9F4FF0683F2E0A
S11313702AE030E0A3010E94260C882E861845C07E
S1131380853731F4232D2F7EB22E2AE030E025C09C
S1131390932D997FB92E8F36C1F018F4883579F0E2
S11313A0B5C0803719F0883721F0B0C0E92FE0616B
S11313B0BE2EB4FE0DC0FB2DF460BF2E09C034FE5A
S11313C00AC0292F2660B22E06C028E030E005C0EE
S11313D020E130E002C020E132E0F801B7FE07C0AE
S11313E060817181828193810C5F1F4F06C060818F
S11313F0718180E090E00E5F1F4FA3010E94260CD4
S1131400882E8618FB2DFF773F2E36FE0DC0232D28
S11314102E7FA22E891458F434FE0BC032FC09C06E
S1131420832D8E7EA82E05C0B82CA32C03C0B82C07
S113143001C0B92CA4FE0FC0FE01E80DF11D80818E
S1131440803321F49A2D997EA92E09C0A2FE06C0EC
S1131450B394B39404C08A2D867809F0B394A3FCA2
S113146011C0A0FE06C0B21488F4280C922C9B185C
S11314700EC0B21460F4B60180E290E00E94EA0B60
S1131480B394F7CFB21418F42B1802C0982C212C63
S1131490A4FE10C0B60180E390E00E94EA0BA2FE15
S11314A017C0A1FC03C088E790E002C088E590E083
S11314B0B6010CC08A2D867859F0A1FE02C08BE2D9
S11314C001C080E2A7FC8DE2B60190E00E94EA0B25
S11314D0891438F4B60180E390E00E94EA0B9A94F0
S11314E0F7CF8A94F301E80DF11D8081B60190E0F5
S11314F00E94EA0B8110F5CF222009F442CEB601F6
S113150080E290E00E94EA0B2A94F6CFF6018681ED
S1131510978102C08FEF9FEF2B96E2E10C94A00C11
S11315200F931F93CF93DF93869F8001879F100DA6
S1131530969F100D1124C8010E94AC0AEC0100977B
S113154029F0A80160E070E00E94D80BCE01DF9181
S1131550CF911F910F9108950F931F93CF93DF9312
S11315608230910510F482E090E0E0914D03F09117
S11315704E0320E030E0A0E0B0E0309719F1408164
S113158051810281138148175907C8F084179507C0
S113159069F4109731F012960C93129713961C93DA
S11315A027C000934D0310934E0322C0211531052B
S11315B019F04217530718F49A01BD01EF01DF0136
S11315C0F801DBCF21153105F9F0281B390B243044
S11315D0310580F48A819B816115710521F0FB013D
S11315E09383828304C090934E0380934D03FE0142
S11315F0329644C0FE01E20FF31F8193919322506F
S11316003109398328833AC020914B0330914C032C
S1131610232B41F4209102013091030130934C03B8
S113162020934B03209100013091010121153105D4
S113163041F42DB73EB74091040150910501241B9C
S1131640350BE0914B03F0914C03E217F307A0F440
S11316502E1B3F0B2817390778F0AC014E5F5F4F04
S11316602417350748F04E0F5F1F50934C034093E7
S11316704B038193919302C0E0E0F0E0CF01DF914E
S1131680CF911F910F910895CF93DF93009709F4A1
S113169081C0FC01329713821282A0914D03B09154
S11316A04E03109781F420813181820F931F209182
S11316B04B0330914C032817390751F5F0934C0331
S11316C0E0934B0367C0ED0120E030E0CE17DF0765
S11316D040F44A815B819E0141155105F1F0EA0114
S11316E0F5CFD383C28340815181840F951FC817DE
S11316F0D90759F488819981840F951F02969183A3
S113170080838A819B81938382832115310529F407
S1131710F0934E03E0934D033DC0E901FB83EA835C
S113172049915991C40FD51FEC17FD0761F48081CD
S11317309181840F951F0296E901998388838281A0
S113174093819B838A83E0E0F0E012968D919C91D3
S11317501397009719F0FD01DC01F7CF8D919C914F
S113176011979D012E5F3F4F820F931F20914B03D2
S113177030914C032817390769F4309729F41092F3
S11317804E0310924D0302C013821282B0934C0395
S1131790A0934B03DF91CF910895FC010590615014
S11317A070400110D8F7809590958E0F9F1F089573
S11317B0DC0101C06D9341505040E0F70895FC01F5
S11317C06150704001900110D8F7809590958E0F6C
S11317D09F1F08950F931F93CF93DF93FB012381E2
S11317E021FD03C08FEF9FEF2CC022FF16C046815E
S11317F05781248135814217530744F4A081B18174
S11318009D012F5F3F4F318320838C932681378145
S11318102F5F3F4F3783268314C08B01EC01FB01FC
S11318200084F185E02D0995892BE1F6D8011696FF
S11318308D919C911797019617969C938E9316976A
S1131840CE01DF91CF911F910F910895FA01AA273C
S1131850283051F1203181F1E8946F936E7F6E5FEF
S11318607F4F8F4F9F4FAF4FB1E03ED0B4E03CD09D
S1131870670F781F891F9A1FA11D680F791F8A1F80
S1131880911DA11D6A0F711D811D911DA11D20D0E7
S113189009F468943F912AE0269F11243019305DA1
S11318A03193DEF6CF010895462F4770405D419392
S11318B0B3E00FD0C9F7F6CF462F4F70405D4A33DF
S11318C018F0495D31FD4052419302D0A9F7EACFA7
S11318D0B4E0A6959795879577956795BA95C9F7D6
S11318E000976105710508959B01AC010A2E0694C9
S11318F05795479537952795BA95C9F7620F731F82
S1131900841F951FA01D08952F923F924F925F92BE
S11319106F927F928F929F92AF92BF92CF92DF92FB
S1131920EF92FF920F931F93CF93DF93CDB7DEB760
S1131930CA1BDB0B0FB6F894DEBF0FBECDBF0994F4
S11319402A88398848885F846E847D848C849B844B
S1131950AA84B984C884DF80EE80FD800C811B8159
S1131960AA81B981CE0FD11D0FB6F894DEBF0FBE88
S10D1970CDBFED010895F894FFCFF8
S113197A00004F03200053656E743A2049443A200C
S113198A25303258202020202D202020204C656E1E
S113199A3A2025303258202020202D20202020448F
S11319AA61743A20253032582025303258202530A7
S11319BA31582025303158200D0A0D0A004D435064
S11319CA3235313520656E746572656420636F6ED5
S11319DA666967206D6F64650D004552524F523A2D
S11319EA204D435032353135206973204E4F5420EF
S11319FA696E206E6F726D616C206D6F6465210D66
S1131A0A004D43503235313520656E746572656414
S1131A1A206E6F726D616C206D6F64650D002045D8
S1131A2A52524F5220253032583A204D43503235C3
S1131A3A3135206973204E4F5420696E20636F6ECE
S1131A4A666967206D6F64652061667465722072C9
S1131A5A65736574210D0A00204D435032353135C2
S1131A6A20697320776F726B696E67206D792064C1
S1131A7A7564657321203A29200D004552524F524C
S1131A8A3A204D43503235313520646964206E6FF3
S1131A9A7420656E746572206C6F6F706261636B1B
S1131AAA206D6F64650D004D435032353135204544
S1131ABA6E7465726564206C6F6F706261636B200B
S1131ACA6D6F646520422D290D0046697273742076
S1131ADA6D656E752073656C656374656400536522
S1131AEA636F6E64206D656E752073656C656374CF
S1131AFA6564004D61696E204D656E7500537562AB
S1131B0A206D656E75203100537562206D656E75A2
S10F1B1A2032002D3E200020202000007E
S9030000FC
