S00D00004E6F6465312E7372656360
S11300000C9460030C947D030C947D030C947D0389
S11300100C947D030C947D030C947D030C947D035C
S11300200C947D030C947D030C947D030C947D034C
S11300300C947D030C947D030C947D030C947D033C
S11300400C947D030C947D030C947D030C947D032C
S11300500C947D030C947D030C947D030C947D031C
S11300600C947D030C947D030C947D030C947D030C
S113007000000000005C00000C000C007C287C28C0
S113008058DC68002410480028542840000C000064
S1130090007884008478000054385400107C1000E8
S11300A080400000101010000040000060100C00A0
S11300B038543800487C40004864580044542C00AC
S11300C01C107C005C5424003854240064140C007C
S11300D068542C0048543800004800008048000050
S11300E0102844002828280044281000045408003C
S11300F038445C00781478007C5428003844280084
S11301007C4438007C5444007C140400384474005B
S11301107C107C00447C440020403C007C106C003B
S11301207C4040007C187C0078103C003844380047
S11301307C1408003844B8007C1468004854240037
S1130140047C04007C407C003C603C007C307C00EF
S11301506C106C000C700C0064544C00007C440067
S11301600C106000447C00000804080080808000BB
S113017000040800304878007C48300030484800CB
S113018030487C00306850001078140090A8780043
S11301907C08700050744000808074007C106800FB
S11301A0447C4000781078007808700030483000B3
S11301B0F82810003048F80078100800505828003B
S11301C0083C4800384078003840380078207800EF
S11301D04830480098A07800486858001078840097
S11301E0007C00008478100008040804000000006B
S11301F00000005F00000007000700147F147F1454
S1130200242A7F2A12231308646236495522500097
S113021005030000001C2241000041221C00082AA2
S11302201C2A0808083E0808005030000008080886
S11302300808006060000020100804023E5149458F
S11302403E00427F400042615149462141454B31C5
S11302501814127F1027454545393C4A4949300155
S1130260710905033649494936064949291E0036AC
S113027036000000563600000008142241141414FD
S1130280141441221408000201510906324979412B
S11302903E7E1111117E7F494949363E414141223A
S11302A07F4141221C7F494949417F090901013E9F
S11302B0414151327F0808087F00417F41002040BE
S11302C0413F017F081422417F404040407F0204A7
S11302D0027F7F0408107F3E4141413E7F090909A6
S11302E0063E4151215E7F09192946464949493153
S11302F001017F01013F4040403F1F2040201F7FFC
S11303002018207F631408146303047804036151E4
S113031049454300007F4141020408102041417FC8
S11303200000040201020440404040400001020475
S11303300020545454787F4844443838444444207A
S1130340384444487F3854545418087E090102083C
S11303501454543C7F0804047800447D4000204039
S1130360443D00007F10284400417F40007C041875
S113037004787C0804047838444444387C14141405
S113038008081414187C7C080404084854545420A5
S1130390043F4440203C4040207C1C2040201C3C26
S11303A04030403C44281028440C5050503C446495
S11303B0544C44000836410000007F0000004136E0
S11303C00800020103020100000000000000000018
S11303D0065F5F060000000007070007070000141F
S11303E07F7F147F7F1400242E6B6B3A120000462B
S11303F06630180C666200307A4F5D377A48000424
S113040007030000000000001C3E634100000000E0
S113041041633E1C000000082A3E1C1C3E2A0808BA
S1130420083E3E0808000000A0E06000000000084C
S11304300808080808000000006060000000006070
S113044030180C060301003E7F594D7F3E000042E8
S1130450427F7F40400000627359496F660000226A
S11304606349497F360000181C16137F7F1000274C
S11304706745457D3900003C7E4B497930000003D7
S11304806371190F070000367F49497F3600000663
S11304904F49693F1E000000006C6C000000000022
S11304A0A0EC6C00000000081C366341000000143E
S11304B014141414140000004163361C08000002D4
S11304C00351590F0600003E7F415D5D1F1E007CF5
S11304D07E13137E7C0000417F7F49497F36001CD8
S11304E03E634141632200417F7F41637F1C0041A1
S11304F07F7F495D416300417F7F491D0103001CEB
S11305003E6341517372007F7F08087F7F000000C3
S1130510417F7F41000000307040417F3F01004136
S11305207F7F081C776300417F7F41406070007FBC
S11305307F060C067F7F007F7F060C187F7F001CE0
S11305403E6341633E1C00417F7F49090F06001E44
S11305503F21717F5E0000417F7F19396F4600267D
S1130560674D597B32000003417F7F410300007FC8
S11305707F40407F7F00001F3F60603F1F00007F7F
S11305807F3018307F7F0063771C081C7763000777
S11305904F78784F0700006773594D476371000027
S11305A07F7F41410000000103060C183060000009
S11305B041417F7F000000080C0603060C08008000
S11305C08080808080808000000307040000002079
S11305D07454543C784000413F7F44447C38003894
S11305E07C44446C280000307848493F7F40003800
S11305F07C54545C180000487E7F49030200009834
S1130600BCA4A4F87C0400417F7F08047C7800002B
S1130610447D7D4000000040C484FD7D0000004115
S11306207F7F10386C440000417F7F400000007CD5
S11306307C0C180C7C78007C7C04047C78000038EA
S11306407C44447C38000084FCF8A4243C18001842
S11306503C24A4F8FC8400447C78441C1800004822
S11306605C54547424000000043E7F442400003C85
S11306707C40403C7C40001C3C60603C1C00003CD6
S11306807C6030607C3C00446C3810386C44009CC6
S1130690BCA0A0FC7C00004C64745C4C64000008AA
S11306A0083E7741410000000000777700000041D8
S11306B041773E0808000002030103020301000021
S11306C011241FBECFEFD4E0DEBFCDBF12E0A0E007
S11306D0B1E0E0E8FEE102C005900D92AE3BB10747
S11306E0D9F723E0AEEBB2E001C01D92A836B20701
S11306F0E1F70E9490050C943E0F0C94000081B326
S1130700806181BB80E480938B0089E080938A00C0
S1130710109287001092860008951092001497E2B8
S11307209A95F1F70000853040F090E00EC0F90191
S1130730FC5E90812F5F3F4F03C020E030E090E0EB
S1130740482F50E04217530794F7892F08950E94C9
S11307502E0708950F931F93CF93DF938C0181E6A7
S11307600E94D10690E0880F991F880F991F880F67
S1130770991FF8019183808382E60E94D106282F75
S1130780229526952770F80180819181822B91838F
S1130790808385E60E94D106F8018283C0E0D0E020
S11307A009C08C2F8A590E94D106F801EC0FFD1F55
S11307B083832196F801828190E0C817D9078CF3CE
S11307C040E050E061E070E08CE290E00E940207BB
S11307D0DF91CF911F910F9108950F931F93CF93A2
S11307E0DF938C01FC016081718176956795769524
S11307F067957695679581E30E94E306F801608129
S11308006295660F607E82E30E94E306F8016281CE
S113081085E30E94E306C0E0D0E009C0F801EC0FD4
S1130820FD1F63818C2F8A5C0E94E3062196F801E8
S1130830828190E0C817D9078CF381E890E00E9488
S1130840F906DF91CF911F910F9108959091BF0206
S11308508091BE02981738F4EFEBF2E021812283F5
S11308609183808308959091C002981728F4EFEB48
S1130870F2E09283818308959091C102981718F44D
S11308808093C10208951092BE028091C1028E7FAE
S11308908093C102089588B3846088BB87B387BB03
S11308A00895AF92BF92CF92DF92EF92FF920F938F
S11308B01F93CF93DF93CDB7DEB72E970FB6F8947F
S11308C0DEBF0FBECDBF8C0129873A874B875C877B
S11308D06D877E8780E00E948D0390E09A838983F0
S11308E081E00E948D0390E09C838B8382E00E94D0
S11308F08D0390E09E838D8383E00E948D0390E0BE
S113090098878F8381E0B29980E08D878EE0FE0125
S11309103196D80101900D928A95E1F7C8012E967F
S11309200FB6F894DEBF0FBECDBFDF91CF911F91FC
S11309300F91FF90EF90DF90CF90BF90AF9008950C
S1130940AF92BF92CF92DF92EF92FF920F931F93D9
S1130950CF93DF93CDB7DEB72E970FB6F894DEBFF3
S11309600FBECDBFFC01A982BA82CB82DC82ED82AC
S1130970FE820F8318876D8729813A812F573109A9
S113098044E6429FC001439F900D11246FE770E03D
S11309900E94490A80859185681B790B7183608365
S11309A0653671052CF084E690E09183808307C05E
S11309B06C397F4F24F48CE99FEF918380832B81E2
S11309C03C812F57310944E6429FC001439F900D5B
S11309D011246FE770E00E94490A82859385681BA1
S11309E0790B73836283653671052CF084E690E09D
S11309F09383828307C06C397F4F24F48CE99FEF83
S1130A00938382832D813E812F57310944E6429F8F
S1130A10C001439F900D11240FE710E0B8010E941C
S1130A20490A758364832F8138852F573109429F82
S1130A30C001439F900D1124B8010E94490A778395
S1130A4066838D858487CF012E960FB6F894DEBF1A
S1130A500FBECDBFDF91CF911F910F91FF90EF900B
S1130A60DF90CF90BF90AF900895CF92DF92EF9236
S1130A70FF920F931F93CF93DF93CDB7DEB72E97DB
S1130A800FB6F894DEBF0FBECDBFC982DA82EB8207
S1130A90FC8289819A818832910564F4893D2FEF23
S1130AA0920744F02B813C81283231051CF4293D06
S1130AB03F4F04F5AC01992324F444275527481BE0
S1130AC0590B6B817C819B01772324F422273327E4
S1130AD0261B370B421753072CF01816190664F41B
S1130AE082E00FC0421753074CF41616170644F45D
S1130AF083E007C080E005C081E003C080E001C05E
S1130B0084E02E960FB6F894DEBF0FBECDBFDF9102
S1130B10CF911F910F91FF90EF90DF90CF900895A8
S1130B20CF93DF93CDB7DEB7E6970FB6F894DEBF69
S1130B300FBECDBF8FE190E00E943C0A0E942B0AB9
S1130B400E947F030E944B040E942F090E949F0968
S1130B500E9495080E94A703A980BA80CB80DC80FC
S1130B60ED80FE800F81188529853A854B855C854B
S1130B706D857E85CE0101960E945104A980BA80BC
S1130B80CB80DC80ED80FE800F81188529853A8535
S1130B904B855C856D857E85CE0185960E94A0047B
S1130BA08EE0FE01B596DE01119601900D928A95B4
S1130BB0E1F786E091E09F938F930E94BC0A0F9027
S1130BC00F90812C1BAA1CAA1DAA1EAA412C512CD1
S1130BD03201A980BA80CB80DC80ED80FE800F8159
S1130BE0188529853A854B855C856D857E85CE0182
S1130BF085960E9451048EE0FE01B596DE011196A1
S1130C0001900D928A95E1F7A980BA80CB80DC80AF
S1130C10ED80FE800F81188529853A854B855C859A
S1130C206D857E85CE0185960E94A0048EE0FE012E
S1130C30B596DE01119601900D928A95E1F7C9806F
S1130C40DA80EB80FC800D811E812F8138854985F7
S1130C505A856B857C858D859E850E943505182F68
S1130C600E949F09133039F423E0321621F08FEFEC
S1130C700E94110908C0143031F434E0331619F01D
S1130C8081E00E9411092D8581E090E0992011F006
S1130C9080E090E030E082239323892B51F00E947E
S1130CA02009882319F00E94DE0805C00E94E60886
S1130CB002C00E9417099D8482E490E09B8F8A8F72
S1130CC084E08C8F89818D8F8B818E8F9F8E809114
S1130CD0C102817088A3CE014A960E94ED0348A107
S1130CE03F8D2E8D9D8D8C8D1F924F931F923F9320
S1130CF01F922F931F929F931F928F938B8D8F938D
S1130D008A8D8F9384E191E09F938F930E94BC0A14
S1130D108CE20E94D1060FB6F894DEBF0FBECDBFA1
S1130D2080FF07C0CE010F960E94AA038A898170B2
S1130D30882E8091C10280FF32C05FEF451A550AA8
S1130D40650A750A91E04BA95CA96DA97EA9465F65
S1130D505F4F6F4F7F4F441555056605770508F0C3
S1130D6090E081E02BA93CA94DA95EA94216530647
S1130D706406750608F080E0892B49F08091BE0274
S1130D808F5F8093BE024BAA5CAA6DAA7EAA8820BC
S1130D9031F00E9426041092BE020E94DE08312E19
S1130DA018CFCF93C82F88B38F7E88BB83E00E946F
S1130DB0220A8C2F0E94220A0E94260A98B390616C
S1130DC098BBCF910895CF93DF93D82FC62F88B3C4
S1130DD08F7E88BB82E00E94220A8D2F0E94220A05
S1130DE08C2F0E94220A88B3806188BBDF91CF9147
S1130DF0089598B39F7E98BB0E94220A88B38061AD
S1130E0088BB08951F93CF93DF93182FD62FC42F39
S1130E1088B38F7E88BB85E00E94220A812F0E94BE
S1130E20220A8D2F0E94220A8C2F0E94220A88B344
S1130E30806188BBDF91CF911F91089588B38F7E25
S1130E4088BB80EC0E94220A88B3806188BB83EC53
S1130E5099E00197F1F700C0000008950E941C0A70
S1130E6087B3806187BB88B3806188BB0E941E07FB
S1130E708EE00E94D106982F907E903869F01F92E0
S1130E808F938DEB91E09F938F930E94BC0A0F90F8
S1130E900F900F900F9004C08BE591E00E94D20A4E
S1130EA063E08AE20E94E30661EB89E20E94E306C2
S1130EB065E888E20E94E30640E050E061E070E00B
S1130EC08BE290E00E94020740E050E061E070E0B5
S1130ED08CE290E00E94020760E08FE00E94E3064B
S1130EE08EE00E94D106807E29F088E791E00E947E
S1130EF0D20A08958FE991E00E94D20A08950F93CF
S1130F001F93CF93DF93CDB7DEB760970FB6F894F6
S1130F10DEBF0FBECDBF60E080E00E94840960E0C8
S1130F2088E692E00E94FD098091C10280FD03C021
S1130F3081608093C1028091BE021F928F938EE7DD
S1130F4092E09F938F931F9280E18F938E010F5FA6
S1130F501F4F1F930F930E94020B60E081E00E94D9
S1130F60840960E0C8010E94FD090FB6F894DEBF51
S1130F700FBECDBF60960FB6F894DEBF0FBECDBFD7
S1130F80DF91CF911F910F910895AF92BF92DF929D
S1130F90EF92FF920F931F93CF93DF93CDB7DEB7FA
S1130FA02A970FB6F894DEBF0FBECDBF0E949F09EB
S1130FB060E080E00E94840960E088E892E00E949A
S1130FC0FD0960E081E00E9484090F2EFFEBAF2E43
S1130FD0F2E0BF2EF02DF50180811F928F930F2E2A
S1130FE0F5E8EF2EF2E0FF2EF02DFF92EF921F9224
S1130FF00F2EFAE0DF2EF02DDF928E010F5F1F4FD0
S11310001F930F930E94020B60E0C8010E94FD0928
S113101060E082E00E948409F50181811F928F9330
S1131020FF92EF921F92DF921F930F930E94020B85
S113103060E0C8010E94FD0960E083E00E94840929
S1131040F50182811F928F93FF92EF921F92DF929C
S11310501F930F930E94020B60E0C8010E94FD09D8
S11310600FB6F894DEBF0FBECDBF2A960FB6F89424
S1131070DEBF0FBECDBFDF91CF911F910F91FF90C7
S1131080EF90DF90BF90AF9008950F931F93CF938D
S1131090DF930E948D098091C2029091C30260E0A7
S11310A047960E94FD0960E081E00E948409C0E047
S11310B0D0E02BC080915D03082E000C990BC8175B
S11310C0D90731F460E083E992E00E94FD0905C08C
S11310D060E087E992E00E94FD09E091C202F0918C
S11310E0C3028E010F5F1F4FC801880F991FE80FBD
S11310F0F91F8081918160E047960E94FD0960E0BC
S11311008C2F8E5F0E948409E801E091C202F09165
S1131110C3028689082E000C990B8C179D0754F680
S1131120DF91CF911F910F910895CF93DF9389E1C0
S1131130E5EAF2E0ABEDB2E001900D928A95E1F7B9
S1131140C2ECD2E085E498E09BAB8AAB82E0888F66
S113115084EC92E0998388838AE0EBE9F2E0AEE0E4
S1131160B3E001900D928A95E1F78FE797E09093B1
S113117028038093270310920D0387EF92E09D8349
S11311808C838BE0E8E8F2E0A1E4B3E001900D92F7
S11311908A95E1F785EC97E090935B0380935A037B
S11311A01092400381E080935C038AE293E09F8382
S11311B08E8310925D03DF91CF91089584EC92E0C9
S11311C09093C3028093C20281E00895A091C20269
S11311D0B091C30256968C915697882381F0E09182
S11311E05D030E2E000CFF0B3196EE0FFF1FEA0F6E
S11311F0FB1F808191819093C3028093C202089562
S113120088235CF0E091C202F091C30296898917A9
S113121034F480935D0381E0089580E0089580E0D4
S1131220089590915D03890F0E9400090895E0914B
S1131230C202F091C30200A8F1A9E02D0995089516
S1131240E091C202F091C30282A9813009F080E0EA
S113125008958093001208958093001008958EEAF3
S11312600E942C0981EA0E942C098AED0E942C0913
S113127082E10E942C0988EC0E942C0988EA0E94D1
S11312802C098FE30E942C0985ED0E942C0980E82B
S11312900E942C0981E80E942C0980E50E942C09F7
S11312A089ED0E942C0981E20E942C0980E20E94AF
S11312B02C0982E00E942C098BED0E942C0980E30A
S11312C00E942C098DEA0E942C0980E00E942C09BE
S11312D084EA0E942C0986EA0E942C098FEA0E9463
S11312E02C0908958770806B0E942C090895CF9370
S11312F0C82F8F700E942C098C2F82958F7080616B
S11313000E942C09CF910895CF93C62F0E94720991
S11313108C2F0E947709CF91089560E080E00E94AD
S113132084090895CF930E947209C0E004C080E04C
S11313300E942909CF5FCC23D4F7CF910895CF938E
S1131340C0E004C08C2F0E949209CF5FC830D0F354
S11313500E948D09CF910895CF93DF9390EE980F5B
S1131360903608F047C0C82F643099F0683039F1DE
S11313703EC0EC2FF0E0B097EE0FFF1FEE0FFF1F03
S1131380ED0FF11DE059FF4F84910E942909DF5FA1
S113139001C0D0E0D43068F32DC0EC2FF0E0B0975A
S11313A0EE0FFF1FEE0FFF1FEE0FFF1FED0FF11DDE
S11313B0E953FC4F84910E942909DF5F01C0D0E00A
S11313C0D83058F317C02C2F30E020523109F901DE
S11313D0EE0FFF1FEE0FFF1FE20FF31FED0FF11DC6
S11313E0E451FE4F84910E942909DF5F01C0D0E0DF
S11313F0D53048F3DF91CF910895EF92FF921F9378
S1131400CF93DF937C01162F643019F0683009F014
S113141015E0C0E0D0E004C0612F0E94AC09219621
S1131420F701EC0FFD1F80818111F6CFDF91CF9181
S11314301F91FF90EF90089587B3806A87BB81E581
S11314408DB908958FB9779BFECF089580E00E94EF
S1131450220A8FB1089585B7806885BF80E280BF76
S113146008955F9BFECF8CB190E008955D9BFECF05
S11314708CB980E090E0089590BD89B988E18AB97B
S11314808EE880BD61E37AE086E39AE00E94710A07
S1131490089597FB072E16F4009407D077FD09D022
S11314A00E945D0A07FC05D03EF4909581959F4FFC
S11314B00895709561957F4F0895AA1BBB1B51E158
S11314C007C0AA1FBB1FA617B70710F0A61BB70BB0
S11314D0881F991F5A95A9F780959095BC01CD0155
S11314E008950F931F93CF93DF93009731F4611501
S11314F0710519F480E090E03AC08B01EC016EE0D4
S113150070E081E090E00E94130DFC01892B91F3BF
S113151080E883830115110571F01387028781E840
S1131520838380915E0390915F03892B21F4F09370
S11315305F03E0935E032097C9F0D187C08783815E
S1131540826083838091600390916103892B71F49D
S1131550F0936103E09360038091620390916303CD
S1131560892B21F4F0936303E0936203CF01DF91AD
S1131570CF911F910F910895A0E0B0E0E2ECFAE062
S11315800C94170FAE014B5F5F4FFA01619171919B
S1131590AF0180916003909161030E94320BE2E0FD
S11315A00C94330F0F931F93CF93DF93E091600359
S11315B0F0916103238121FF1BC08C01D0E0C0E0C6
S11315C0F80181918F016091600370916103DB01E7
S11315D01896ED91FC911997882331F00995892B80
S11315E079F3DFEFCFEFECCF8AE00995892B19F07F
S11315F08FEF9FEF02C08D2F9C2FDF91CF911F9112
S11316000F910895AEE0B0E0E8E0FBE00C94150F14
S11316100D891E898F89988D26E02C831A8309836E
S113162097FF02C080E090E801979E838D83AE010E
S1131630455E5F4F698D7A8DCE0101960E94320B13
S11316404D815E8157FD0AC02F81388542175307AB
S11316500CF49A01F801E20FF31F10822E96E4E0D5
S11316600C94310FABE0B0E0E8E3FBE00C94070F1F
S11316706C017B018A01FC0117821682838181FF40
S1131680CCC1CE0101963C01F6019381F70193FD93
S1131690859193FF81917F01882309F4BAC1853232
S11316A039F493FD859193FF81917F01853229F46B
S11316B0B60190E00E946D0EE7CF912C212C312CC5
S11316C0FFE1F315D8F08B3279F038F4803279F0F9
S11316D08332A1F4232D20611DC08D3261F080334B
S11316E069F4232D216016C0832D8260382EE32DEA
S11316F0E4603E2E2AC0F32DF8601DC037FC2DC0D7
S113170020ED280F2A3040F08E32B9F436FC81C126
S1131710232D2064322E19C036FE06C08AE0989E1E
S1131720200D1124922E11C0EAE02E9E200D1124CA
S1131730222EF32DF0623F2E08C08C3621F4832D27
S11317408068382E02C0883641F4F70193FD8591F4
S113175093FF81917F018111B3CF982F9F7D955481
S1131760933028F40C5F1F4F9FE399830DC0833699
S113177031F0833771F0833509F059C021C0F80185
S1131780808189830E5F1F4F88248394912C530199
S113179013C02801F2E04F0E511CF801A080B18063
S11317A036FE03C0692D70E002C06FEF7FEFC50104
S11317B00E94620E4C018201F32DFF773F2E16C06A
S11317C0280122E0420E511CF801A080B18036FEAF
S11317D003C0692D70E002C06FEF7FEFC5010E9466
S11317E0500E4C01F32DF0683F2E820133FC1BC0D8
S11317F0822D90E088169906B0F4B60180E290E05C
S11318000E946D0E2A94F4CFF50137FC859137FEC2
S113181081915F01B60190E00E946D0E21102A941F
S113182021E0821A91088114910471F7E8C084368A
S113183011F0893641F5F80137FE07C060817181E6
S1131840828193810C5F1F4F08C060817181072ED4
S1131850000C880B990B0E5F1F4FF32DFF763F2E64
S113186097FF09C090958095709561957F4F8F4F34
S11318709F4FF0683F2E2AE030E0A3010E94A90E9A
S1131880882E861845C0853731F4232D2F7EB22E3D
S11318902AE030E025C0932D997FB92E8F36C1F010
S11318A018F4883579F0B5C0803719F0883721F0FD
S11318B0B0C0E92FE061BE2EB4FE0DC0FB2DF46074
S11318C0BF2E09C034FE0AC0292F2660B22E06C0DE
S11318D028E030E005C020E130E002C020E132E041
S11318E0F801B7FE07C060817181828193810C5F2A
S11318F01F4F06C06081718180E090E00E5F1F4F32
S1131900A3010E94A90E882E8618FB2DFF773F2E77
S113191036FE0DC0232D2E7FA22E891458F434FEDA
S11319200BC032FC09C0832D8E7EA82E05C0B82CB6
S1131930A32C03C0B82C01C0B92CA4FE0FC0FE0117
S1131940E80DF11D8081803321F49A2D997EA92E12
S113195009C0A2FE06C0B394B39404C08A2D86784D
S113196009F0B394A3FC11C0A0FE06C0B21488F41D
S1131970280C922C9B180EC0B21460F4B60180E2BD
S113198090E00E946D0EB394F7CFB21418F42B18A4
S113199002C0982C212CA4FE10C0B60180E390E074
S11319A00E946D0EA2FE17C0A1FC03C088E790E060
S11319B002C088E590E0B6010CC08A2D867859F003
S11319C0A1FE02C08BE201C080E2A7FC8DE2B60159
S11319D090E00E946D0E891438F4B60180E390E023
S11319E00E946D0E9A94F7CF8A94F301E80DF11DCD
S11319F08081B60190E00E946D0E8110F5CF222007
S1131A0009F442CEB60180E290E00E946D0E2A9461
S1131A10F6CFF6018681978102C08FEF9FEF2B9658
S1131A20E2E10C94230F0F931F93CF93DF93869FD0
S1131A308001879F100D969F100D1124C8010E94EC
S1131A402F0DEC01009729F0A80160E070E00E94DE
S1131A505B0ECE01DF91CF911F910F9108950F93EB
S1131A601F93CF93DF938230910510F482E090E0CE
S1131A70E0916603F091670320E030E0A0E0B0E07D
S1131A80309719F140815181028113814817590718
S1131A90C8F08417950769F4109731F012960C93E7
S1131AA0129713961C9327C0009366031093670341
S1131AB022C02115310519F04217530718F49A0171
S1131AC0BD01EF01DF01F801DBCF21153105F9F08C
S1131AD0281B390B2430310580F48A819B816115E0
S1131AE0710521F0FB019383828304C09093670303
S1131AF080936603FE01329644C0FE01E20FF31F99
S1131B008193919322503109398328833AC02091DB
S1131B10640330916503232B41F420910201309139
S1131B2003013093650320936403209100013091F5
S1131B3001012115310541F42DB73EB7409104014F
S1131B4050910501241B350BE0916403F09165036A
S1131B50E217F307A0F42E1B3F0B2817390778F080
S1131B60AC014E5F5F4F2417350748F04E0F5F1FDF
S1131B7050936503409364038193919302C0E0E022
S1131B80F0E0CF01DF91CF911F910F910895CF9392
S1131B90DF93009709F481C0FC013297138212820B
S1131BA0A0916603B0916703109781F4208131817D
S1131BB0820F931F2091640330916503281739071E
S1131BC051F5F0936503E093640367C0ED0120E0F1
S1131BD030E0CE17DF0740F44A815B819E01411556
S1131BE05105F1F0EA01F5CFD383C28340815181DD
S1131BF0840F951FC817D90759F488819981840FD8
S1131C00951F0296918380838A819B81938382832B
S1131C102115310529F4F0936703E09366033DC071
S1131C20E901FB83EA8349915991C40FD51FEC174D
S1131C30FD0761F480819181840F951F0296E9016B
S1131C4099838883828193819B838A83E0E0F0E097
S1131C5012968D919C911397009719F0FD01DC0168
S1131C60F7CF8D919C9111979D012E5F3F4F820F6D
S1131C70931F20916403309165032817390769F491
S1131C80309729F4109267031092660302C01382FE
S1131C901282B0936503A0936403DF91CF910895FA
S1131CA0FC010590615070400110D8F78095909523
S1131CB08E0F9F1F0895DC0101C06D934150504069
S1131CC0E0F70895FC016150704001900110D8F7CD
S1131CD0809590958E0F9F1F08950F931F93CF9318
S1131CE0DF93FB01238121FD03C08FEF9FEF2CC005
S1131CF022FF16C04681578124813581421753073C
S1131D0044F4A081B1819D012F5F3F4F3183208333
S1131D108C93268137812F5F3F4F3783268314C0EE
S1131D208B01EC01FB010084F185E02D0995892BE1
S1131D30E1F6D80116968D919C9117970196179606
S1131D409C938E931697CE01DF91CF911F910F91A3
S1131D500895FA01AA27283051F1203181F1E8943D
S1131D606F936E7F6E5F7F4F8F4F9F4FAF4FB1E08A
S1131D703ED0B4E03CD0670F781F891F9A1FA11D85
S1131D80680F791F8A1F911DA11D6A0F711D811D86
S1131D90911DA11D20D009F468943F912AE0269F4B
S1131DA011243019305D3193DEF6CF010895462FAA
S1131DB04770405D4193B3E00FD0C9F7F6CF462F8B
S1131DC04F70405D4A3318F0495D31FD40524193F4
S1131DD002D0A9F7EACFB4E0A695979587957795B1
S1131DE06795BA95C9F700976105710508959B0138
S1131DF0AC010A2E06945795479537952795BA95C1
S1131E00C9F7620F731F841F951FA01D08952F9299
S1131E103F924F925F926F927F928F929F92AF9276
S1131E20BF92CF92DF92EF92FF920F931F93CF93C3
S1131E30DF93CDB7DEB7CA1BDB0B0FB6F894DEBF5A
S1131E400FBECDBF09942A88398848885F846E8480
S1131E507D848C849B84AA84B984C884DF80EE80CA
S1131E60FD800C811B81AA81B981CE0FD11D0FB6D3
S1131E70F894DEBF0FBECDBFED010895F894FFCFF7
S1131E80000068032000496E697420636F6D706CF4
S1131E906574650053656E743A2049443A202530D0
S1131EA03258202020202D202020204C656E3A20FE
S1131EB025303258202020202D20202020446174F9
S1131EC03A202530325820253032582025303158D8
S1131ED02025303158200D0A0D0A004D435032356B
S1131EE0313520656E746572656420636F6E666952
S1131EF067206D6F64650D004552524F523A204D74
S1131F00435032353135206973204E4F5420696E69
S1131F10206E6F726D616C206D6F6465210D004DD4
S1131F2043503235313520656E7465726564206EB8
S1131F306F726D616C206D6F64650D0020455252A7
S1131F404F5220253032583A204D435032353135E6
S1131F50206973204E4F5420696E20636F6E66694A
S1131F6067206D6F646520616674657220726573A5
S1131F706574210D0A00204D4350323531352069F6
S1131F807320776F726B696E67206D792064756456
S1131F90657321203A29200D004552524F523A20B0
S1131FA04D43503235313520646964206E6F74209E
S1131FB0656E746572206C6F6F706261636B206D07
S1131FC06F64650D004D43503235313520456E74D4
S1131FD065726564206C6F6F706261636B206D6FF6
S1131FE0646520422D290D00202020202047616DAA
S1131FF06520696E2070726F677265737300536336
S11320006F72653A202575004869676853636F727B
S11320106573002D3E200020202000506C61792043
S113202047616D650050696E6720506F6E6720537D
S1112030696D756C61746F722033303030004E
S9030000FC
